{
  "contractName": "AstrologyClub",
  "abi": [
    {
      "inputs": [],
      "stateMutability": "nonpayable",
      "type": "constructor"
    },
    {
      "anonymous": false,
      "inputs": [
        {
          "indexed": true,
          "internalType": "address",
          "name": "owner",
          "type": "address"
        },
        {
          "indexed": true,
          "internalType": "address",
          "name": "approved",
          "type": "address"
        },
        {
          "indexed": true,
          "internalType": "uint256",
          "name": "tokenId",
          "type": "uint256"
        }
      ],
      "name": "Approval",
      "type": "event"
    },
    {
      "anonymous": false,
      "inputs": [
        {
          "indexed": true,
          "internalType": "address",
          "name": "owner",
          "type": "address"
        },
        {
          "indexed": true,
          "internalType": "address",
          "name": "operator",
          "type": "address"
        },
        {
          "indexed": false,
          "internalType": "bool",
          "name": "approved",
          "type": "bool"
        }
      ],
      "name": "ApprovalForAll",
      "type": "event"
    },
    {
      "anonymous": false,
      "inputs": [
        {
          "indexed": true,
          "internalType": "contract IERC20",
          "name": "token",
          "type": "address"
        },
        {
          "indexed": false,
          "internalType": "address",
          "name": "to",
          "type": "address"
        },
        {
          "indexed": false,
          "internalType": "uint256",
          "name": "amount",
          "type": "uint256"
        }
      ],
      "name": "ERC20PaymentReleased",
      "type": "event"
    },
    {
      "anonymous": false,
      "inputs": [
        {
          "indexed": true,
          "internalType": "address",
          "name": "previousOwner",
          "type": "address"
        },
        {
          "indexed": true,
          "internalType": "address",
          "name": "newOwner",
          "type": "address"
        }
      ],
      "name": "OwnershipTransferred",
      "type": "event"
    },
    {
      "anonymous": false,
      "inputs": [
        {
          "indexed": false,
          "internalType": "address",
          "name": "account",
          "type": "address"
        },
        {
          "indexed": false,
          "internalType": "uint256",
          "name": "shares",
          "type": "uint256"
        }
      ],
      "name": "PayeeAdded",
      "type": "event"
    },
    {
      "anonymous": false,
      "inputs": [
        {
          "indexed": false,
          "internalType": "address",
          "name": "from",
          "type": "address"
        },
        {
          "indexed": false,
          "internalType": "uint256",
          "name": "amount",
          "type": "uint256"
        }
      ],
      "name": "PaymentReceived",
      "type": "event"
    },
    {
      "anonymous": false,
      "inputs": [
        {
          "indexed": false,
          "internalType": "address",
          "name": "to",
          "type": "address"
        },
        {
          "indexed": false,
          "internalType": "uint256",
          "name": "amount",
          "type": "uint256"
        }
      ],
      "name": "PaymentReleased",
      "type": "event"
    },
    {
      "anonymous": false,
      "inputs": [
        {
          "indexed": true,
          "internalType": "address",
          "name": "from",
          "type": "address"
        },
        {
          "indexed": true,
          "internalType": "address",
          "name": "to",
          "type": "address"
        },
        {
          "indexed": true,
          "internalType": "uint256",
          "name": "tokenId",
          "type": "uint256"
        }
      ],
      "name": "Transfer",
      "type": "event"
    },
    {
      "inputs": [
        {
          "internalType": "address",
          "name": "to",
          "type": "address"
        },
        {
          "internalType": "uint256",
          "name": "tokenId",
          "type": "uint256"
        }
      ],
      "name": "approve",
      "outputs": [],
      "stateMutability": "nonpayable",
      "type": "function"
    },
    {
      "inputs": [
        {
          "internalType": "address",
          "name": "owner",
          "type": "address"
        }
      ],
      "name": "balanceOf",
      "outputs": [
        {
          "internalType": "uint256",
          "name": "",
          "type": "uint256"
        }
      ],
      "stateMutability": "view",
      "type": "function"
    },
    {
      "inputs": [],
      "name": "baseExtension",
      "outputs": [
        {
          "internalType": "string",
          "name": "",
          "type": "string"
        }
      ],
      "stateMutability": "view",
      "type": "function"
    },
    {
      "inputs": [],
      "name": "baseURI",
      "outputs": [
        {
          "internalType": "string",
          "name": "",
          "type": "string"
        }
      ],
      "stateMutability": "view",
      "type": "function"
    },
    {
      "inputs": [],
      "name": "dev",
      "outputs": [
        {
          "internalType": "address",
          "name": "",
          "type": "address"
        }
      ],
      "stateMutability": "view",
      "type": "function"
    },
    {
      "inputs": [
        {
          "internalType": "uint256",
          "name": "tokenId",
          "type": "uint256"
        }
      ],
      "name": "getApproved",
      "outputs": [
        {
          "internalType": "address",
          "name": "",
          "type": "address"
        }
      ],
      "stateMutability": "view",
      "type": "function"
    },
    {
      "inputs": [
        {
          "internalType": "address",
          "name": "owner",
          "type": "address"
        },
        {
          "internalType": "address",
          "name": "operator",
          "type": "address"
        }
      ],
      "name": "isApprovedForAll",
      "outputs": [
        {
          "internalType": "bool",
          "name": "",
          "type": "bool"
        }
      ],
      "stateMutability": "view",
      "type": "function"
    },
    {
      "inputs": [],
      "name": "maxMintSupply",
      "outputs": [
        {
          "internalType": "uint256",
          "name": "",
          "type": "uint256"
        }
      ],
      "stateMutability": "view",
      "type": "function"
    },
    {
      "inputs": [],
      "name": "name",
      "outputs": [
        {
          "internalType": "string",
          "name": "",
          "type": "string"
        }
      ],
      "stateMutability": "view",
      "type": "function"
    },
    {
      "inputs": [],
      "name": "owner",
      "outputs": [
        {
          "internalType": "address",
          "name": "",
          "type": "address"
        }
      ],
      "stateMutability": "view",
      "type": "function"
    },
    {
      "inputs": [
        {
          "internalType": "uint256",
          "name": "tokenId",
          "type": "uint256"
        }
      ],
      "name": "ownerOf",
      "outputs": [
        {
          "internalType": "address",
          "name": "",
          "type": "address"
        }
      ],
      "stateMutability": "view",
      "type": "function"
    },
    {
      "inputs": [
        {
          "internalType": "uint256",
          "name": "index",
          "type": "uint256"
        }
      ],
      "name": "payee",
      "outputs": [
        {
          "internalType": "address",
          "name": "",
          "type": "address"
        }
      ],
      "stateMutability": "view",
      "type": "function"
    },
    {
      "inputs": [],
      "name": "publicState",
      "outputs": [
        {
          "internalType": "bool",
          "name": "",
          "type": "bool"
        }
      ],
      "stateMutability": "view",
      "type": "function"
    },
    {
      "inputs": [
        {
          "internalType": "address payable",
          "name": "account",
          "type": "address"
        }
      ],
      "name": "release",
      "outputs": [],
      "stateMutability": "nonpayable",
      "type": "function"
    },
    {
      "inputs": [
        {
          "internalType": "contract IERC20",
          "name": "token",
          "type": "address"
        },
        {
          "internalType": "address",
          "name": "account",
          "type": "address"
        }
      ],
      "name": "release",
      "outputs": [],
      "stateMutability": "nonpayable",
      "type": "function"
    },
    {
      "inputs": [
        {
          "internalType": "contract IERC20",
          "name": "token",
          "type": "address"
        },
        {
          "internalType": "address",
          "name": "account",
          "type": "address"
        }
      ],
      "name": "released",
      "outputs": [
        {
          "internalType": "uint256",
          "name": "",
          "type": "uint256"
        }
      ],
      "stateMutability": "view",
      "type": "function"
    },
    {
      "inputs": [
        {
          "internalType": "address",
          "name": "account",
          "type": "address"
        }
      ],
      "name": "released",
      "outputs": [
        {
          "internalType": "uint256",
          "name": "",
          "type": "uint256"
        }
      ],
      "stateMutability": "view",
      "type": "function"
    },
    {
      "inputs": [],
      "name": "renounceOwnership",
      "outputs": [],
      "stateMutability": "nonpayable",
      "type": "function"
    },
    {
      "inputs": [
        {
          "internalType": "address",
          "name": "from",
          "type": "address"
        },
        {
          "internalType": "address",
          "name": "to",
          "type": "address"
        },
        {
          "internalType": "uint256",
          "name": "tokenId",
          "type": "uint256"
        }
      ],
      "name": "safeTransferFrom",
      "outputs": [],
      "stateMutability": "nonpayable",
      "type": "function"
    },
    {
      "inputs": [
        {
          "internalType": "address",
          "name": "from",
          "type": "address"
        },
        {
          "internalType": "address",
          "name": "to",
          "type": "address"
        },
        {
          "internalType": "uint256",
          "name": "tokenId",
          "type": "uint256"
        },
        {
          "internalType": "bytes",
          "name": "_data",
          "type": "bytes"
        }
      ],
      "name": "safeTransferFrom",
      "outputs": [],
      "stateMutability": "nonpayable",
      "type": "function"
    },
    {
      "inputs": [
        {
          "internalType": "address",
          "name": "operator",
          "type": "address"
        },
        {
          "internalType": "bool",
          "name": "approved",
          "type": "bool"
        }
      ],
      "name": "setApprovalForAll",
      "outputs": [],
      "stateMutability": "nonpayable",
      "type": "function"
    },
    {
      "inputs": [
        {
          "internalType": "address",
          "name": "account",
          "type": "address"
        }
      ],
      "name": "shares",
      "outputs": [
        {
          "internalType": "uint256",
          "name": "",
          "type": "uint256"
        }
      ],
      "stateMutability": "view",
      "type": "function"
    },
    {
      "inputs": [
        {
          "internalType": "bytes4",
          "name": "interfaceId",
          "type": "bytes4"
        }
      ],
      "name": "supportsInterface",
      "outputs": [
        {
          "internalType": "bool",
          "name": "",
          "type": "bool"
        }
      ],
      "stateMutability": "view",
      "type": "function"
    },
    {
      "inputs": [],
      "name": "symbol",
      "outputs": [
        {
          "internalType": "string",
          "name": "",
          "type": "string"
        }
      ],
      "stateMutability": "view",
      "type": "function"
    },
    {
      "inputs": [
        {
          "internalType": "uint256",
          "name": "index",
          "type": "uint256"
        }
      ],
      "name": "tokenByIndex",
      "outputs": [
        {
          "internalType": "uint256",
          "name": "",
          "type": "uint256"
        }
      ],
      "stateMutability": "view",
      "type": "function"
    },
    {
      "inputs": [
        {
          "internalType": "address",
          "name": "owner",
          "type": "address"
        },
        {
          "internalType": "uint256",
          "name": "index",
          "type": "uint256"
        }
      ],
      "name": "tokenOfOwnerByIndex",
      "outputs": [
        {
          "internalType": "uint256",
          "name": "",
          "type": "uint256"
        }
      ],
      "stateMutability": "view",
      "type": "function"
    },
    {
      "inputs": [],
      "name": "totalMinted",
      "outputs": [
        {
          "internalType": "uint256",
          "name": "",
          "type": "uint256"
        }
      ],
      "stateMutability": "view",
      "type": "function"
    },
    {
      "inputs": [
        {
          "internalType": "contract IERC20",
          "name": "token",
          "type": "address"
        }
      ],
      "name": "totalReleased",
      "outputs": [
        {
          "internalType": "uint256",
          "name": "",
          "type": "uint256"
        }
      ],
      "stateMutability": "view",
      "type": "function"
    },
    {
      "inputs": [],
      "name": "totalReleased",
      "outputs": [
        {
          "internalType": "uint256",
          "name": "",
          "type": "uint256"
        }
      ],
      "stateMutability": "view",
      "type": "function"
    },
    {
      "inputs": [],
      "name": "totalShares",
      "outputs": [
        {
          "internalType": "uint256",
          "name": "",
          "type": "uint256"
        }
      ],
      "stateMutability": "view",
      "type": "function"
    },
    {
      "inputs": [],
      "name": "totalSupply",
      "outputs": [
        {
          "internalType": "uint256",
          "name": "",
          "type": "uint256"
        }
      ],
      "stateMutability": "view",
      "type": "function"
    },
    {
      "inputs": [
        {
          "internalType": "address",
          "name": "from",
          "type": "address"
        },
        {
          "internalType": "address",
          "name": "to",
          "type": "address"
        },
        {
          "internalType": "uint256",
          "name": "tokenId",
          "type": "uint256"
        }
      ],
      "name": "transferFrom",
      "outputs": [],
      "stateMutability": "nonpayable",
      "type": "function"
    },
    {
      "inputs": [
        {
          "internalType": "address",
          "name": "newOwner",
          "type": "address"
        }
      ],
      "name": "transferOwnership",
      "outputs": [],
      "stateMutability": "nonpayable",
      "type": "function"
    },
    {
      "stateMutability": "payable",
      "type": "receive"
    },
    {
      "inputs": [],
      "name": "enablePublic",
      "outputs": [],
      "stateMutability": "nonpayable",
      "type": "function"
    },
    {
      "inputs": [],
      "name": "disable",
      "outputs": [],
      "stateMutability": "nonpayable",
      "type": "function"
    },
    {
      "inputs": [
        {
          "internalType": "string",
          "name": "_tokenBaseURI",
          "type": "string"
        }
      ],
      "name": "setBaseURI",
      "outputs": [],
      "stateMutability": "nonpayable",
      "type": "function"
    },
    {
      "inputs": [
        {
          "internalType": "string",
          "name": "_newBaseExtension",
          "type": "string"
        }
      ],
      "name": "setBaseExtension",
      "outputs": [],
      "stateMutability": "nonpayable",
      "type": "function"
    },
    {
      "inputs": [
        {
          "internalType": "uint256",
          "name": "tokenId",
          "type": "uint256"
        }
      ],
      "name": "tokenURI",
      "outputs": [
        {
          "internalType": "string",
          "name": "",
          "type": "string"
        }
      ],
      "stateMutability": "view",
      "type": "function"
    },
    {
      "inputs": [
        {
          "internalType": "uint256",
          "name": "_amount",
          "type": "uint256"
        }
      ],
      "name": "mint",
      "outputs": [],
      "stateMutability": "payable",
      "type": "function"
    }
  ],
  "bytecode": "0x61271060125560c06040526005608081905264173539b7b760d91b60a09081526200002e9160159190620005bf565b506016805460ff1916905567016345785d8a000060175560408051608081018252603c815260216020820152600591810191909152600260608201526200007a9060199060046200064e565b506040805160808101825273bd584ce590b7dcdbb93b11e095d9e1d5880b44d981527385a37ac5c3250827b4f50f3373275c67c7f5ff3b602082015273a26ae192f618f89f3579974e87e2a9277065460591810191909152731d7d6857c397788d1d33744276b54efae92cbbad6060820152620000fc90601a90600462000691565b503480156200010a57600080fd5b50601a8054806020026020016040519081016040528092919081815260200182805480156200016357602002820191906000526020600020905b81546001600160a01b0316815260019091019060200180831162000144575b50505050506019805480602002602001604051908101604052809291908181526020018280548015620001b657602002820191906000526020600020905b815481526020019060010190808311620001a1575b5050604080518082018252600d81526c20b9ba3937b637b3bca1b63ab160991b6020808301918252835180850190945260048452630534d54560e41b9084015281519195509193506200020e925060009190620005bf565b50805162000224906001906020840190620005bf565b505050620002416200023b6200037b60201b60201c565b6200037f565b8051825114620002b35760405162461bcd60e51b815260206004820152603260248201527f5061796d656e7453706c69747465723a2070617965657320616e6420736861726044820152710cae640d8cadccee8d040dad2e6dac2e8c6d60731b60648201526084015b60405180910390fd5b6000825111620003065760405162461bcd60e51b815260206004820152601a60248201527f5061796d656e7453706c69747465723a206e6f207061796565730000000000006044820152606401620002aa565b60005b825181101562000372576200035d8382815181106200032c576200032c62000700565b602002602001015183838151811062000349576200034962000700565b6020026020010151620003d160201b60201c565b8062000369816200072c565b91505062000309565b505050620007a2565b3390565b600a80546001600160a01b038381166001600160a01b0319831681179093556040519116919082907f8be0079c531659141344cd1fd0a4f28419497f9722a3daafe3b4186f6b6457e090600090a35050565b6001600160a01b0382166200043e5760405162461bcd60e51b815260206004820152602c60248201527f5061796d656e7453706c69747465723a206163636f756e74206973207468652060448201526b7a65726f206164647265737360a01b6064820152608401620002aa565b60008111620004905760405162461bcd60e51b815260206004820152601d60248201527f5061796d656e7453706c69747465723a207368617265732061726520300000006044820152606401620002aa565b6001600160a01b0382166000908152600d6020526040902054156200050c5760405162461bcd60e51b815260206004820152602b60248201527f5061796d656e7453706c69747465723a206163636f756e7420616c726561647960448201526a206861732073686172657360a81b6064820152608401620002aa565b600f8054600181019091557f8d1108e10bcb7c27dddfc02ed9d693a074039d026cf4ea4240b40f7d581ac8020180546001600160a01b0319166001600160a01b0384169081179091556000908152600d60205260409020819055600b54620005769082906200074a565b600b55604080516001600160a01b0384168152602081018390527f40c340f65e17194d14ddddb073d3c9f888e3cb52b5aae0c6c7706b4fbc905fac910160405180910390a15050565b828054620005cd9062000765565b90600052602060002090601f016020900481019282620005f157600085556200063c565b82601f106200060c57805160ff19168380011785556200063c565b828001600101855582156200063c579182015b828111156200063c5782518255916020019190600101906200061f565b506200064a929150620006e9565b5090565b8280548282559060005260206000209081019282156200063c579160200282015b828111156200063c578251829060ff169055916020019190600101906200066f565b8280548282559060005260206000209081019282156200063c579160200282015b828111156200063c57825182546001600160a01b0319166001600160a01b03909116178255602090920191600190910190620006b2565b5b808211156200064a5760008155600101620006ea565b634e487b7160e01b600052603260045260246000fd5b634e487b7160e01b600052601160045260246000fd5b600060001982141562000743576200074362000716565b5060010190565b6000821982111562000760576200076062000716565b500190565b600181811c908216806200077a57607f821691505b602082108114156200079c57634e487b7160e01b600052602260045260246000fd5b50919050565b612d0980620007b26000396000f3fe6080604052600436106102345760003560e01c80638b83209b1161012e578063c285e107116100ab578063da3ef23f1161006f578063da3ef23f146106f6578063dc64a75414610716578063e33b7de31461072b578063e985e9c514610740578063f2fde38b1461078957600080fd5b8063c285e1071461063f578063c668286214610655578063c87b56dd1461066a578063ce7c2ac21461068a578063d79779b2146106c057600080fd5b8063a0712d68116100f2578063a0712d68146105bc578063a22cb465146105cf578063a2309ff8146105ef578063abfe761414610605578063b88d4fde1461061f57600080fd5b80638b83209b1461050c5780638da5cb5b1461052c57806391cca3db1461054a57806395d89b41146105715780639852595c1461058657600080fd5b80633a98ef39116101bc57806355f804b31161018057806355f804b3146104825780636352211e146104a25780636c0360eb146104c257806370a08231146104d7578063715018a6146104f757600080fd5b80633a98ef39146103c7578063406072a9146103dc57806342842e0e1461042257806348b75044146104425780634f6ccce71461046257600080fd5b806318160ddd1161020357806318160ddd14610333578063191655871461035257806323b872dd146103725780632f2770db146103925780632f745c59146103a757600080fd5b806301ffc9a71461028257806306fdde03146102b7578063081812fc146102d9578063095ea7b31461031157600080fd5b3661027d577f6ef95f06320e7a25a04a175ca677b7052bdd97131872c2192525a629f51be77033604080516001600160a01b0390921682523460208301520160405180910390a1005b600080fd5b34801561028e57600080fd5b506102a261029d36600461255a565b6107a9565b60405190151581526020015b60405180910390f35b3480156102c357600080fd5b506102cc6107d4565b6040516102ae91906125cf565b3480156102e557600080fd5b506102f96102f43660046125e2565b610866565b6040516001600160a01b0390911681526020016102ae565b34801561031d57600080fd5b5061033161032c366004612610565b610900565b005b34801561033f57600080fd5b506008545b6040519081526020016102ae565b34801561035e57600080fd5b5061033161036d36600461263c565b610a16565b34801561037e57600080fd5b5061033161038d366004612659565b610b44565b34801561039e57600080fd5b50610331610b75565b3480156103b357600080fd5b506103446103c2366004612610565b610bc9565b3480156103d357600080fd5b50600b54610344565b3480156103e857600080fd5b506103446103f736600461269a565b6001600160a01b03918216600090815260116020908152604080832093909416825291909152205490565b34801561042e57600080fd5b5061033161043d366004612659565b610c5f565b34801561044e57600080fd5b5061033161045d36600461269a565b610c7a565b34801561046e57600080fd5b5061034461047d3660046125e2565b610e53565b34801561048e57600080fd5b5061033161049d3660046126d3565b610ee6565b3480156104ae57600080fd5b506102f96104bd3660046125e2565b610f3a565b3480156104ce57600080fd5b506102cc610fb1565b3480156104e357600080fd5b506103446104f236600461263c565b61103f565b34801561050357600080fd5b506103316110c6565b34801561051857600080fd5b506102f96105273660046125e2565b61111a565b34801561053857600080fd5b50600a546001600160a01b03166102f9565b34801561055657600080fd5b50737c95d1209e2f95496c4c9a18aa653fded834503f6102f9565b34801561057d57600080fd5b506102cc61114a565b34801561059257600080fd5b506103446105a136600461263c565b6001600160a01b03166000908152600e602052604090205490565b6103316105ca3660046125e2565b611159565b3480156105db57600080fd5b506103316105ea366004612753565b61132e565b3480156105fb57600080fd5b5061034460135481565b34801561061157600080fd5b506016546102a29060ff1681565b34801561062b57600080fd5b5061033161063a36600461280d565b611339565b34801561064b57600080fd5b5061034460125481565b34801561066157600080fd5b506102cc611371565b34801561067657600080fd5b506102cc6106853660046125e2565b61137e565b34801561069657600080fd5b506103446106a536600461263c565b6001600160a01b03166000908152600d602052604090205490565b3480156106cc57600080fd5b506103446106db36600461263c565b6001600160a01b031660009081526010602052604090205490565b34801561070257600080fd5b5061033161071136600461288d565b611438565b34801561072257600080fd5b50610331611493565b34801561073757600080fd5b50600c54610344565b34801561074c57600080fd5b506102a261075b36600461269a565b6001600160a01b03918216600090815260056020908152604080832093909416825291909152205460ff1690565b34801561079557600080fd5b506103316107a436600461263c565b6114ea565b60006001600160e01b0319821663780e9d6360e01b14806107ce57506107ce826115a3565b92915050565b6060600080546107e3906128d6565b80601f016020809104026020016040519081016040528092919081815260200182805461080f906128d6565b801561085c5780601f106108315761010080835404028352916020019161085c565b820191906000526020600020905b81548152906001019060200180831161083f57829003601f168201915b5050505050905090565b6000818152600260205260408120546001600160a01b03166108e45760405162461bcd60e51b815260206004820152602c60248201527f4552433732313a20617070726f76656420717565727920666f72206e6f6e657860448201526b34b9ba32b73a103a37b5b2b760a11b60648201526084015b60405180910390fd5b506000908152600460205260409020546001600160a01b031690565b600061090b82610f3a565b9050806001600160a01b0316836001600160a01b031614156109795760405162461bcd60e51b815260206004820152602160248201527f4552433732313a20617070726f76616c20746f2063757272656e74206f776e656044820152603960f91b60648201526084016108db565b336001600160a01b03821614806109955750610995813361075b565b610a075760405162461bcd60e51b815260206004820152603860248201527f4552433732313a20617070726f76652063616c6c6572206973206e6f74206f7760448201527f6e6572206e6f7220617070726f76656420666f7220616c6c000000000000000060648201526084016108db565b610a1183836115f3565b505050565b6001600160a01b0381166000908152600d6020526040902054610a4b5760405162461bcd60e51b81526004016108db90612911565b6000610a56600c5490565b610a60904761296d565b90506000610a8d8383610a88866001600160a01b03166000908152600e602052604090205490565b611661565b905080610aac5760405162461bcd60e51b81526004016108db90612985565b6001600160a01b0383166000908152600e602052604081208054839290610ad490849061296d565b9250508190555080600c6000828254610aed919061296d565b90915550610afd905083826116a7565b604080516001600160a01b0385168152602081018390527fdf20fd1e76bc69d672e4814fafb2c449bba3a5369d8359adf9e05e6fde87b056910160405180910390a1505050565b610b4e33826117c0565b610b6a5760405162461bcd60e51b81526004016108db906129d0565b610a118383836118b6565b600a546001600160a01b0316331480610ba15750737c95d1209e2f95496c4c9a18aa653fded834503f33145b610bbd5760405162461bcd60e51b81526004016108db90612a21565b6016805460ff19169055565b6000610bd48361103f565b8210610c365760405162461bcd60e51b815260206004820152602b60248201527f455243373231456e756d657261626c653a206f776e657220696e646578206f7560448201526a74206f6620626f756e647360a81b60648201526084016108db565b506001600160a01b03919091166000908152600660209081526040808320938352929052205490565b610a1183838360405180602001604052806000815250611339565b6001600160a01b0381166000908152600d6020526040902054610caf5760405162461bcd60e51b81526004016108db90612911565b6001600160a01b0382166000908152601060205260408120546040516370a0823160e01b81523060048201526001600160a01b038516906370a0823190602401602060405180830381865afa158015610d0c573d6000803e3d6000fd5b505050506040513d601f19601f82011682018060405250810190610d309190612a56565b610d3a919061296d565b90506000610d738383610a8887876001600160a01b03918216600090815260116020908152604080832093909416825291909152205490565b905080610d925760405162461bcd60e51b81526004016108db90612985565b6001600160a01b03808516600090815260116020908152604080832093871683529290529081208054839290610dc990849061296d565b90915550506001600160a01b03841660009081526010602052604081208054839290610df690849061296d565b90915550610e079050848483611a61565b604080516001600160a01b038581168252602082018490528616917f3be5b7a71e84ed12875d241991c70855ac5817d847039e17a9d895c1ceb0f18a910160405180910390a250505050565b6000610e5e60085490565b8210610ec15760405162461bcd60e51b815260206004820152602c60248201527f455243373231456e756d657261626c653a20676c6f62616c20696e646578206f60448201526b7574206f6620626f756e647360a01b60648201526084016108db565b60088281548110610ed457610ed4612a6f565b90600052602060002001549050919050565b600a546001600160a01b0316331480610f125750737c95d1209e2f95496c4c9a18aa653fded834503f33145b610f2e5760405162461bcd60e51b81526004016108db90612a21565b610a1160148383612437565b6000818152600260205260408120546001600160a01b0316806107ce5760405162461bcd60e51b815260206004820152602960248201527f4552433732313a206f776e657220717565727920666f72206e6f6e657869737460448201526832b73a103a37b5b2b760b91b60648201526084016108db565b60148054610fbe906128d6565b80601f0160208091040260200160405190810160405280929190818152602001828054610fea906128d6565b80156110375780601f1061100c57610100808354040283529160200191611037565b820191906000526020600020905b81548152906001019060200180831161101a57829003601f168201915b505050505081565b60006001600160a01b0382166110aa5760405162461bcd60e51b815260206004820152602a60248201527f4552433732313a2062616c616e636520717565727920666f7220746865207a65604482015269726f206164647265737360b01b60648201526084016108db565b506001600160a01b031660009081526003602052604090205490565b600a546001600160a01b03163314806110f25750737c95d1209e2f95496c4c9a18aa653fded834503f33145b61110e5760405162461bcd60e51b81526004016108db90612a21565b6111186000611ab3565b565b6000600f828154811061112f5761112f612a6f565b6000918252602090912001546001600160a01b031692915050565b6060600180546107e3906128d6565b60165460ff1661119b5760405162461bcd60e51b815260206004820152600d60248201526c1b5a5b9d08191a5cd8589b1959609a1b60448201526064016108db565b600081116111d95760405162461bcd60e51b815260206004820152600b60248201526a1e995c9bc8185b5bdd5b9d60aa1b60448201526064016108db565b600381111561122a5760405162461bcd60e51b815260206004820152601960248201527f63616e2774206d696e7420736f206d75636820746f6b656e730000000000000060448201526064016108db565b6012548160135461123b919061296d565b111561127f5760405162461bcd60e51b81526020600482015260136024820152721b585e081cdd5c1c1b1e48195e18d959591959606a1b60448201526064016108db565b348160175461128e9190612a85565b11156112dc5760405162461bcd60e51b815260206004820152601960248201527f76616c75652073656e74206973206e6f7420636f72726563740000000000000060448201526064016108db565b60005b8181101561132a576112f5601880546001019055565b6113073361130260185490565b611b05565b60135461131590600161296d565b6013558061132281612aa4565b9150506112df565b5050565b61132a338383611b1f565b61134333836117c0565b61135f5760405162461bcd60e51b81526004016108db906129d0565b61136b84848484611bee565b50505050565b60158054610fbe906128d6565b6000818152600260205260409020546060906001600160a01b03166113d95760405162461bcd60e51b81526020600482015260116024820152703737b732bc34b9ba32b73a103a37b5b2b760791b60448201526064016108db565b60006113e3611c21565b905060008151116114035760405180602001604052806000815250611431565b8061140d84611c30565b601560405160200161142193929190612abf565b6040516020818303038152906040525b9392505050565b600a546001600160a01b03163314806114645750737c95d1209e2f95496c4c9a18aa653fded834503f33145b6114805760405162461bcd60e51b81526004016108db90612a21565b805161132a9060159060208401906124bb565b600a546001600160a01b03163314806114bf5750737c95d1209e2f95496c4c9a18aa653fded834503f33145b6114db5760405162461bcd60e51b81526004016108db90612a21565b6016805460ff19166001179055565b600a546001600160a01b03163314806115165750737c95d1209e2f95496c4c9a18aa653fded834503f33145b6115325760405162461bcd60e51b81526004016108db90612a21565b6001600160a01b0381166115975760405162461bcd60e51b815260206004820152602660248201527f4f776e61626c653a206e6577206f776e657220697320746865207a65726f206160448201526564647265737360d01b60648201526084016108db565b6115a081611ab3565b50565b60006001600160e01b031982166380ac58cd60e01b14806115d457506001600160e01b03198216635b5e139f60e01b145b806107ce57506301ffc9a760e01b6001600160e01b03198316146107ce565b600081815260046020526040902080546001600160a01b0319166001600160a01b038416908117909155819061162882610f3a565b6001600160a01b03167f8c5be1e5ebec7d5bd14f71427d1e84f3dd0314c0f7b2291e5b200ac8c7c3b92560405160405180910390a45050565b600b546001600160a01b0384166000908152600d60205260408120549091839161168b9086612a85565b6116959190612b99565b61169f9190612bad565b949350505050565b804710156116f75760405162461bcd60e51b815260206004820152601d60248201527f416464726573733a20696e73756666696369656e742062616c616e636500000060448201526064016108db565b6000826001600160a01b03168260405160006040518083038185875af1925050503d8060008114611744576040519150601f19603f3d011682016040523d82523d6000602084013e611749565b606091505b5050905080610a115760405162461bcd60e51b815260206004820152603a60248201527f416464726573733a20756e61626c6520746f2073656e642076616c75652c207260448201527f6563697069656e74206d6179206861766520726576657274656400000000000060648201526084016108db565b6000818152600260205260408120546001600160a01b03166118395760405162461bcd60e51b815260206004820152602c60248201527f4552433732313a206f70657261746f7220717565727920666f72206e6f6e657860448201526b34b9ba32b73a103a37b5b2b760a11b60648201526084016108db565b600061184483610f3a565b9050806001600160a01b0316846001600160a01b0316148061187f5750836001600160a01b031661187484610866565b6001600160a01b0316145b8061169f57506001600160a01b0380821660009081526005602090815260408083209388168352929052205460ff16949350505050565b826001600160a01b03166118c982610f3a565b6001600160a01b0316146119315760405162461bcd60e51b815260206004820152602960248201527f4552433732313a207472616e73666572206f6620746f6b656e2074686174206960448201526839903737ba1037bbb760b91b60648201526084016108db565b6001600160a01b0382166119935760405162461bcd60e51b8152602060048201526024808201527f4552433732313a207472616e7366657220746f20746865207a65726f206164646044820152637265737360e01b60648201526084016108db565b61199e838383611d2e565b6119a96000826115f3565b6001600160a01b03831660009081526003602052604081208054600192906119d2908490612bad565b90915550506001600160a01b0382166000908152600360205260408120805460019290611a0090849061296d565b909155505060008181526002602052604080822080546001600160a01b0319166001600160a01b0386811691821790925591518493918716917fddf252ad1be2c89b69c2b068fc378daa952ba7f163c4a11628f55a4df523b3ef91a4505050565b604080516001600160a01b038416602482015260448082018490528251808303909101815260649091019091526020810180516001600160e01b031663a9059cbb60e01b179052610a11908490611de6565b600a80546001600160a01b038381166001600160a01b0319831681179093556040519116919082907f8be0079c531659141344cd1fd0a4f28419497f9722a3daafe3b4186f6b6457e090600090a35050565b61132a828260405180602001604052806000815250611eb8565b816001600160a01b0316836001600160a01b03161415611b815760405162461bcd60e51b815260206004820152601960248201527f4552433732313a20617070726f766520746f2063616c6c65720000000000000060448201526064016108db565b6001600160a01b03838116600081815260056020908152604080832094871680845294825291829020805460ff191686151590811790915591519182527f17307eab39ab6107e8899845ad3d59bd9653f200f220920489ca2b5937696c31910160405180910390a3505050565b611bf98484846118b6565b611c0584848484611eeb565b61136b5760405162461bcd60e51b81526004016108db90612bc4565b6060601480546107e3906128d6565b606081611c545750506040805180820190915260018152600360fc1b602082015290565b8160005b8115611c7e5780611c6881612aa4565b9150611c779050600a83612b99565b9150611c58565b60008167ffffffffffffffff811115611c9957611c99612781565b6040519080825280601f01601f191660200182016040528015611cc3576020820181803683370190505b5090505b841561169f57611cd8600183612bad565b9150611ce5600a86612c16565b611cf090603061296d565b60f81b818381518110611d0557611d05612a6f565b60200101906001600160f81b031916908160001a905350611d27600a86612b99565b9450611cc7565b6001600160a01b038316611d8957611d8481600880546000838152600960205260408120829055600182018355919091527ff3f7a9fe364faab93b216da50a3214154f22a0a2b415b23a84c8169e8b636ee30155565b611dac565b816001600160a01b0316836001600160a01b031614611dac57611dac8382611fe9565b6001600160a01b038216611dc357610a1181612086565b826001600160a01b0316826001600160a01b031614610a1157610a118282612135565b6000611e3b826040518060400160405280602081526020017f5361666545524332303a206c6f772d6c6576656c2063616c6c206661696c6564815250856001600160a01b03166121799092919063ffffffff16565b805190915015610a115780806020019051810190611e599190612c2a565b610a115760405162461bcd60e51b815260206004820152602a60248201527f5361666545524332303a204552433230206f7065726174696f6e20646964206e6044820152691bdd081cdd58d8d9595960b21b60648201526084016108db565b611ec28383612188565b611ecf6000848484611eeb565b610a115760405162461bcd60e51b81526004016108db90612bc4565b60006001600160a01b0384163b15611fde57604051630a85bd0160e11b81526001600160a01b0385169063150b7a0290611f2f903390899088908890600401612c47565b6020604051808303816000875af1925050508015611f6a575060408051601f3d908101601f19168201909252611f6791810190612c84565b60015b611fc4573d808015611f98576040519150601f19603f3d011682016040523d82523d6000602084013e611f9d565b606091505b508051611fbc5760405162461bcd60e51b81526004016108db90612bc4565b805181602001fd5b6001600160e01b031916630a85bd0160e11b14905061169f565b506001949350505050565b60006001611ff68461103f565b6120009190612bad565b600083815260076020526040902054909150808214612053576001600160a01b03841660009081526006602090815260408083208584528252808320548484528184208190558352600790915290208190555b5060009182526007602090815260408084208490556001600160a01b039094168352600681528383209183525290812055565b60085460009061209890600190612bad565b600083815260096020526040812054600880549394509092849081106120c0576120c0612a6f565b9060005260206000200154905080600883815481106120e1576120e1612a6f565b600091825260208083209091019290925582815260099091526040808220849055858252812055600880548061211957612119612ca1565b6001900381819060005260206000200160009055905550505050565b60006121408361103f565b6001600160a01b039093166000908152600660209081526040808320868452825280832085905593825260079052919091209190915550565b606061169f84846000856122d6565b6001600160a01b0382166121de5760405162461bcd60e51b815260206004820181905260248201527f4552433732313a206d696e7420746f20746865207a65726f206164647265737360448201526064016108db565b6000818152600260205260409020546001600160a01b0316156122435760405162461bcd60e51b815260206004820152601c60248201527f4552433732313a20746f6b656e20616c7265616479206d696e7465640000000060448201526064016108db565b61224f60008383611d2e565b6001600160a01b038216600090815260036020526040812080546001929061227890849061296d565b909155505060008181526002602052604080822080546001600160a01b0319166001600160a01b03861690811790915590518392907fddf252ad1be2c89b69c2b068fc378daa952ba7f163c4a11628f55a4df523b3ef908290a45050565b6060824710156123375760405162461bcd60e51b815260206004820152602660248201527f416464726573733a20696e73756666696369656e742062616c616e636520666f6044820152651c8818d85b1b60d21b60648201526084016108db565b843b6123855760405162461bcd60e51b815260206004820152601d60248201527f416464726573733a2063616c6c20746f206e6f6e2d636f6e747261637400000060448201526064016108db565b600080866001600160a01b031685876040516123a19190612cb7565b60006040518083038185875af1925050503d80600081146123de576040519150601f19603f3d011682016040523d82523d6000602084013e6123e3565b606091505b50915091506123f38282866123fe565b979650505050505050565b6060831561240d575081611431565b82511561241d5782518084602001fd5b8160405162461bcd60e51b81526004016108db91906125cf565b828054612443906128d6565b90600052602060002090601f01602090048101928261246557600085556124ab565b82601f1061247e5782800160ff198235161785556124ab565b828001600101855582156124ab579182015b828111156124ab578235825591602001919060010190612490565b506124b792915061252f565b5090565b8280546124c7906128d6565b90600052602060002090601f0160209004810192826124e957600085556124ab565b82601f1061250257805160ff19168380011785556124ab565b828001600101855582156124ab579182015b828111156124ab578251825591602001919060010190612514565b5b808211156124b75760008155600101612530565b6001600160e01b0319811681146115a057600080fd5b60006020828403121561256c57600080fd5b813561143181612544565b60005b8381101561259257818101518382015260200161257a565b8381111561136b5750506000910152565b600081518084526125bb816020860160208601612577565b601f01601f19169290920160200192915050565b60208152600061143160208301846125a3565b6000602082840312156125f457600080fd5b5035919050565b6001600160a01b03811681146115a057600080fd5b6000806040838503121561262357600080fd5b823561262e816125fb565b946020939093013593505050565b60006020828403121561264e57600080fd5b8135611431816125fb565b60008060006060848603121561266e57600080fd5b8335612679816125fb565b92506020840135612689816125fb565b929592945050506040919091013590565b600080604083850312156126ad57600080fd5b82356126b8816125fb565b915060208301356126c8816125fb565b809150509250929050565b600080602083850312156126e657600080fd5b823567ffffffffffffffff808211156126fe57600080fd5b818501915085601f83011261271257600080fd5b81358181111561272157600080fd5b86602082850101111561273357600080fd5b60209290920196919550909350505050565b80151581146115a057600080fd5b6000806040838503121561276657600080fd5b8235612771816125fb565b915060208301356126c881612745565b634e487b7160e01b600052604160045260246000fd5b600067ffffffffffffffff808411156127b2576127b2612781565b604051601f8501601f19908116603f011681019082821181831017156127da576127da612781565b816040528093508581528686860111156127f357600080fd5b858560208301376000602087830101525050509392505050565b6000806000806080858703121561282357600080fd5b843561282e816125fb565b9350602085013561283e816125fb565b925060408501359150606085013567ffffffffffffffff81111561286157600080fd5b8501601f8101871361287257600080fd5b61288187823560208401612797565b91505092959194509250565b60006020828403121561289f57600080fd5b813567ffffffffffffffff8111156128b657600080fd5b8201601f810184136128c757600080fd5b61169f84823560208401612797565b600181811c908216806128ea57607f821691505b6020821081141561290b57634e487b7160e01b600052602260045260246000fd5b50919050565b60208082526026908201527f5061796d656e7453706c69747465723a206163636f756e7420686173206e6f2060408201526573686172657360d01b606082015260800190565b634e487b7160e01b600052601160045260246000fd5b6000821982111561298057612980612957565b500190565b6020808252602b908201527f5061796d656e7453706c69747465723a206163636f756e74206973206e6f742060408201526a191d59481c185e5b595b9d60aa1b606082015260800190565b60208082526031908201527f4552433732313a207472616e736665722063616c6c6572206973206e6f74206f6040820152701ddb995c881b9bdc88185c1c1c9bdd9959607a1b606082015260800190565b6020808252818101527f4f776e61626c653a2063616c6c6572206973206e6f7420746865206f776e6572604082015260600190565b600060208284031215612a6857600080fd5b5051919050565b634e487b7160e01b600052603260045260246000fd5b6000816000190483118215151615612a9f57612a9f612957565b500290565b6000600019821415612ab857612ab8612957565b5060010190565b600084516020612ad28285838a01612577565b855191840191612ae58184848a01612577565b8554920191600090600181811c9080831680612b0257607f831692505b858310811415612b2057634e487b7160e01b85526022600452602485fd5b808015612b345760018114612b4557612b72565b60ff19851688528388019550612b72565b60008b81526020902060005b85811015612b6a5781548a820152908401908801612b51565b505083880195505b50939b9a5050505050505050505050565b634e487b7160e01b600052601260045260246000fd5b600082612ba857612ba8612b83565b500490565b600082821015612bbf57612bbf612957565b500390565b60208082526032908201527f4552433732313a207472616e7366657220746f206e6f6e20455243373231526560408201527131b2b4bb32b91034b6b83632b6b2b73a32b960711b606082015260800190565b600082612c2557612c25612b83565b500690565b600060208284031215612c3c57600080fd5b815161143181612745565b6001600160a01b0385811682528416602082015260408101839052608060608201819052600090612c7a908301846125a3565b9695505050505050565b600060208284031215612c9657600080fd5b815161143181612544565b634e487b7160e01b600052603160045260246000fd5b60008251612cc9818460208701612577565b919091019291505056fea26469706673582212200723e9cb41a5ad85ba0421ed031a1e22adc8fd55e3fc2c9a96b39e561e9f562864736f6c634300080b0033",
  "immutableReferences": {},
  "source": "// SPDX-License-Identifier: MIT\npragma solidity 0.8.11;\n\nimport \"./ERC721Enumerable.sol\";\nimport \"./Ownable.sol\";\nimport \"./PaymentSplitter.sol\";\nimport \"./Counters.sol\";\n\ncontract AstrologyClub is ERC721Enumerable, Ownable, PaymentSplitter {\n    using Strings for uint256;\n    using Counters for Counters.Counter;\n\n    uint256 public maxMintSupply = 10000;\n    uint256 public totalMinted;\n\n    string public baseURI;\n    string public baseExtension = \".json\";\n\n    bool public publicState = false;\n\n    uint256 _price = 100000000000000000; //0.07 ETH\n\n    Counters.Counter private _tokenIds;\n\n    uint256[] private _teamShares = [60, 33, 5, 2];\n\n    address[] private _team = [\n        0xBD584cE590B7dcdbB93b11e095d9E1D5880B44d9,\n        0x85a37aC5C3250827B4f50F3373275c67C7f5fF3b,\n        0xA26AE192f618F89F3579974E87e2a92770654605,\n        0x1D7d6857c397788d1d33744276B54EfaE92CbBad\n    ];\n\n    constructor()\n        ERC721(\"AstrologyClub\", \"SMTP\")\n        PaymentSplitter(_team, _teamShares) {}\n\n    function enablePublic() public onlyOwner {\n        publicState = true;\n    }\n\n    function disable() public onlyOwner {\n        publicState = false;\n    }\n\n    function setBaseURI(string calldata _tokenBaseURI) external onlyOwner {\n        baseURI = _tokenBaseURI;\n    }\n\n    function setBaseExtension(string memory _newBaseExtension) public onlyOwner {\n        baseExtension = _newBaseExtension;\n    }\n\n    function tokenURI(uint256 tokenId) public view virtual override returns (string memory) {\n        require(_exists(tokenId), \"nonexistent token\");\n        string memory base = _baseURI();\n        return bytes(base).length > 0 ? string(abi.encodePacked(base,tokenId.toString(),baseExtension)) : \"\";\n    }\n\n    function mint(uint256 _amount) external payable {\n        require(publicState, \"mint disabled\");\n\n        require(_amount > 0, \"zero amount\");\n        require(_amount <= 3, \"can't mint so much tokens\");\n\n        require(\n            totalMinted + _amount <= maxMintSupply,\n            \"max supply exceeded\"\n        );\n        require(\n            _price * _amount <= msg.value,\n            \"value sent is not correct\"\n        );\n        for (uint256 ind = 0; ind < _amount; ind++) {\n            _tokenIds.increment();\n            _safeMint(msg.sender, _tokenIds.current());\n            totalMinted = totalMinted + 1;\n        }\n    }\n\n    function _baseURI() internal view override returns (string memory) {\n        return baseURI;\n    }\n\n}",
  "sourcePath": "C:\\xampp\\htdocs\\astrologyclub2\\contracts\\AstrologyClub.sol",
  "compiler": {
    "name": "solc",
    "version": "0.8.11+commit.d7f03943.Emscripten.clang"
  },
  "schemaVersion": "3.4.4",
  "updatedAt": "2022-02-13T13:35:09.500Z",
  "devdoc": {
    "kind": "dev",
    "methods": {
      "approve(address,uint256)": {
        "details": "See {IERC721-approve}."
      },
      "balanceOf(address)": {
        "details": "See {IERC721-balanceOf}."
      },
      "dev()": {
        "details": "Returns the address of the developer."
      },
      "getApproved(uint256)": {
        "details": "See {IERC721-getApproved}."
      },
      "isApprovedForAll(address,address)": {
        "details": "See {IERC721-isApprovedForAll}."
      },
      "name()": {
        "details": "See {IERC721Metadata-name}."
      },
      "owner()": {
        "details": "Returns the address of the current owner."
      },
      "ownerOf(uint256)": {
        "details": "See {IERC721-ownerOf}."
      },
      "payee(uint256)": {
        "details": "Getter for the address of the payee number `index`."
      },
      "release(address)": {
        "details": "Triggers a transfer to `account` of the amount of Ether they are owed, according to their percentage of the total shares and their previous withdrawals."
      },
      "release(address,address)": {
        "details": "Triggers a transfer to `account` of the amount of `token` tokens they are owed, according to their percentage of the total shares and their previous withdrawals. `token` must be the address of an IERC20 contract."
      },
      "released(address)": {
        "details": "Getter for the amount of Ether already released to a payee."
      },
      "released(address,address)": {
        "details": "Getter for the amount of `token` tokens already released to a payee. `token` should be the address of an IERC20 contract."
      },
      "renounceOwnership()": {
        "details": "Leaves the contract without owner. It will not be possible to call `onlyOwner` functions anymore. Can only be called by the current owner. NOTE: Renouncing ownership will leave the contract without an owner, thereby removing any functionality that is only available to the owner."
      },
      "safeTransferFrom(address,address,uint256)": {
        "details": "See {IERC721-safeTransferFrom}."
      },
      "safeTransferFrom(address,address,uint256,bytes)": {
        "details": "See {IERC721-safeTransferFrom}."
      },
      "setApprovalForAll(address,bool)": {
        "details": "See {IERC721-setApprovalForAll}."
      },
      "shares(address)": {
        "details": "Getter for the amount of shares held by an account."
      },
      "supportsInterface(bytes4)": {
        "details": "See {IERC165-supportsInterface}."
      },
      "symbol()": {
        "details": "See {IERC721Metadata-symbol}."
      },
      "tokenByIndex(uint256)": {
        "details": "See {IERC721Enumerable-tokenByIndex}."
      },
      "tokenOfOwnerByIndex(address,uint256)": {
        "details": "See {IERC721Enumerable-tokenOfOwnerByIndex}."
      },
      "tokenURI(uint256)": {
        "details": "See {IERC721Metadata-tokenURI}."
      },
      "totalReleased()": {
        "details": "Getter for the total amount of Ether already released."
      },
      "totalReleased(address)": {
        "details": "Getter for the total amount of `token` already released. `token` should be the address of an IERC20 contract."
      },
      "totalShares()": {
        "details": "Getter for the total shares held by payees."
      },
      "totalSupply()": {
        "details": "See {IERC721Enumerable-totalSupply}."
      },
      "transferFrom(address,address,uint256)": {
        "details": "See {IERC721-transferFrom}."
      },
      "transferOwnership(address)": {
        "details": "Transfers ownership of the contract to a new account (`newOwner`). Can only be called by the current owner."
      }
    },
    "version": 1
  },
  "userdoc": {
    "kind": "user",
    "methods": {},
    "version": 1
  }
}