{
  "contractName": "AstrologyClub",
  "abi": [
    {
      "inputs": [],
      "stateMutability": "nonpayable",
      "type": "constructor"
    },
    {
      "anonymous": false,
      "inputs": [
        {
          "indexed": true,
          "internalType": "address",
          "name": "owner",
          "type": "address"
        },
        {
          "indexed": true,
          "internalType": "address",
          "name": "approved",
          "type": "address"
        },
        {
          "indexed": true,
          "internalType": "uint256",
          "name": "tokenId",
          "type": "uint256"
        }
      ],
      "name": "Approval",
      "type": "event"
    },
    {
      "anonymous": false,
      "inputs": [
        {
          "indexed": true,
          "internalType": "address",
          "name": "owner",
          "type": "address"
        },
        {
          "indexed": true,
          "internalType": "address",
          "name": "operator",
          "type": "address"
        },
        {
          "indexed": false,
          "internalType": "bool",
          "name": "approved",
          "type": "bool"
        }
      ],
      "name": "ApprovalForAll",
      "type": "event"
    },
    {
      "anonymous": false,
      "inputs": [
        {
          "indexed": true,
          "internalType": "address",
          "name": "previousOwner",
          "type": "address"
        },
        {
          "indexed": true,
          "internalType": "address",
          "name": "newOwner",
          "type": "address"
        }
      ],
      "name": "OwnershipTransferred",
      "type": "event"
    },
    {
      "anonymous": false,
      "inputs": [
        {
          "indexed": true,
          "internalType": "address",
          "name": "from",
          "type": "address"
        },
        {
          "indexed": true,
          "internalType": "address",
          "name": "to",
          "type": "address"
        },
        {
          "indexed": true,
          "internalType": "uint256",
          "name": "tokenId",
          "type": "uint256"
        }
      ],
      "name": "Transfer",
      "type": "event"
    },
    {
      "inputs": [
        {
          "internalType": "address",
          "name": "",
          "type": "address"
        }
      ],
      "name": "_presaleClaimed",
      "outputs": [
        {
          "internalType": "uint256",
          "name": "",
          "type": "uint256"
        }
      ],
      "stateMutability": "view",
      "type": "function"
    },
    {
      "inputs": [
        {
          "internalType": "address",
          "name": "to",
          "type": "address"
        },
        {
          "internalType": "uint256",
          "name": "tokenId",
          "type": "uint256"
        }
      ],
      "name": "approve",
      "outputs": [],
      "stateMutability": "nonpayable",
      "type": "function"
    },
    {
      "inputs": [
        {
          "internalType": "address",
          "name": "owner",
          "type": "address"
        }
      ],
      "name": "balanceOf",
      "outputs": [
        {
          "internalType": "uint256",
          "name": "",
          "type": "uint256"
        }
      ],
      "stateMutability": "view",
      "type": "function"
    },
    {
      "inputs": [],
      "name": "baseExtension",
      "outputs": [
        {
          "internalType": "string",
          "name": "",
          "type": "string"
        }
      ],
      "stateMutability": "view",
      "type": "function"
    },
    {
      "inputs": [],
      "name": "baseURI",
      "outputs": [
        {
          "internalType": "string",
          "name": "",
          "type": "string"
        }
      ],
      "stateMutability": "view",
      "type": "function"
    },
    {
      "inputs": [],
      "name": "dev",
      "outputs": [
        {
          "internalType": "address",
          "name": "",
          "type": "address"
        }
      ],
      "stateMutability": "view",
      "type": "function"
    },
    {
      "inputs": [
        {
          "internalType": "uint256",
          "name": "tokenId",
          "type": "uint256"
        }
      ],
      "name": "getApproved",
      "outputs": [
        {
          "internalType": "address",
          "name": "",
          "type": "address"
        }
      ],
      "stateMutability": "view",
      "type": "function"
    },
    {
      "inputs": [
        {
          "internalType": "address",
          "name": "owner",
          "type": "address"
        },
        {
          "internalType": "address",
          "name": "operator",
          "type": "address"
        }
      ],
      "name": "isApprovedForAll",
      "outputs": [
        {
          "internalType": "bool",
          "name": "",
          "type": "bool"
        }
      ],
      "stateMutability": "view",
      "type": "function"
    },
    {
      "inputs": [],
      "name": "maxMintSupply",
      "outputs": [
        {
          "internalType": "uint256",
          "name": "",
          "type": "uint256"
        }
      ],
      "stateMutability": "view",
      "type": "function"
    },
    {
      "inputs": [],
      "name": "name",
      "outputs": [
        {
          "internalType": "string",
          "name": "",
          "type": "string"
        }
      ],
      "stateMutability": "view",
      "type": "function"
    },
    {
      "inputs": [],
      "name": "owner",
      "outputs": [
        {
          "internalType": "address",
          "name": "",
          "type": "address"
        }
      ],
      "stateMutability": "view",
      "type": "function"
    },
    {
      "inputs": [
        {
          "internalType": "uint256",
          "name": "tokenId",
          "type": "uint256"
        }
      ],
      "name": "ownerOf",
      "outputs": [
        {
          "internalType": "address",
          "name": "",
          "type": "address"
        }
      ],
      "stateMutability": "view",
      "type": "function"
    },
    {
      "inputs": [],
      "name": "presaleRoot",
      "outputs": [
        {
          "internalType": "bytes32",
          "name": "",
          "type": "bytes32"
        }
      ],
      "stateMutability": "view",
      "type": "function"
    },
    {
      "inputs": [],
      "name": "publicState",
      "outputs": [
        {
          "internalType": "bool",
          "name": "",
          "type": "bool"
        }
      ],
      "stateMutability": "view",
      "type": "function"
    },
    {
      "inputs": [],
      "name": "renounceOwnership",
      "outputs": [],
      "stateMutability": "nonpayable",
      "type": "function"
    },
    {
      "inputs": [
        {
          "internalType": "address",
          "name": "from",
          "type": "address"
        },
        {
          "internalType": "address",
          "name": "to",
          "type": "address"
        },
        {
          "internalType": "uint256",
          "name": "tokenId",
          "type": "uint256"
        }
      ],
      "name": "safeTransferFrom",
      "outputs": [],
      "stateMutability": "nonpayable",
      "type": "function"
    },
    {
      "inputs": [
        {
          "internalType": "address",
          "name": "from",
          "type": "address"
        },
        {
          "internalType": "address",
          "name": "to",
          "type": "address"
        },
        {
          "internalType": "uint256",
          "name": "tokenId",
          "type": "uint256"
        },
        {
          "internalType": "bytes",
          "name": "_data",
          "type": "bytes"
        }
      ],
      "name": "safeTransferFrom",
      "outputs": [],
      "stateMutability": "nonpayable",
      "type": "function"
    },
    {
      "inputs": [
        {
          "internalType": "address",
          "name": "operator",
          "type": "address"
        },
        {
          "internalType": "bool",
          "name": "approved",
          "type": "bool"
        }
      ],
      "name": "setApprovalForAll",
      "outputs": [],
      "stateMutability": "nonpayable",
      "type": "function"
    },
    {
      "inputs": [
        {
          "internalType": "bytes4",
          "name": "interfaceId",
          "type": "bytes4"
        }
      ],
      "name": "supportsInterface",
      "outputs": [
        {
          "internalType": "bool",
          "name": "",
          "type": "bool"
        }
      ],
      "stateMutability": "view",
      "type": "function"
    },
    {
      "inputs": [],
      "name": "symbol",
      "outputs": [
        {
          "internalType": "string",
          "name": "",
          "type": "string"
        }
      ],
      "stateMutability": "view",
      "type": "function"
    },
    {
      "inputs": [
        {
          "internalType": "uint256",
          "name": "index",
          "type": "uint256"
        }
      ],
      "name": "tokenByIndex",
      "outputs": [
        {
          "internalType": "uint256",
          "name": "",
          "type": "uint256"
        }
      ],
      "stateMutability": "view",
      "type": "function"
    },
    {
      "inputs": [
        {
          "internalType": "address",
          "name": "owner",
          "type": "address"
        },
        {
          "internalType": "uint256",
          "name": "index",
          "type": "uint256"
        }
      ],
      "name": "tokenOfOwnerByIndex",
      "outputs": [
        {
          "internalType": "uint256",
          "name": "",
          "type": "uint256"
        }
      ],
      "stateMutability": "view",
      "type": "function"
    },
    {
      "inputs": [],
      "name": "totalMinted",
      "outputs": [
        {
          "internalType": "uint256",
          "name": "",
          "type": "uint256"
        }
      ],
      "stateMutability": "view",
      "type": "function"
    },
    {
      "inputs": [],
      "name": "totalSupply",
      "outputs": [
        {
          "internalType": "uint256",
          "name": "",
          "type": "uint256"
        }
      ],
      "stateMutability": "view",
      "type": "function"
    },
    {
      "inputs": [
        {
          "internalType": "address",
          "name": "from",
          "type": "address"
        },
        {
          "internalType": "address",
          "name": "to",
          "type": "address"
        },
        {
          "internalType": "uint256",
          "name": "tokenId",
          "type": "uint256"
        }
      ],
      "name": "transferFrom",
      "outputs": [],
      "stateMutability": "nonpayable",
      "type": "function"
    },
    {
      "inputs": [
        {
          "internalType": "address",
          "name": "newOwner",
          "type": "address"
        }
      ],
      "name": "transferOwnership",
      "outputs": [],
      "stateMutability": "nonpayable",
      "type": "function"
    },
    {
      "inputs": [],
      "name": "enablePublic",
      "outputs": [],
      "stateMutability": "nonpayable",
      "type": "function"
    },
    {
      "inputs": [],
      "name": "disable",
      "outputs": [],
      "stateMutability": "nonpayable",
      "type": "function"
    },
    {
      "inputs": [
        {
          "internalType": "string",
          "name": "_tokenBaseURI",
          "type": "string"
        }
      ],
      "name": "setBaseURI",
      "outputs": [],
      "stateMutability": "nonpayable",
      "type": "function"
    },
    {
      "inputs": [
        {
          "internalType": "string",
          "name": "_newBaseExtension",
          "type": "string"
        }
      ],
      "name": "setBaseExtension",
      "outputs": [],
      "stateMutability": "nonpayable",
      "type": "function"
    },
    {
      "inputs": [
        {
          "internalType": "uint256",
          "name": "tokenId",
          "type": "uint256"
        }
      ],
      "name": "tokenURI",
      "outputs": [
        {
          "internalType": "string",
          "name": "",
          "type": "string"
        }
      ],
      "stateMutability": "view",
      "type": "function"
    },
    {
      "inputs": [
        {
          "internalType": "uint256",
          "name": "_amount",
          "type": "uint256"
        }
      ],
      "name": "mint",
      "outputs": [],
      "stateMutability": "payable",
      "type": "function"
    },
    {
      "inputs": [],
      "name": "withdraw",
      "outputs": [],
      "stateMutability": "nonpayable",
      "type": "function"
    }
  ],
  "bytecode": "0x612710600b5560c06040526005608081905264173539b7b760d91b60a09081526200002e91600e919062000132565b50600f805460ff1916905566f8b0a10e4700006011553480156200005157600080fd5b50604080518082018252600d81526c20b9ba3937b637b3bca1b63ab160991b6020808301918252835180850190945260048452630534d54560e41b908401528151919291620000a39160009162000132565b508051620000b990600190602084019062000132565b505050620000d6620000d0620000dc60201b60201c565b620000e0565b62000215565b3390565b600a80546001600160a01b038381166001600160a01b0319831681179093556040519116919082907f8be0079c531659141344cd1fd0a4f28419497f9722a3daafe3b4186f6b6457e090600090a35050565b8280546200014090620001d8565b90600052602060002090601f016020900481019282620001645760008555620001af565b82601f106200017f57805160ff1916838001178555620001af565b82800160010185558215620001af579182015b82811115620001af57825182559160200191906001019062000192565b50620001bd929150620001c1565b5090565b5b80821115620001bd5760008155600101620001c2565b600181811c90821680620001ed57607f821691505b602082108114156200020f57634e487b7160e01b600052602260045260246000fd5b50919050565b6123bc80620002256000396000f3fe6080604052600436106101ee5760003560e01c8063854496971161010d578063abfe7614116100a0578063c87b56dd1161006f578063c87b56dd14610542578063da3ef23f14610562578063dc64a75414610582578063e985e9c514610597578063f2fde38b146105e057600080fd5b8063abfe7614146104dd578063b88d4fde146104f7578063c285e10714610517578063c66828621461052d57600080fd5b806395d89b41116100dc57806395d89b411461047f578063a0712d6814610494578063a22cb465146104a7578063a2309ff8146104c757600080fd5b806385449697146103f75780638cc4de191461040d5780638da5cb5b1461043a57806391cca3db1461045857600080fd5b80633ccfd60b116101855780636352211e116101545780636352211e1461038d5780636c0360eb146103ad57806370a08231146103c2578063715018a6146103e257600080fd5b80633ccfd60b1461031857806342842e0e1461032d5780634f6ccce71461034d57806355f804b31461036d57600080fd5b806318160ddd116101c157806318160ddd146102a457806323b872dd146102c35780632f2770db146102e35780632f745c59146102f857600080fd5b806301ffc9a7146101f357806306fdde0314610228578063081812fc1461024a578063095ea7b314610282575b600080fd5b3480156101ff57600080fd5b5061021361020e366004611cfc565b610600565b60405190151581526020015b60405180910390f35b34801561023457600080fd5b5061023d61062b565b60405161021f9190611d71565b34801561025657600080fd5b5061026a610265366004611d84565b6106bd565b6040516001600160a01b03909116815260200161021f565b34801561028e57600080fd5b506102a261029d366004611db9565b610757565b005b3480156102b057600080fd5b506008545b60405190815260200161021f565b3480156102cf57600080fd5b506102a26102de366004611de3565b61086d565b3480156102ef57600080fd5b506102a261089e565b34801561030457600080fd5b506102b5610313366004611db9565b6108f2565b34801561032457600080fd5b506102a2610988565b34801561033957600080fd5b506102a2610348366004611de3565b6109ff565b34801561035957600080fd5b506102b5610368366004611d84565b610a1a565b34801561037957600080fd5b506102a2610388366004611e1f565b610aad565b34801561039957600080fd5b5061026a6103a8366004611d84565b610b01565b3480156103b957600080fd5b5061023d610b78565b3480156103ce57600080fd5b506102b56103dd366004611e91565b610c06565b3480156103ee57600080fd5b506102a2610c8d565b34801561040357600080fd5b506102b560125481565b34801561041957600080fd5b506102b5610428366004611e91565b60106020526000908152604090205481565b34801561044657600080fd5b50600a546001600160a01b031661026a565b34801561046457600080fd5b50737c95d1209e2f95496c4c9a18aa653fded834503f61026a565b34801561048b57600080fd5b5061023d610ce1565b6102a26104a2366004611d84565b610cf0565b3480156104b357600080fd5b506102a26104c2366004611eac565b610ec5565b3480156104d357600080fd5b506102b5600c5481565b3480156104e957600080fd5b50600f546102139060ff1681565b34801561050357600080fd5b506102a2610512366004611f74565b610ed0565b34801561052357600080fd5b506102b5600b5481565b34801561053957600080fd5b5061023d610f08565b34801561054e57600080fd5b5061023d61055d366004611d84565b610f15565b34801561056e57600080fd5b506102a261057d366004611ff0565b610fcf565b34801561058e57600080fd5b506102a261102a565b3480156105a357600080fd5b506102136105b2366004612039565b6001600160a01b03918216600090815260056020908152604080832093909416825291909152205460ff1690565b3480156105ec57600080fd5b506102a26105fb366004611e91565b611081565b60006001600160e01b0319821663780e9d6360e01b1480610625575061062582611137565b92915050565b60606000805461063a9061206c565b80601f01602080910402602001604051908101604052809291908181526020018280546106669061206c565b80156106b35780601f10610688576101008083540402835291602001916106b3565b820191906000526020600020905b81548152906001019060200180831161069657829003601f168201915b5050505050905090565b6000818152600260205260408120546001600160a01b031661073b5760405162461bcd60e51b815260206004820152602c60248201527f4552433732313a20617070726f76656420717565727920666f72206e6f6e657860448201526b34b9ba32b73a103a37b5b2b760a11b60648201526084015b60405180910390fd5b506000908152600460205260409020546001600160a01b031690565b600061076282610b01565b9050806001600160a01b0316836001600160a01b031614156107d05760405162461bcd60e51b815260206004820152602160248201527f4552433732313a20617070726f76616c20746f2063757272656e74206f776e656044820152603960f91b6064820152608401610732565b336001600160a01b03821614806107ec57506107ec81336105b2565b61085e5760405162461bcd60e51b815260206004820152603860248201527f4552433732313a20617070726f76652063616c6c6572206973206e6f74206f7760448201527f6e6572206e6f7220617070726f76656420666f7220616c6c00000000000000006064820152608401610732565b6108688383611187565b505050565b61087733826111f5565b6108935760405162461bcd60e51b8152600401610732906120a7565b6108688383836112ec565b600a546001600160a01b03163314806108ca5750737c95d1209e2f95496c4c9a18aa653fded834503f33145b6108e65760405162461bcd60e51b8152600401610732906120f8565b600f805460ff19169055565b60006108fd83610c06565b821061095f5760405162461bcd60e51b815260206004820152602b60248201527f455243373231456e756d657261626c653a206f776e657220696e646578206f7560448201526a74206f6620626f756e647360a81b6064820152608401610732565b506001600160a01b03919091166000908152600660209081526040808320938352929052205490565b600a546001600160a01b03163314806109b45750737c95d1209e2f95496c4c9a18aa653fded834503f33145b6109d05760405162461bcd60e51b8152600401610732906120f8565b60405133904780156108fc02916000818181858888f193505050501580156109fc573d6000803e3d6000fd5b50565b61086883838360405180602001604052806000815250610ed0565b6000610a2560085490565b8210610a885760405162461bcd60e51b815260206004820152602c60248201527f455243373231456e756d657261626c653a20676c6f62616c20696e646578206f60448201526b7574206f6620626f756e647360a01b6064820152608401610732565b60088281548110610a9b57610a9b61212d565b90600052602060002001549050919050565b600a546001600160a01b0316331480610ad95750737c95d1209e2f95496c4c9a18aa653fded834503f33145b610af55760405162461bcd60e51b8152600401610732906120f8565b610868600d8383611bd9565b6000818152600260205260408120546001600160a01b0316806106255760405162461bcd60e51b815260206004820152602960248201527f4552433732313a206f776e657220717565727920666f72206e6f6e657869737460448201526832b73a103a37b5b2b760b91b6064820152608401610732565b600d8054610b859061206c565b80601f0160208091040260200160405190810160405280929190818152602001828054610bb19061206c565b8015610bfe5780601f10610bd357610100808354040283529160200191610bfe565b820191906000526020600020905b815481529060010190602001808311610be157829003601f168201915b505050505081565b60006001600160a01b038216610c715760405162461bcd60e51b815260206004820152602a60248201527f4552433732313a2062616c616e636520717565727920666f7220746865207a65604482015269726f206164647265737360b01b6064820152608401610732565b506001600160a01b031660009081526003602052604090205490565b600a546001600160a01b0316331480610cb95750737c95d1209e2f95496c4c9a18aa653fded834503f33145b610cd55760405162461bcd60e51b8152600401610732906120f8565b610cdf6000611497565b565b60606001805461063a9061206c565b600f5460ff16610d325760405162461bcd60e51b815260206004820152600d60248201526c1b5a5b9d08191a5cd8589b1959609a1b6044820152606401610732565b60008111610d705760405162461bcd60e51b815260206004820152600b60248201526a1e995c9bc8185b5bdd5b9d60aa1b6044820152606401610732565b6003811115610dc15760405162461bcd60e51b815260206004820152601960248201527f63616e2774206d696e7420736f206d75636820746f6b656e73000000000000006044820152606401610732565b600b5481600c54610dd29190612159565b1115610e165760405162461bcd60e51b81526020600482015260136024820152721b585e081cdd5c1c1b1e48195e18d959591959606a1b6044820152606401610732565b3481601154610e259190612171565b1115610e735760405162461bcd60e51b815260206004820152601960248201527f76616c75652073656e74206973206e6f7420636f7272656374000000000000006044820152606401610732565b60005b81811015610ec157610e8c601380546001019055565b610e9e33610e9960135490565b6114e9565b600c54610eac906001612159565b600c5580610eb981612190565b915050610e76565b5050565b610ec1338383611503565b610eda33836111f5565b610ef65760405162461bcd60e51b8152600401610732906120a7565b610f02848484846115d2565b50505050565b600e8054610b859061206c565b6000818152600260205260409020546060906001600160a01b0316610f705760405162461bcd60e51b81526020600482015260116024820152703737b732bc34b9ba32b73a103a37b5b2b760791b6044820152606401610732565b6000610f7a611605565b90506000815111610f9a5760405180602001604052806000815250610fc8565b80610fa484611614565b600e604051602001610fb8939291906121ab565b6040516020818303038152906040525b9392505050565b600a546001600160a01b0316331480610ffb5750737c95d1209e2f95496c4c9a18aa653fded834503f33145b6110175760405162461bcd60e51b8152600401610732906120f8565b8051610ec190600e906020840190611c5d565b600a546001600160a01b03163314806110565750737c95d1209e2f95496c4c9a18aa653fded834503f33145b6110725760405162461bcd60e51b8152600401610732906120f8565b600f805460ff19166001179055565b600a546001600160a01b03163314806110ad5750737c95d1209e2f95496c4c9a18aa653fded834503f33145b6110c95760405162461bcd60e51b8152600401610732906120f8565b6001600160a01b03811661112e5760405162461bcd60e51b815260206004820152602660248201527f4f776e61626c653a206e6577206f776e657220697320746865207a65726f206160448201526564647265737360d01b6064820152608401610732565b6109fc81611497565b60006001600160e01b031982166380ac58cd60e01b148061116857506001600160e01b03198216635b5e139f60e01b145b8061062557506301ffc9a760e01b6001600160e01b0319831614610625565b600081815260046020526040902080546001600160a01b0319166001600160a01b03841690811790915581906111bc82610b01565b6001600160a01b03167f8c5be1e5ebec7d5bd14f71427d1e84f3dd0314c0f7b2291e5b200ac8c7c3b92560405160405180910390a45050565b6000818152600260205260408120546001600160a01b031661126e5760405162461bcd60e51b815260206004820152602c60248201527f4552433732313a206f70657261746f7220717565727920666f72206e6f6e657860448201526b34b9ba32b73a103a37b5b2b760a11b6064820152608401610732565b600061127983610b01565b9050806001600160a01b0316846001600160a01b031614806112b45750836001600160a01b03166112a9846106bd565b6001600160a01b0316145b806112e457506001600160a01b0380821660009081526005602090815260408083209388168352929052205460ff165b949350505050565b826001600160a01b03166112ff82610b01565b6001600160a01b0316146113675760405162461bcd60e51b815260206004820152602960248201527f4552433732313a207472616e73666572206f6620746f6b656e2074686174206960448201526839903737ba1037bbb760b91b6064820152608401610732565b6001600160a01b0382166113c95760405162461bcd60e51b8152602060048201526024808201527f4552433732313a207472616e7366657220746f20746865207a65726f206164646044820152637265737360e01b6064820152608401610732565b6113d4838383611712565b6113df600082611187565b6001600160a01b038316600090815260036020526040812080546001929061140890849061226f565b90915550506001600160a01b0382166000908152600360205260408120805460019290611436908490612159565b909155505060008181526002602052604080822080546001600160a01b0319166001600160a01b0386811691821790925591518493918716917fddf252ad1be2c89b69c2b068fc378daa952ba7f163c4a11628f55a4df523b3ef91a4505050565b600a80546001600160a01b038381166001600160a01b0319831681179093556040519116919082907f8be0079c531659141344cd1fd0a4f28419497f9722a3daafe3b4186f6b6457e090600090a35050565b610ec18282604051806020016040528060008152506117ca565b816001600160a01b0316836001600160a01b031614156115655760405162461bcd60e51b815260206004820152601960248201527f4552433732313a20617070726f766520746f2063616c6c6572000000000000006044820152606401610732565b6001600160a01b03838116600081815260056020908152604080832094871680845294825291829020805460ff191686151590811790915591519182527f17307eab39ab6107e8899845ad3d59bd9653f200f220920489ca2b5937696c31910160405180910390a3505050565b6115dd8484846112ec565b6115e9848484846117fd565b610f025760405162461bcd60e51b815260040161073290612286565b6060600d805461063a9061206c565b6060816116385750506040805180820190915260018152600360fc1b602082015290565b8160005b8115611662578061164c81612190565b915061165b9050600a836122ee565b915061163c565b60008167ffffffffffffffff81111561167d5761167d611ee8565b6040519080825280601f01601f1916602001820160405280156116a7576020820181803683370190505b5090505b84156112e4576116bc60018361226f565b91506116c9600a86612302565b6116d4906030612159565b60f81b8183815181106116e9576116e961212d565b60200101906001600160f81b031916908160001a90535061170b600a866122ee565b94506116ab565b6001600160a01b03831661176d5761176881600880546000838152600960205260408120829055600182018355919091527ff3f7a9fe364faab93b216da50a3214154f22a0a2b415b23a84c8169e8b636ee30155565b611790565b816001600160a01b0316836001600160a01b0316146117905761179083826118fb565b6001600160a01b0382166117a75761086881611998565b826001600160a01b0316826001600160a01b031614610868576108688282611a47565b6117d48383611a8b565b6117e160008484846117fd565b6108685760405162461bcd60e51b815260040161073290612286565b60006001600160a01b0384163b156118f057604051630a85bd0160e11b81526001600160a01b0385169063150b7a0290611841903390899088908890600401612316565b6020604051808303816000875af192505050801561187c575060408051601f3d908101601f1916820190925261187991810190612353565b60015b6118d6573d8080156118aa576040519150601f19603f3d011682016040523d82523d6000602084013e6118af565b606091505b5080516118ce5760405162461bcd60e51b815260040161073290612286565b805181602001fd5b6001600160e01b031916630a85bd0160e11b1490506112e4565b506001949350505050565b6000600161190884610c06565b611912919061226f565b600083815260076020526040902054909150808214611965576001600160a01b03841660009081526006602090815260408083208584528252808320548484528184208190558352600790915290208190555b5060009182526007602090815260408084208490556001600160a01b039094168352600681528383209183525290812055565b6008546000906119aa9060019061226f565b600083815260096020526040812054600880549394509092849081106119d2576119d261212d565b9060005260206000200154905080600883815481106119f3576119f361212d565b6000918252602080832090910192909255828152600990915260408082208490558582528120556008805480611a2b57611a2b612370565b6001900381819060005260206000200160009055905550505050565b6000611a5283610c06565b6001600160a01b039093166000908152600660209081526040808320868452825280832085905593825260079052919091209190915550565b6001600160a01b038216611ae15760405162461bcd60e51b815260206004820181905260248201527f4552433732313a206d696e7420746f20746865207a65726f20616464726573736044820152606401610732565b6000818152600260205260409020546001600160a01b031615611b465760405162461bcd60e51b815260206004820152601c60248201527f4552433732313a20746f6b656e20616c7265616479206d696e746564000000006044820152606401610732565b611b5260008383611712565b6001600160a01b0382166000908152600360205260408120805460019290611b7b908490612159565b909155505060008181526002602052604080822080546001600160a01b0319166001600160a01b03861690811790915590518392907fddf252ad1be2c89b69c2b068fc378daa952ba7f163c4a11628f55a4df523b3ef908290a45050565b828054611be59061206c565b90600052602060002090601f016020900481019282611c075760008555611c4d565b82601f10611c205782800160ff19823516178555611c4d565b82800160010185558215611c4d579182015b82811115611c4d578235825591602001919060010190611c32565b50611c59929150611cd1565b5090565b828054611c699061206c565b90600052602060002090601f016020900481019282611c8b5760008555611c4d565b82601f10611ca457805160ff1916838001178555611c4d565b82800160010185558215611c4d579182015b82811115611c4d578251825591602001919060010190611cb6565b5b80821115611c595760008155600101611cd2565b6001600160e01b0319811681146109fc57600080fd5b600060208284031215611d0e57600080fd5b8135610fc881611ce6565b60005b83811015611d34578181015183820152602001611d1c565b83811115610f025750506000910152565b60008151808452611d5d816020860160208601611d19565b601f01601f19169290920160200192915050565b602081526000610fc86020830184611d45565b600060208284031215611d9657600080fd5b5035919050565b80356001600160a01b0381168114611db457600080fd5b919050565b60008060408385031215611dcc57600080fd5b611dd583611d9d565b946020939093013593505050565b600080600060608486031215611df857600080fd5b611e0184611d9d565b9250611e0f60208501611d9d565b9150604084013590509250925092565b60008060208385031215611e3257600080fd5b823567ffffffffffffffff80821115611e4a57600080fd5b818501915085601f830112611e5e57600080fd5b813581811115611e6d57600080fd5b866020828501011115611e7f57600080fd5b60209290920196919550909350505050565b600060208284031215611ea357600080fd5b610fc882611d9d565b60008060408385031215611ebf57600080fd5b611ec883611d9d565b915060208301358015158114611edd57600080fd5b809150509250929050565b634e487b7160e01b600052604160045260246000fd5b600067ffffffffffffffff80841115611f1957611f19611ee8565b604051601f8501601f19908116603f01168101908282118183101715611f4157611f41611ee8565b81604052809350858152868686011115611f5a57600080fd5b858560208301376000602087830101525050509392505050565b60008060008060808587031215611f8a57600080fd5b611f9385611d9d565b9350611fa160208601611d9d565b925060408501359150606085013567ffffffffffffffff811115611fc457600080fd5b8501601f81018713611fd557600080fd5b611fe487823560208401611efe565b91505092959194509250565b60006020828403121561200257600080fd5b813567ffffffffffffffff81111561201957600080fd5b8201601f8101841361202a57600080fd5b6112e484823560208401611efe565b6000806040838503121561204c57600080fd5b61205583611d9d565b915061206360208401611d9d565b90509250929050565b600181811c9082168061208057607f821691505b602082108114156120a157634e487b7160e01b600052602260045260246000fd5b50919050565b60208082526031908201527f4552433732313a207472616e736665722063616c6c6572206973206e6f74206f6040820152701ddb995c881b9bdc88185c1c1c9bdd9959607a1b606082015260800190565b6020808252818101527f4f776e61626c653a2063616c6c6572206973206e6f7420746865206f776e6572604082015260600190565b634e487b7160e01b600052603260045260246000fd5b634e487b7160e01b600052601160045260246000fd5b6000821982111561216c5761216c612143565b500190565b600081600019048311821515161561218b5761218b612143565b500290565b60006000198214156121a4576121a4612143565b5060010190565b6000845160206121be8285838a01611d19565b8551918401916121d18184848a01611d19565b8554920191600090600181811c90808316806121ee57607f831692505b85831081141561220c57634e487b7160e01b85526022600452602485fd5b80801561222057600181146122315761225e565b60ff1985168852838801955061225e565b60008b81526020902060005b858110156122565781548a82015290840190880161223d565b505083880195505b50939b9a5050505050505050505050565b60008282101561228157612281612143565b500390565b60208082526032908201527f4552433732313a207472616e7366657220746f206e6f6e20455243373231526560408201527131b2b4bb32b91034b6b83632b6b2b73a32b960711b606082015260800190565b634e487b7160e01b600052601260045260246000fd5b6000826122fd576122fd6122d8565b500490565b600082612311576123116122d8565b500690565b6001600160a01b038581168252841660208201526040810183905260806060820181905260009061234990830184611d45565b9695505050505050565b60006020828403121561236557600080fd5b8151610fc881611ce6565b634e487b7160e01b600052603160045260246000fdfea264697066735822122061b01190205274453e6979682d1395433f3aaec3b39424efae36d133a0cb8afa64736f6c634300080b0033",
  "immutableReferences": {},
  "source": "// SPDX-License-Identifier: MIT\npragma solidity 0.8.11;\n\nimport \"./ERC721Enumerable.sol\";\nimport \"./Ownable.sol\";\nimport \"./Counters.sol\";\n\ncontract AstrologyClub is ERC721Enumerable, Ownable {\n    using Strings for uint256;\n    using Counters for Counters.Counter;\n\n    uint256 public maxMintSupply = 10000;\n    uint256 public totalMinted;\n\n    string public baseURI;\n    string public baseExtension = \".json\";\n\n    bool public publicState = false;\n\n    mapping(address => uint256) public _presaleClaimed;\n\n    uint256 _price = 70000000000000000; //0.07 ETH\n\n    bytes32 public presaleRoot;\n\n    Counters.Counter private _tokenIds;\n\n    constructor() ERC721(\"AstrologyClub\", \"SMTP\") {}\n\n    function enablePublic() public onlyOwner {\n        publicState = true;\n    }\n\n    function disable() public onlyOwner {\n        publicState = false;\n    }\n\n    function setBaseURI(string calldata _tokenBaseURI) external onlyOwner {\n        baseURI = _tokenBaseURI;\n    }\n\n    function setBaseExtension(string memory _newBaseExtension) public onlyOwner {\n        baseExtension = _newBaseExtension;\n    }\n\n    function tokenURI(uint256 tokenId) public view virtual override returns (string memory) {\n        require(_exists(tokenId), \"nonexistent token\");\n        string memory base = _baseURI();\n        return bytes(base).length > 0 ? string(abi.encodePacked(base,tokenId.toString(),baseExtension)) : \"\";\n    }\n\n    function mint(uint256 _amount) external payable {\n        require(publicState, \"mint disabled\");\n\n        require(_amount > 0, \"zero amount\");\n        require(_amount <= 3, \"can't mint so much tokens\");\n\n        require(\n            totalMinted + _amount <= maxMintSupply,\n            \"max supply exceeded\"\n        );\n        require(\n            _price * _amount <= msg.value,\n            \"value sent is not correct\"\n        );\n        for (uint256 ind = 0; ind < _amount; ind++) {\n            _tokenIds.increment();\n            _safeMint(msg.sender, _tokenIds.current());\n            totalMinted = totalMinted + 1;\n        }\n    }\n\n    function _baseURI() internal view override returns (string memory) {\n        return baseURI;\n    }\n\n    function withdraw() public onlyOwner {\n        payable(msg.sender).transfer(address(this).balance);\n    }\n\n}",
  "sourcePath": "C:\\xampp\\htdocs\\astrologyclub2\\contracts\\AstrologyClub.sol",
  "compiler": {
    "name": "solc",
    "version": "0.8.11+commit.d7f03943.Emscripten.clang"
  },
  "schemaVersion": "3.4.4",
  "updatedAt": "2022-02-12T21:29:28.663Z",
  "devdoc": {
    "kind": "dev",
    "methods": {
      "approve(address,uint256)": {
        "details": "See {IERC721-approve}."
      },
      "balanceOf(address)": {
        "details": "See {IERC721-balanceOf}."
      },
      "dev()": {
        "details": "Returns the address of the developer."
      },
      "getApproved(uint256)": {
        "details": "See {IERC721-getApproved}."
      },
      "isApprovedForAll(address,address)": {
        "details": "See {IERC721-isApprovedForAll}."
      },
      "name()": {
        "details": "See {IERC721Metadata-name}."
      },
      "owner()": {
        "details": "Returns the address of the current owner."
      },
      "ownerOf(uint256)": {
        "details": "See {IERC721-ownerOf}."
      },
      "renounceOwnership()": {
        "details": "Leaves the contract without owner. It will not be possible to call `onlyOwner` functions anymore. Can only be called by the current owner. NOTE: Renouncing ownership will leave the contract without an owner, thereby removing any functionality that is only available to the owner."
      },
      "safeTransferFrom(address,address,uint256)": {
        "details": "See {IERC721-safeTransferFrom}."
      },
      "safeTransferFrom(address,address,uint256,bytes)": {
        "details": "See {IERC721-safeTransferFrom}."
      },
      "setApprovalForAll(address,bool)": {
        "details": "See {IERC721-setApprovalForAll}."
      },
      "supportsInterface(bytes4)": {
        "details": "See {IERC165-supportsInterface}."
      },
      "symbol()": {
        "details": "See {IERC721Metadata-symbol}."
      },
      "tokenByIndex(uint256)": {
        "details": "See {IERC721Enumerable-tokenByIndex}."
      },
      "tokenOfOwnerByIndex(address,uint256)": {
        "details": "See {IERC721Enumerable-tokenOfOwnerByIndex}."
      },
      "tokenURI(uint256)": {
        "details": "See {IERC721Metadata-tokenURI}."
      },
      "totalSupply()": {
        "details": "See {IERC721Enumerable-totalSupply}."
      },
      "transferFrom(address,address,uint256)": {
        "details": "See {IERC721-transferFrom}."
      },
      "transferOwnership(address)": {
        "details": "Transfers ownership of the contract to a new account (`newOwner`). Can only be called by the current owner."
      }
    },
    "version": 1
  },
  "userdoc": {
    "kind": "user",
    "methods": {},
    "version": 1
  }
}