{
  "contractName": "AstrologyClub",
  "abi": [
    {
      "inputs": [],
      "stateMutability": "nonpayable",
      "type": "constructor"
    },
    {
      "anonymous": false,
      "inputs": [
        {
          "indexed": true,
          "internalType": "address",
          "name": "owner",
          "type": "address"
        },
        {
          "indexed": true,
          "internalType": "address",
          "name": "approved",
          "type": "address"
        },
        {
          "indexed": true,
          "internalType": "uint256",
          "name": "tokenId",
          "type": "uint256"
        }
      ],
      "name": "Approval",
      "type": "event"
    },
    {
      "anonymous": false,
      "inputs": [
        {
          "indexed": true,
          "internalType": "address",
          "name": "owner",
          "type": "address"
        },
        {
          "indexed": true,
          "internalType": "address",
          "name": "operator",
          "type": "address"
        },
        {
          "indexed": false,
          "internalType": "bool",
          "name": "approved",
          "type": "bool"
        }
      ],
      "name": "ApprovalForAll",
      "type": "event"
    },
    {
      "anonymous": false,
      "inputs": [
        {
          "indexed": true,
          "internalType": "contract IERC20",
          "name": "token",
          "type": "address"
        },
        {
          "indexed": false,
          "internalType": "address",
          "name": "to",
          "type": "address"
        },
        {
          "indexed": false,
          "internalType": "uint256",
          "name": "amount",
          "type": "uint256"
        }
      ],
      "name": "ERC20PaymentReleased",
      "type": "event"
    },
    {
      "anonymous": false,
      "inputs": [
        {
          "indexed": true,
          "internalType": "address",
          "name": "previousOwner",
          "type": "address"
        },
        {
          "indexed": true,
          "internalType": "address",
          "name": "newOwner",
          "type": "address"
        }
      ],
      "name": "OwnershipTransferred",
      "type": "event"
    },
    {
      "anonymous": false,
      "inputs": [
        {
          "indexed": false,
          "internalType": "address",
          "name": "account",
          "type": "address"
        },
        {
          "indexed": false,
          "internalType": "uint256",
          "name": "shares",
          "type": "uint256"
        }
      ],
      "name": "PayeeAdded",
      "type": "event"
    },
    {
      "anonymous": false,
      "inputs": [
        {
          "indexed": false,
          "internalType": "address",
          "name": "from",
          "type": "address"
        },
        {
          "indexed": false,
          "internalType": "uint256",
          "name": "amount",
          "type": "uint256"
        }
      ],
      "name": "PaymentReceived",
      "type": "event"
    },
    {
      "anonymous": false,
      "inputs": [
        {
          "indexed": false,
          "internalType": "address",
          "name": "to",
          "type": "address"
        },
        {
          "indexed": false,
          "internalType": "uint256",
          "name": "amount",
          "type": "uint256"
        }
      ],
      "name": "PaymentReleased",
      "type": "event"
    },
    {
      "anonymous": false,
      "inputs": [
        {
          "indexed": true,
          "internalType": "address",
          "name": "from",
          "type": "address"
        },
        {
          "indexed": true,
          "internalType": "address",
          "name": "to",
          "type": "address"
        },
        {
          "indexed": true,
          "internalType": "uint256",
          "name": "tokenId",
          "type": "uint256"
        }
      ],
      "name": "Transfer",
      "type": "event"
    },
    {
      "inputs": [
        {
          "internalType": "address",
          "name": "to",
          "type": "address"
        },
        {
          "internalType": "uint256",
          "name": "tokenId",
          "type": "uint256"
        }
      ],
      "name": "approve",
      "outputs": [],
      "stateMutability": "nonpayable",
      "type": "function"
    },
    {
      "inputs": [
        {
          "internalType": "address",
          "name": "owner",
          "type": "address"
        }
      ],
      "name": "balanceOf",
      "outputs": [
        {
          "internalType": "uint256",
          "name": "",
          "type": "uint256"
        }
      ],
      "stateMutability": "view",
      "type": "function"
    },
    {
      "inputs": [],
      "name": "baseExtension",
      "outputs": [
        {
          "internalType": "string",
          "name": "",
          "type": "string"
        }
      ],
      "stateMutability": "view",
      "type": "function"
    },
    {
      "inputs": [],
      "name": "baseURI",
      "outputs": [
        {
          "internalType": "string",
          "name": "",
          "type": "string"
        }
      ],
      "stateMutability": "view",
      "type": "function"
    },
    {
      "inputs": [
        {
          "internalType": "uint256",
          "name": "tokenId",
          "type": "uint256"
        }
      ],
      "name": "getApproved",
      "outputs": [
        {
          "internalType": "address",
          "name": "",
          "type": "address"
        }
      ],
      "stateMutability": "view",
      "type": "function"
    },
    {
      "inputs": [
        {
          "internalType": "address",
          "name": "owner",
          "type": "address"
        },
        {
          "internalType": "address",
          "name": "operator",
          "type": "address"
        }
      ],
      "name": "isApprovedForAll",
      "outputs": [
        {
          "internalType": "bool",
          "name": "",
          "type": "bool"
        }
      ],
      "stateMutability": "view",
      "type": "function"
    },
    {
      "inputs": [],
      "name": "maxMintSupply",
      "outputs": [
        {
          "internalType": "uint256",
          "name": "",
          "type": "uint256"
        }
      ],
      "stateMutability": "view",
      "type": "function"
    },
    {
      "inputs": [],
      "name": "name",
      "outputs": [
        {
          "internalType": "string",
          "name": "",
          "type": "string"
        }
      ],
      "stateMutability": "view",
      "type": "function"
    },
    {
      "inputs": [],
      "name": "owner",
      "outputs": [
        {
          "internalType": "address",
          "name": "",
          "type": "address"
        }
      ],
      "stateMutability": "view",
      "type": "function"
    },
    {
      "inputs": [
        {
          "internalType": "uint256",
          "name": "tokenId",
          "type": "uint256"
        }
      ],
      "name": "ownerOf",
      "outputs": [
        {
          "internalType": "address",
          "name": "",
          "type": "address"
        }
      ],
      "stateMutability": "view",
      "type": "function"
    },
    {
      "inputs": [
        {
          "internalType": "uint256",
          "name": "index",
          "type": "uint256"
        }
      ],
      "name": "payee",
      "outputs": [
        {
          "internalType": "address",
          "name": "",
          "type": "address"
        }
      ],
      "stateMutability": "view",
      "type": "function"
    },
    {
      "inputs": [],
      "name": "publicState",
      "outputs": [
        {
          "internalType": "bool",
          "name": "",
          "type": "bool"
        }
      ],
      "stateMutability": "view",
      "type": "function"
    },
    {
      "inputs": [
        {
          "internalType": "address payable",
          "name": "account",
          "type": "address"
        }
      ],
      "name": "release",
      "outputs": [],
      "stateMutability": "nonpayable",
      "type": "function"
    },
    {
      "inputs": [
        {
          "internalType": "contract IERC20",
          "name": "token",
          "type": "address"
        },
        {
          "internalType": "address",
          "name": "account",
          "type": "address"
        }
      ],
      "name": "release",
      "outputs": [],
      "stateMutability": "nonpayable",
      "type": "function"
    },
    {
      "inputs": [
        {
          "internalType": "contract IERC20",
          "name": "token",
          "type": "address"
        },
        {
          "internalType": "address",
          "name": "account",
          "type": "address"
        }
      ],
      "name": "released",
      "outputs": [
        {
          "internalType": "uint256",
          "name": "",
          "type": "uint256"
        }
      ],
      "stateMutability": "view",
      "type": "function"
    },
    {
      "inputs": [
        {
          "internalType": "address",
          "name": "account",
          "type": "address"
        }
      ],
      "name": "released",
      "outputs": [
        {
          "internalType": "uint256",
          "name": "",
          "type": "uint256"
        }
      ],
      "stateMutability": "view",
      "type": "function"
    },
    {
      "inputs": [],
      "name": "renounceOwnership",
      "outputs": [],
      "stateMutability": "nonpayable",
      "type": "function"
    },
    {
      "inputs": [
        {
          "internalType": "address",
          "name": "from",
          "type": "address"
        },
        {
          "internalType": "address",
          "name": "to",
          "type": "address"
        },
        {
          "internalType": "uint256",
          "name": "tokenId",
          "type": "uint256"
        }
      ],
      "name": "safeTransferFrom",
      "outputs": [],
      "stateMutability": "nonpayable",
      "type": "function"
    },
    {
      "inputs": [
        {
          "internalType": "address",
          "name": "from",
          "type": "address"
        },
        {
          "internalType": "address",
          "name": "to",
          "type": "address"
        },
        {
          "internalType": "uint256",
          "name": "tokenId",
          "type": "uint256"
        },
        {
          "internalType": "bytes",
          "name": "_data",
          "type": "bytes"
        }
      ],
      "name": "safeTransferFrom",
      "outputs": [],
      "stateMutability": "nonpayable",
      "type": "function"
    },
    {
      "inputs": [
        {
          "internalType": "address",
          "name": "operator",
          "type": "address"
        },
        {
          "internalType": "bool",
          "name": "approved",
          "type": "bool"
        }
      ],
      "name": "setApprovalForAll",
      "outputs": [],
      "stateMutability": "nonpayable",
      "type": "function"
    },
    {
      "inputs": [
        {
          "internalType": "address",
          "name": "account",
          "type": "address"
        }
      ],
      "name": "shares",
      "outputs": [
        {
          "internalType": "uint256",
          "name": "",
          "type": "uint256"
        }
      ],
      "stateMutability": "view",
      "type": "function"
    },
    {
      "inputs": [
        {
          "internalType": "bytes4",
          "name": "interfaceId",
          "type": "bytes4"
        }
      ],
      "name": "supportsInterface",
      "outputs": [
        {
          "internalType": "bool",
          "name": "",
          "type": "bool"
        }
      ],
      "stateMutability": "view",
      "type": "function"
    },
    {
      "inputs": [],
      "name": "symbol",
      "outputs": [
        {
          "internalType": "string",
          "name": "",
          "type": "string"
        }
      ],
      "stateMutability": "view",
      "type": "function"
    },
    {
      "inputs": [
        {
          "internalType": "uint256",
          "name": "index",
          "type": "uint256"
        }
      ],
      "name": "tokenByIndex",
      "outputs": [
        {
          "internalType": "uint256",
          "name": "",
          "type": "uint256"
        }
      ],
      "stateMutability": "view",
      "type": "function"
    },
    {
      "inputs": [
        {
          "internalType": "address",
          "name": "owner",
          "type": "address"
        },
        {
          "internalType": "uint256",
          "name": "index",
          "type": "uint256"
        }
      ],
      "name": "tokenOfOwnerByIndex",
      "outputs": [
        {
          "internalType": "uint256",
          "name": "",
          "type": "uint256"
        }
      ],
      "stateMutability": "view",
      "type": "function"
    },
    {
      "inputs": [],
      "name": "totalMinted",
      "outputs": [
        {
          "internalType": "uint256",
          "name": "",
          "type": "uint256"
        }
      ],
      "stateMutability": "view",
      "type": "function"
    },
    {
      "inputs": [
        {
          "internalType": "contract IERC20",
          "name": "token",
          "type": "address"
        }
      ],
      "name": "totalReleased",
      "outputs": [
        {
          "internalType": "uint256",
          "name": "",
          "type": "uint256"
        }
      ],
      "stateMutability": "view",
      "type": "function"
    },
    {
      "inputs": [],
      "name": "totalReleased",
      "outputs": [
        {
          "internalType": "uint256",
          "name": "",
          "type": "uint256"
        }
      ],
      "stateMutability": "view",
      "type": "function"
    },
    {
      "inputs": [],
      "name": "totalShares",
      "outputs": [
        {
          "internalType": "uint256",
          "name": "",
          "type": "uint256"
        }
      ],
      "stateMutability": "view",
      "type": "function"
    },
    {
      "inputs": [],
      "name": "totalSupply",
      "outputs": [
        {
          "internalType": "uint256",
          "name": "",
          "type": "uint256"
        }
      ],
      "stateMutability": "view",
      "type": "function"
    },
    {
      "inputs": [
        {
          "internalType": "address",
          "name": "from",
          "type": "address"
        },
        {
          "internalType": "address",
          "name": "to",
          "type": "address"
        },
        {
          "internalType": "uint256",
          "name": "tokenId",
          "type": "uint256"
        }
      ],
      "name": "transferFrom",
      "outputs": [],
      "stateMutability": "nonpayable",
      "type": "function"
    },
    {
      "inputs": [
        {
          "internalType": "address",
          "name": "newOwner",
          "type": "address"
        }
      ],
      "name": "transferOwnership",
      "outputs": [],
      "stateMutability": "nonpayable",
      "type": "function"
    },
    {
      "stateMutability": "payable",
      "type": "receive"
    },
    {
      "inputs": [],
      "name": "enable",
      "outputs": [],
      "stateMutability": "nonpayable",
      "type": "function"
    },
    {
      "inputs": [],
      "name": "disable",
      "outputs": [],
      "stateMutability": "nonpayable",
      "type": "function"
    },
    {
      "inputs": [
        {
          "internalType": "string",
          "name": "_tokenBaseURI",
          "type": "string"
        }
      ],
      "name": "setBaseURI",
      "outputs": [],
      "stateMutability": "nonpayable",
      "type": "function"
    },
    {
      "inputs": [
        {
          "internalType": "string",
          "name": "_newBaseExtension",
          "type": "string"
        }
      ],
      "name": "setBaseExtension",
      "outputs": [],
      "stateMutability": "nonpayable",
      "type": "function"
    },
    {
      "inputs": [
        {
          "internalType": "uint256",
          "name": "tokenId",
          "type": "uint256"
        }
      ],
      "name": "tokenURI",
      "outputs": [
        {
          "internalType": "string",
          "name": "",
          "type": "string"
        }
      ],
      "stateMutability": "view",
      "type": "function"
    },
    {
      "inputs": [
        {
          "internalType": "uint256",
          "name": "_amount",
          "type": "uint256"
        }
      ],
      "name": "mint",
      "outputs": [],
      "stateMutability": "payable",
      "type": "function"
    }
  ],
  "bytecode": "0x61271060125560c06040526005608081905264173539b7b760d91b60a09081526200002e9160159190620005f7565b506016805460ff1916905567016345785d8a000060175560408051608081018252603c815260216020820152600591810191909152600260608201526200007a90601990600462000686565b506040805160808101825273bd584ce590b7dcdbb93b11e095d9e1d5880b44d981527385a37ac5c3250827b4f50f3373275c67c7f5ff3b602082015273a26ae192f618f89f3579974e87e2a9277065460591810191909152731d7d6857c397788d1d33744276b54efae92cbbad6060820152620000fc90601a906004620006c9565b503480156200010a57600080fd5b50601a8054806020026020016040519081016040528092919081815260200182805480156200016357602002820191906000526020600020905b81546001600160a01b0316815260019091019060200180831162000144575b50505050506019805480602002602001604051908101604052809291908181526020018280548015620001b657602002820191906000526020600020905b815481526020019060010190808311620001a1575b5050604080518082018252600d81526c20b9ba3937b637b3bca1b63ab160991b6020808301918252835180850190945260068452655a4f4449414360d01b90840152815191955091935062000210925060009190620005f7565b50805162000226906001906020840190620005f7565b505050620002436200023d620003b360201b60201c565b620003b7565b8051825114620002b55760405162461bcd60e51b815260206004820152603260248201527f5061796d656e7453706c69747465723a2070617965657320616e6420736861726044820152710cae640d8cadccee8d040dad2e6dac2e8c6d60731b60648201526084015b60405180910390fd5b6000825111620003085760405162461bcd60e51b815260206004820152601a60248201527f5061796d656e7453706c69747465723a206e6f207061796565730000000000006044820152606401620002ac565b60005b825181101562000374576200035f8382815181106200032e576200032e62000738565b60200260200101518383815181106200034b576200034b62000738565b60200260200101516200040960201b60201c565b806200036b8162000764565b9150506200030b565b505050620003ad601a60008154811062000392576200039262000738565b6000918252602090912001546001600160a01b0316620003b7565b620007da565b3390565b600a80546001600160a01b038381166001600160a01b0319831681179093556040519116919082907f8be0079c531659141344cd1fd0a4f28419497f9722a3daafe3b4186f6b6457e090600090a35050565b6001600160a01b038216620004765760405162461bcd60e51b815260206004820152602c60248201527f5061796d656e7453706c69747465723a206163636f756e74206973207468652060448201526b7a65726f206164647265737360a01b6064820152608401620002ac565b60008111620004c85760405162461bcd60e51b815260206004820152601d60248201527f5061796d656e7453706c69747465723a207368617265732061726520300000006044820152606401620002ac565b6001600160a01b0382166000908152600d602052604090205415620005445760405162461bcd60e51b815260206004820152602b60248201527f5061796d656e7453706c69747465723a206163636f756e7420616c726561647960448201526a206861732073686172657360a81b6064820152608401620002ac565b600f8054600181019091557f8d1108e10bcb7c27dddfc02ed9d693a074039d026cf4ea4240b40f7d581ac8020180546001600160a01b0319166001600160a01b0384169081179091556000908152600d60205260409020819055600b54620005ae90829062000782565b600b55604080516001600160a01b0384168152602081018390527f40c340f65e17194d14ddddb073d3c9f888e3cb52b5aae0c6c7706b4fbc905fac910160405180910390a15050565b82805462000605906200079d565b90600052602060002090601f01602090048101928262000629576000855562000674565b82601f106200064457805160ff191683800117855562000674565b8280016001018555821562000674579182015b828111156200067457825182559160200191906001019062000657565b506200068292915062000721565b5090565b82805482825590600052602060002090810192821562000674579160200282015b8281111562000674578251829060ff16905591602001919060010190620006a7565b82805482825590600052602060002090810192821562000674579160200282015b828111156200067457825182546001600160a01b0319166001600160a01b03909116178255602090920191600190910190620006ea565b5b8082111562000682576000815560010162000722565b634e487b7160e01b600052603260045260246000fd5b634e487b7160e01b600052601160045260246000fd5b60006000198214156200077b576200077b6200074e565b5060010190565b600082198211156200079857620007986200074e565b500190565b600181811c90821680620007b257607f821691505b60208210811415620007d457634e487b7160e01b600052602260045260246000fd5b50919050565b612c2380620007ea6000396000f3fe6080604052600436106102295760003560e01c80638b83209b11610123578063b88d4fde116100ab578063d79779b21161006f578063d79779b2146106a3578063da3ef23f146106d9578063e33b7de3146106f9578063e985e9c51461070e578063f2fde38b1461075757600080fd5b8063b88d4fde14610602578063c285e10714610622578063c668286214610638578063c87b56dd1461064d578063ce7c2ac21461066d57600080fd5b8063a0712d68116100f2578063a0712d681461058a578063a22cb4651461059d578063a2309ff8146105bd578063a3907d71146105d3578063abfe7614146105e857600080fd5b80638b83209b146105015780638da5cb5b1461052157806395d89b411461053f5780639852595c1461055457600080fd5b80633a98ef39116101b157806355f804b31161017557806355f804b3146104775780636352211e146104975780636c0360eb146104b757806370a08231146104cc578063715018a6146104ec57600080fd5b80633a98ef39146103bc578063406072a9146103d157806342842e0e1461041757806348b75044146104375780634f6ccce71461045757600080fd5b806318160ddd116101f857806318160ddd14610328578063191655871461034757806323b872dd146103675780632f2770db146103875780632f745c591461039c57600080fd5b806301ffc9a71461027757806306fdde03146102ac578063081812fc146102ce578063095ea7b31461030657600080fd5b36610272577f6ef95f06320e7a25a04a175ca677b7052bdd97131872c2192525a629f51be77033604080516001600160a01b0390921682523460208301520160405180910390a1005b600080fd5b34801561028357600080fd5b50610297610292366004612474565b610777565b60405190151581526020015b60405180910390f35b3480156102b857600080fd5b506102c16107a2565b6040516102a391906124e9565b3480156102da57600080fd5b506102ee6102e93660046124fc565b610834565b6040516001600160a01b0390911681526020016102a3565b34801561031257600080fd5b5061032661032136600461252a565b6108ce565b005b34801561033457600080fd5b506008545b6040519081526020016102a3565b34801561035357600080fd5b50610326610362366004612556565b6109e4565b34801561037357600080fd5b50610326610382366004612573565b610b12565b34801561039357600080fd5b50610326610b43565b3480156103a857600080fd5b506103396103b736600461252a565b610b79565b3480156103c857600080fd5b50600b54610339565b3480156103dd57600080fd5b506103396103ec3660046125b4565b6001600160a01b03918216600090815260116020908152604080832093909416825291909152205490565b34801561042357600080fd5b50610326610432366004612573565b610c0f565b34801561044357600080fd5b506103266104523660046125b4565b610c2a565b34801561046357600080fd5b506103396104723660046124fc565b610e03565b34801561048357600080fd5b506103266104923660046125ed565b610e96565b3480156104a357600080fd5b506102ee6104b23660046124fc565b610ecc565b3480156104c357600080fd5b506102c1610f43565b3480156104d857600080fd5b506103396104e7366004612556565b610fd1565b3480156104f857600080fd5b50610326611058565b34801561050d57600080fd5b506102ee61051c3660046124fc565b61108e565b34801561052d57600080fd5b50600a546001600160a01b03166102ee565b34801561054b57600080fd5b506102c16110be565b34801561056057600080fd5b5061033961056f366004612556565b6001600160a01b03166000908152600e602052604090205490565b6103266105983660046124fc565b6110cd565b3480156105a957600080fd5b506103266105b836600461266d565b6112a2565b3480156105c957600080fd5b5061033960135481565b3480156105df57600080fd5b506103266112ad565b3480156105f457600080fd5b506016546102979060ff1681565b34801561060e57600080fd5b5061032661061d366004612727565b6112e6565b34801561062e57600080fd5b5061033960125481565b34801561064457600080fd5b506102c161131e565b34801561065957600080fd5b506102c16106683660046124fc565b61132b565b34801561067957600080fd5b50610339610688366004612556565b6001600160a01b03166000908152600d602052604090205490565b3480156106af57600080fd5b506103396106be366004612556565b6001600160a01b031660009081526010602052604090205490565b3480156106e557600080fd5b506103266106f43660046127a7565b6113e5565b34801561070557600080fd5b50600c54610339565b34801561071a57600080fd5b506102976107293660046125b4565b6001600160a01b03918216600090815260056020908152604080832093909416825291909152205460ff1690565b34801561076357600080fd5b50610326610772366004612556565b611422565b60006001600160e01b0319821663780e9d6360e01b148061079c575061079c826114bd565b92915050565b6060600080546107b1906127f0565b80601f01602080910402602001604051908101604052809291908181526020018280546107dd906127f0565b801561082a5780601f106107ff5761010080835404028352916020019161082a565b820191906000526020600020905b81548152906001019060200180831161080d57829003601f168201915b5050505050905090565b6000818152600260205260408120546001600160a01b03166108b25760405162461bcd60e51b815260206004820152602c60248201527f4552433732313a20617070726f76656420717565727920666f72206e6f6e657860448201526b34b9ba32b73a103a37b5b2b760a11b60648201526084015b60405180910390fd5b506000908152600460205260409020546001600160a01b031690565b60006108d982610ecc565b9050806001600160a01b0316836001600160a01b031614156109475760405162461bcd60e51b815260206004820152602160248201527f4552433732313a20617070726f76616c20746f2063757272656e74206f776e656044820152603960f91b60648201526084016108a9565b336001600160a01b038216148061096357506109638133610729565b6109d55760405162461bcd60e51b815260206004820152603860248201527f4552433732313a20617070726f76652063616c6c6572206973206e6f74206f7760448201527f6e6572206e6f7220617070726f76656420666f7220616c6c000000000000000060648201526084016108a9565b6109df838361150d565b505050565b6001600160a01b0381166000908152600d6020526040902054610a195760405162461bcd60e51b81526004016108a99061282b565b6000610a24600c5490565b610a2e9047612887565b90506000610a5b8383610a56866001600160a01b03166000908152600e602052604090205490565b61157b565b905080610a7a5760405162461bcd60e51b81526004016108a99061289f565b6001600160a01b0383166000908152600e602052604081208054839290610aa2908490612887565b9250508190555080600c6000828254610abb9190612887565b90915550610acb905083826115c1565b604080516001600160a01b0385168152602081018390527fdf20fd1e76bc69d672e4814fafb2c449bba3a5369d8359adf9e05e6fde87b056910160405180910390a1505050565b610b1c33826116da565b610b385760405162461bcd60e51b81526004016108a9906128ea565b6109df8383836117d0565b600a546001600160a01b03163314610b6d5760405162461bcd60e51b81526004016108a99061293b565b6016805460ff19169055565b6000610b8483610fd1565b8210610be65760405162461bcd60e51b815260206004820152602b60248201527f455243373231456e756d657261626c653a206f776e657220696e646578206f7560448201526a74206f6620626f756e647360a81b60648201526084016108a9565b506001600160a01b03919091166000908152600660209081526040808320938352929052205490565b6109df838383604051806020016040528060008152506112e6565b6001600160a01b0381166000908152600d6020526040902054610c5f5760405162461bcd60e51b81526004016108a99061282b565b6001600160a01b0382166000908152601060205260408120546040516370a0823160e01b81523060048201526001600160a01b038516906370a0823190602401602060405180830381865afa158015610cbc573d6000803e3d6000fd5b505050506040513d601f19601f82011682018060405250810190610ce09190612970565b610cea9190612887565b90506000610d238383610a5687876001600160a01b03918216600090815260116020908152604080832093909416825291909152205490565b905080610d425760405162461bcd60e51b81526004016108a99061289f565b6001600160a01b03808516600090815260116020908152604080832093871683529290529081208054839290610d79908490612887565b90915550506001600160a01b03841660009081526010602052604081208054839290610da6908490612887565b90915550610db7905084848361197b565b604080516001600160a01b038581168252602082018490528616917f3be5b7a71e84ed12875d241991c70855ac5817d847039e17a9d895c1ceb0f18a910160405180910390a250505050565b6000610e0e60085490565b8210610e715760405162461bcd60e51b815260206004820152602c60248201527f455243373231456e756d657261626c653a20676c6f62616c20696e646578206f60448201526b7574206f6620626f756e647360a01b60648201526084016108a9565b60088281548110610e8457610e84612989565b90600052602060002001549050919050565b600a546001600160a01b03163314610ec05760405162461bcd60e51b81526004016108a99061293b565b6109df60148383612351565b6000818152600260205260408120546001600160a01b03168061079c5760405162461bcd60e51b815260206004820152602960248201527f4552433732313a206f776e657220717565727920666f72206e6f6e657869737460448201526832b73a103a37b5b2b760b91b60648201526084016108a9565b60148054610f50906127f0565b80601f0160208091040260200160405190810160405280929190818152602001828054610f7c906127f0565b8015610fc95780601f10610f9e57610100808354040283529160200191610fc9565b820191906000526020600020905b815481529060010190602001808311610fac57829003601f168201915b505050505081565b60006001600160a01b03821661103c5760405162461bcd60e51b815260206004820152602a60248201527f4552433732313a2062616c616e636520717565727920666f7220746865207a65604482015269726f206164647265737360b01b60648201526084016108a9565b506001600160a01b031660009081526003602052604090205490565b600a546001600160a01b031633146110825760405162461bcd60e51b81526004016108a99061293b565b61108c60006119cd565b565b6000600f82815481106110a3576110a3612989565b6000918252602090912001546001600160a01b031692915050565b6060600180546107b1906127f0565b60165460ff1661110f5760405162461bcd60e51b815260206004820152600d60248201526c1b5a5b9d08191a5cd8589b1959609a1b60448201526064016108a9565b6000811161114d5760405162461bcd60e51b815260206004820152600b60248201526a1e995c9bc8185b5bdd5b9d60aa1b60448201526064016108a9565b600381111561119e5760405162461bcd60e51b815260206004820152601960248201527f63616e2774206d696e7420736f206d75636820746f6b656e730000000000000060448201526064016108a9565b601254816013546111af9190612887565b11156111f35760405162461bcd60e51b81526020600482015260136024820152721b585e081cdd5c1c1b1e48195e18d959591959606a1b60448201526064016108a9565b3481601754611202919061299f565b11156112505760405162461bcd60e51b815260206004820152601960248201527f76616c75652073656e74206973206e6f7420636f72726563740000000000000060448201526064016108a9565b60005b8181101561129e57611269601880546001019055565b61127b3361127660185490565b611a1f565b601354611289906001612887565b60135580611296816129be565b915050611253565b5050565b61129e338383611a39565b600a546001600160a01b031633146112d75760405162461bcd60e51b81526004016108a99061293b565b6016805460ff19166001179055565b6112f033836116da565b61130c5760405162461bcd60e51b81526004016108a9906128ea565b61131884848484611b08565b50505050565b60158054610f50906127f0565b6000818152600260205260409020546060906001600160a01b03166113865760405162461bcd60e51b81526020600482015260116024820152703737b732bc34b9ba32b73a103a37b5b2b760791b60448201526064016108a9565b6000611390611b3b565b905060008151116113b057604051806020016040528060008152506113de565b806113ba84611b4a565b60156040516020016113ce939291906129d9565b6040516020818303038152906040525b9392505050565b600a546001600160a01b0316331461140f5760405162461bcd60e51b81526004016108a99061293b565b805161129e9060159060208401906123d5565b600a546001600160a01b0316331461144c5760405162461bcd60e51b81526004016108a99061293b565b6001600160a01b0381166114b15760405162461bcd60e51b815260206004820152602660248201527f4f776e61626c653a206e6577206f776e657220697320746865207a65726f206160448201526564647265737360d01b60648201526084016108a9565b6114ba816119cd565b50565b60006001600160e01b031982166380ac58cd60e01b14806114ee57506001600160e01b03198216635b5e139f60e01b145b8061079c57506301ffc9a760e01b6001600160e01b031983161461079c565b600081815260046020526040902080546001600160a01b0319166001600160a01b038416908117909155819061154282610ecc565b6001600160a01b03167f8c5be1e5ebec7d5bd14f71427d1e84f3dd0314c0f7b2291e5b200ac8c7c3b92560405160405180910390a45050565b600b546001600160a01b0384166000908152600d6020526040812054909183916115a5908661299f565b6115af9190612ab3565b6115b99190612ac7565b949350505050565b804710156116115760405162461bcd60e51b815260206004820152601d60248201527f416464726573733a20696e73756666696369656e742062616c616e636500000060448201526064016108a9565b6000826001600160a01b03168260405160006040518083038185875af1925050503d806000811461165e576040519150601f19603f3d011682016040523d82523d6000602084013e611663565b606091505b50509050806109df5760405162461bcd60e51b815260206004820152603a60248201527f416464726573733a20756e61626c6520746f2073656e642076616c75652c207260448201527f6563697069656e74206d6179206861766520726576657274656400000000000060648201526084016108a9565b6000818152600260205260408120546001600160a01b03166117535760405162461bcd60e51b815260206004820152602c60248201527f4552433732313a206f70657261746f7220717565727920666f72206e6f6e657860448201526b34b9ba32b73a103a37b5b2b760a11b60648201526084016108a9565b600061175e83610ecc565b9050806001600160a01b0316846001600160a01b031614806117995750836001600160a01b031661178e84610834565b6001600160a01b0316145b806115b957506001600160a01b0380821660009081526005602090815260408083209388168352929052205460ff16949350505050565b826001600160a01b03166117e382610ecc565b6001600160a01b03161461184b5760405162461bcd60e51b815260206004820152602960248201527f4552433732313a207472616e73666572206f6620746f6b656e2074686174206960448201526839903737ba1037bbb760b91b60648201526084016108a9565b6001600160a01b0382166118ad5760405162461bcd60e51b8152602060048201526024808201527f4552433732313a207472616e7366657220746f20746865207a65726f206164646044820152637265737360e01b60648201526084016108a9565b6118b8838383611c48565b6118c360008261150d565b6001600160a01b03831660009081526003602052604081208054600192906118ec908490612ac7565b90915550506001600160a01b038216600090815260036020526040812080546001929061191a908490612887565b909155505060008181526002602052604080822080546001600160a01b0319166001600160a01b0386811691821790925591518493918716917fddf252ad1be2c89b69c2b068fc378daa952ba7f163c4a11628f55a4df523b3ef91a4505050565b604080516001600160a01b038416602482015260448082018490528251808303909101815260649091019091526020810180516001600160e01b031663a9059cbb60e01b1790526109df908490611d00565b600a80546001600160a01b038381166001600160a01b0319831681179093556040519116919082907f8be0079c531659141344cd1fd0a4f28419497f9722a3daafe3b4186f6b6457e090600090a35050565b61129e828260405180602001604052806000815250611dd2565b816001600160a01b0316836001600160a01b03161415611a9b5760405162461bcd60e51b815260206004820152601960248201527f4552433732313a20617070726f766520746f2063616c6c65720000000000000060448201526064016108a9565b6001600160a01b03838116600081815260056020908152604080832094871680845294825291829020805460ff191686151590811790915591519182527f17307eab39ab6107e8899845ad3d59bd9653f200f220920489ca2b5937696c31910160405180910390a3505050565b611b138484846117d0565b611b1f84848484611e05565b6113185760405162461bcd60e51b81526004016108a990612ade565b6060601480546107b1906127f0565b606081611b6e5750506040805180820190915260018152600360fc1b602082015290565b8160005b8115611b985780611b82816129be565b9150611b919050600a83612ab3565b9150611b72565b60008167ffffffffffffffff811115611bb357611bb361269b565b6040519080825280601f01601f191660200182016040528015611bdd576020820181803683370190505b5090505b84156115b957611bf2600183612ac7565b9150611bff600a86612b30565b611c0a906030612887565b60f81b818381518110611c1f57611c1f612989565b60200101906001600160f81b031916908160001a905350611c41600a86612ab3565b9450611be1565b6001600160a01b038316611ca357611c9e81600880546000838152600960205260408120829055600182018355919091527ff3f7a9fe364faab93b216da50a3214154f22a0a2b415b23a84c8169e8b636ee30155565b611cc6565b816001600160a01b0316836001600160a01b031614611cc657611cc68382611f03565b6001600160a01b038216611cdd576109df81611fa0565b826001600160a01b0316826001600160a01b0316146109df576109df828261204f565b6000611d55826040518060400160405280602081526020017f5361666545524332303a206c6f772d6c6576656c2063616c6c206661696c6564815250856001600160a01b03166120939092919063ffffffff16565b8051909150156109df5780806020019051810190611d739190612b44565b6109df5760405162461bcd60e51b815260206004820152602a60248201527f5361666545524332303a204552433230206f7065726174696f6e20646964206e6044820152691bdd081cdd58d8d9595960b21b60648201526084016108a9565b611ddc83836120a2565b611de96000848484611e05565b6109df5760405162461bcd60e51b81526004016108a990612ade565b60006001600160a01b0384163b15611ef857604051630a85bd0160e11b81526001600160a01b0385169063150b7a0290611e49903390899088908890600401612b61565b6020604051808303816000875af1925050508015611e84575060408051601f3d908101601f19168201909252611e8191810190612b9e565b60015b611ede573d808015611eb2576040519150601f19603f3d011682016040523d82523d6000602084013e611eb7565b606091505b508051611ed65760405162461bcd60e51b81526004016108a990612ade565b805181602001fd5b6001600160e01b031916630a85bd0160e11b1490506115b9565b506001949350505050565b60006001611f1084610fd1565b611f1a9190612ac7565b600083815260076020526040902054909150808214611f6d576001600160a01b03841660009081526006602090815260408083208584528252808320548484528184208190558352600790915290208190555b5060009182526007602090815260408084208490556001600160a01b039094168352600681528383209183525290812055565b600854600090611fb290600190612ac7565b60008381526009602052604081205460088054939450909284908110611fda57611fda612989565b906000526020600020015490508060088381548110611ffb57611ffb612989565b600091825260208083209091019290925582815260099091526040808220849055858252812055600880548061203357612033612bbb565b6001900381819060005260206000200160009055905550505050565b600061205a83610fd1565b6001600160a01b039093166000908152600660209081526040808320868452825280832085905593825260079052919091209190915550565b60606115b984846000856121f0565b6001600160a01b0382166120f85760405162461bcd60e51b815260206004820181905260248201527f4552433732313a206d696e7420746f20746865207a65726f206164647265737360448201526064016108a9565b6000818152600260205260409020546001600160a01b03161561215d5760405162461bcd60e51b815260206004820152601c60248201527f4552433732313a20746f6b656e20616c7265616479206d696e7465640000000060448201526064016108a9565b61216960008383611c48565b6001600160a01b0382166000908152600360205260408120805460019290612192908490612887565b909155505060008181526002602052604080822080546001600160a01b0319166001600160a01b03861690811790915590518392907fddf252ad1be2c89b69c2b068fc378daa952ba7f163c4a11628f55a4df523b3ef908290a45050565b6060824710156122515760405162461bcd60e51b815260206004820152602660248201527f416464726573733a20696e73756666696369656e742062616c616e636520666f6044820152651c8818d85b1b60d21b60648201526084016108a9565b843b61229f5760405162461bcd60e51b815260206004820152601d60248201527f416464726573733a2063616c6c20746f206e6f6e2d636f6e747261637400000060448201526064016108a9565b600080866001600160a01b031685876040516122bb9190612bd1565b60006040518083038185875af1925050503d80600081146122f8576040519150601f19603f3d011682016040523d82523d6000602084013e6122fd565b606091505b509150915061230d828286612318565b979650505050505050565b606083156123275750816113de565b8251156123375782518084602001fd5b8160405162461bcd60e51b81526004016108a991906124e9565b82805461235d906127f0565b90600052602060002090601f01602090048101928261237f57600085556123c5565b82601f106123985782800160ff198235161785556123c5565b828001600101855582156123c5579182015b828111156123c55782358255916020019190600101906123aa565b506123d1929150612449565b5090565b8280546123e1906127f0565b90600052602060002090601f01602090048101928261240357600085556123c5565b82601f1061241c57805160ff19168380011785556123c5565b828001600101855582156123c5579182015b828111156123c557825182559160200191906001019061242e565b5b808211156123d1576000815560010161244a565b6001600160e01b0319811681146114ba57600080fd5b60006020828403121561248657600080fd5b81356113de8161245e565b60005b838110156124ac578181015183820152602001612494565b838111156113185750506000910152565b600081518084526124d5816020860160208601612491565b601f01601f19169290920160200192915050565b6020815260006113de60208301846124bd565b60006020828403121561250e57600080fd5b5035919050565b6001600160a01b03811681146114ba57600080fd5b6000806040838503121561253d57600080fd5b823561254881612515565b946020939093013593505050565b60006020828403121561256857600080fd5b81356113de81612515565b60008060006060848603121561258857600080fd5b833561259381612515565b925060208401356125a381612515565b929592945050506040919091013590565b600080604083850312156125c757600080fd5b82356125d281612515565b915060208301356125e281612515565b809150509250929050565b6000806020838503121561260057600080fd5b823567ffffffffffffffff8082111561261857600080fd5b818501915085601f83011261262c57600080fd5b81358181111561263b57600080fd5b86602082850101111561264d57600080fd5b60209290920196919550909350505050565b80151581146114ba57600080fd5b6000806040838503121561268057600080fd5b823561268b81612515565b915060208301356125e28161265f565b634e487b7160e01b600052604160045260246000fd5b600067ffffffffffffffff808411156126cc576126cc61269b565b604051601f8501601f19908116603f011681019082821181831017156126f4576126f461269b565b8160405280935085815286868601111561270d57600080fd5b858560208301376000602087830101525050509392505050565b6000806000806080858703121561273d57600080fd5b843561274881612515565b9350602085013561275881612515565b925060408501359150606085013567ffffffffffffffff81111561277b57600080fd5b8501601f8101871361278c57600080fd5b61279b878235602084016126b1565b91505092959194509250565b6000602082840312156127b957600080fd5b813567ffffffffffffffff8111156127d057600080fd5b8201601f810184136127e157600080fd5b6115b9848235602084016126b1565b600181811c9082168061280457607f821691505b6020821081141561282557634e487b7160e01b600052602260045260246000fd5b50919050565b60208082526026908201527f5061796d656e7453706c69747465723a206163636f756e7420686173206e6f2060408201526573686172657360d01b606082015260800190565b634e487b7160e01b600052601160045260246000fd5b6000821982111561289a5761289a612871565b500190565b6020808252602b908201527f5061796d656e7453706c69747465723a206163636f756e74206973206e6f742060408201526a191d59481c185e5b595b9d60aa1b606082015260800190565b60208082526031908201527f4552433732313a207472616e736665722063616c6c6572206973206e6f74206f6040820152701ddb995c881b9bdc88185c1c1c9bdd9959607a1b606082015260800190565b6020808252818101527f4f776e61626c653a2063616c6c6572206973206e6f7420746865206f776e6572604082015260600190565b60006020828403121561298257600080fd5b5051919050565b634e487b7160e01b600052603260045260246000fd5b60008160001904831182151516156129b9576129b9612871565b500290565b60006000198214156129d2576129d2612871565b5060010190565b6000845160206129ec8285838a01612491565b8551918401916129ff8184848a01612491565b8554920191600090600181811c9080831680612a1c57607f831692505b858310811415612a3a57634e487b7160e01b85526022600452602485fd5b808015612a4e5760018114612a5f57612a8c565b60ff19851688528388019550612a8c565b60008b81526020902060005b85811015612a845781548a820152908401908801612a6b565b505083880195505b50939b9a5050505050505050505050565b634e487b7160e01b600052601260045260246000fd5b600082612ac257612ac2612a9d565b500490565b600082821015612ad957612ad9612871565b500390565b60208082526032908201527f4552433732313a207472616e7366657220746f206e6f6e20455243373231526560408201527131b2b4bb32b91034b6b83632b6b2b73a32b960711b606082015260800190565b600082612b3f57612b3f612a9d565b500690565b600060208284031215612b5657600080fd5b81516113de8161265f565b6001600160a01b0385811682528416602082015260408101839052608060608201819052600090612b94908301846124bd565b9695505050505050565b600060208284031215612bb057600080fd5b81516113de8161245e565b634e487b7160e01b600052603160045260246000fd5b60008251612be3818460208701612491565b919091019291505056fea264697066735822122060568f7b13fa1be63f71eb9200f3d557fd738ba19dc48b811e485d3e8e6393fd64736f6c634300080b0033",
  "immutableReferences": {},
  "source": "// SPDX-License-Identifier: MIT\npragma solidity 0.8.11;\n\nimport \"./ERC721Enumerable.sol\";\nimport \"./Ownable.sol\";\nimport \"./PaymentSplitter.sol\";\nimport \"./Counters.sol\";\n\ncontract AstrologyClub is ERC721Enumerable, Ownable, PaymentSplitter {\n    using Strings for uint256;\n    using Counters for Counters.Counter;\n\n    uint256 public maxMintSupply = 10000;\n    uint256 public totalMinted;\n\n    string public baseURI;\n    string public baseExtension = \".json\";\n\n    bool public publicState = false;\n\n    uint256 _price = 100000000000000000; //0.1 ETH\n\n    Counters.Counter private _tokenIds;\n\n    uint256[] private _teamShares = [60, 33, 5, 2];\n\n    address[] private _team = [\n        0xBD584cE590B7dcdbB93b11e095d9E1D5880B44d9,\n        0x85a37aC5C3250827B4f50F3373275c67C7f5fF3b,\n        0xA26AE192f618F89F3579974E87e2a92770654605,\n        0x1D7d6857c397788d1d33744276B54EfaE92CbBad\n    ];\n\n    constructor() ERC721(\"AstrologyClub\", \"ZODIAC\") PaymentSplitter(_team, _teamShares) {\n        _transferOwnership(_team[0]);\n    }\n\n    function enable() public onlyOwner {\n        publicState = true;\n    }\n\n    function disable() public onlyOwner {\n        publicState = false;\n    }\n\n    function setBaseURI(string calldata _tokenBaseURI) external onlyOwner {\n        baseURI = _tokenBaseURI;\n    }\n\n    function setBaseExtension(string memory _newBaseExtension) public onlyOwner {\n        baseExtension = _newBaseExtension;\n    }\n\n    function tokenURI(uint256 tokenId) public view virtual override returns (string memory) {\n        require(_exists(tokenId), \"nonexistent token\");\n        string memory base = _baseURI();\n        return bytes(base).length > 0 ? string(abi.encodePacked(base,tokenId.toString(),baseExtension)) : \"\";\n    }\n\n    function mint(uint256 _amount) external payable {\n        require(publicState, \"mint disabled\");\n\n        require(_amount > 0, \"zero amount\");\n        require(_amount <= 3, \"can't mint so much tokens\");\n\n        require(\n            totalMinted + _amount <= maxMintSupply,\n            \"max supply exceeded\"\n        );\n        require(\n            _price * _amount <= msg.value,\n            \"value sent is not correct\"\n        );\n        for (uint256 ind = 0; ind < _amount; ind++) {\n            _tokenIds.increment();\n            _safeMint(msg.sender, _tokenIds.current());\n            totalMinted = totalMinted + 1;\n        }\n    }\n\n    function _baseURI() internal view override returns (string memory) {\n        return baseURI;\n    }\n\n}",
  "sourcePath": "/Users/richard/Projects/astrologyclub/contracts/AstrologyClub.sol",
  "compiler": {
    "name": "solc",
    "version": "0.8.11+commit.d7f03943.Emscripten.clang"
  },
  "schemaVersion": "3.4.4",
  "updatedAt": "2022-02-13T22:19:13.092Z",
  "devdoc": {
    "kind": "dev",
    "methods": {
      "approve(address,uint256)": {
        "details": "See {IERC721-approve}."
      },
      "balanceOf(address)": {
        "details": "See {IERC721-balanceOf}."
      },
      "getApproved(uint256)": {
        "details": "See {IERC721-getApproved}."
      },
      "isApprovedForAll(address,address)": {
        "details": "See {IERC721-isApprovedForAll}."
      },
      "name()": {
        "details": "See {IERC721Metadata-name}."
      },
      "owner()": {
        "details": "Returns the address of the current owner."
      },
      "ownerOf(uint256)": {
        "details": "See {IERC721-ownerOf}."
      },
      "payee(uint256)": {
        "details": "Getter for the address of the payee number `index`."
      },
      "release(address)": {
        "details": "Triggers a transfer to `account` of the amount of Ether they are owed, according to their percentage of the total shares and their previous withdrawals."
      },
      "release(address,address)": {
        "details": "Triggers a transfer to `account` of the amount of `token` tokens they are owed, according to their percentage of the total shares and their previous withdrawals. `token` must be the address of an IERC20 contract."
      },
      "released(address)": {
        "details": "Getter for the amount of Ether already released to a payee."
      },
      "released(address,address)": {
        "details": "Getter for the amount of `token` tokens already released to a payee. `token` should be the address of an IERC20 contract."
      },
      "renounceOwnership()": {
        "details": "Leaves the contract without owner. It will not be possible to call `onlyOwner` functions anymore. Can only be called by the current owner. NOTE: Renouncing ownership will leave the contract without an owner, thereby removing any functionality that is only available to the owner."
      },
      "safeTransferFrom(address,address,uint256)": {
        "details": "See {IERC721-safeTransferFrom}."
      },
      "safeTransferFrom(address,address,uint256,bytes)": {
        "details": "See {IERC721-safeTransferFrom}."
      },
      "setApprovalForAll(address,bool)": {
        "details": "See {IERC721-setApprovalForAll}."
      },
      "shares(address)": {
        "details": "Getter for the amount of shares held by an account."
      },
      "supportsInterface(bytes4)": {
        "details": "See {IERC165-supportsInterface}."
      },
      "symbol()": {
        "details": "See {IERC721Metadata-symbol}."
      },
      "tokenByIndex(uint256)": {
        "details": "See {IERC721Enumerable-tokenByIndex}."
      },
      "tokenOfOwnerByIndex(address,uint256)": {
        "details": "See {IERC721Enumerable-tokenOfOwnerByIndex}."
      },
      "tokenURI(uint256)": {
        "details": "See {IERC721Metadata-tokenURI}."
      },
      "totalReleased()": {
        "details": "Getter for the total amount of Ether already released."
      },
      "totalReleased(address)": {
        "details": "Getter for the total amount of `token` already released. `token` should be the address of an IERC20 contract."
      },
      "totalShares()": {
        "details": "Getter for the total shares held by payees."
      },
      "totalSupply()": {
        "details": "See {IERC721Enumerable-totalSupply}."
      },
      "transferFrom(address,address,uint256)": {
        "details": "See {IERC721-transferFrom}."
      },
      "transferOwnership(address)": {
        "details": "Transfers ownership of the contract to a new account (`newOwner`). Can only be called by the current owner."
      }
    },
    "version": 1
  },
  "userdoc": {
    "kind": "user",
    "methods": {},
    "version": 1
  }
}