{
  "contractName": "AstrologyClub",
  "abi": [
    {
      "inputs": [],
      "stateMutability": "nonpayable",
      "type": "constructor"
    },
    {
      "anonymous": false,
      "inputs": [
        {
          "indexed": true,
          "internalType": "address",
          "name": "owner",
          "type": "address"
        },
        {
          "indexed": true,
          "internalType": "address",
          "name": "approved",
          "type": "address"
        },
        {
          "indexed": true,
          "internalType": "uint256",
          "name": "tokenId",
          "type": "uint256"
        }
      ],
      "name": "Approval",
      "type": "event"
    },
    {
      "anonymous": false,
      "inputs": [
        {
          "indexed": true,
          "internalType": "address",
          "name": "owner",
          "type": "address"
        },
        {
          "indexed": true,
          "internalType": "address",
          "name": "operator",
          "type": "address"
        },
        {
          "indexed": false,
          "internalType": "bool",
          "name": "approved",
          "type": "bool"
        }
      ],
      "name": "ApprovalForAll",
      "type": "event"
    },
    {
      "anonymous": false,
      "inputs": [
        {
          "indexed": true,
          "internalType": "contract IERC20",
          "name": "token",
          "type": "address"
        },
        {
          "indexed": false,
          "internalType": "address",
          "name": "to",
          "type": "address"
        },
        {
          "indexed": false,
          "internalType": "uint256",
          "name": "amount",
          "type": "uint256"
        }
      ],
      "name": "ERC20PaymentReleased",
      "type": "event"
    },
    {
      "anonymous": false,
      "inputs": [
        {
          "indexed": true,
          "internalType": "address",
          "name": "previousOwner",
          "type": "address"
        },
        {
          "indexed": true,
          "internalType": "address",
          "name": "newOwner",
          "type": "address"
        }
      ],
      "name": "OwnershipTransferred",
      "type": "event"
    },
    {
      "anonymous": false,
      "inputs": [
        {
          "indexed": false,
          "internalType": "address",
          "name": "account",
          "type": "address"
        },
        {
          "indexed": false,
          "internalType": "uint256",
          "name": "shares",
          "type": "uint256"
        }
      ],
      "name": "PayeeAdded",
      "type": "event"
    },
    {
      "anonymous": false,
      "inputs": [
        {
          "indexed": false,
          "internalType": "address",
          "name": "from",
          "type": "address"
        },
        {
          "indexed": false,
          "internalType": "uint256",
          "name": "amount",
          "type": "uint256"
        }
      ],
      "name": "PaymentReceived",
      "type": "event"
    },
    {
      "anonymous": false,
      "inputs": [
        {
          "indexed": false,
          "internalType": "address",
          "name": "to",
          "type": "address"
        },
        {
          "indexed": false,
          "internalType": "uint256",
          "name": "amount",
          "type": "uint256"
        }
      ],
      "name": "PaymentReleased",
      "type": "event"
    },
    {
      "anonymous": false,
      "inputs": [
        {
          "indexed": true,
          "internalType": "address",
          "name": "from",
          "type": "address"
        },
        {
          "indexed": true,
          "internalType": "address",
          "name": "to",
          "type": "address"
        },
        {
          "indexed": true,
          "internalType": "uint256",
          "name": "tokenId",
          "type": "uint256"
        }
      ],
      "name": "Transfer",
      "type": "event"
    },
    {
      "inputs": [
        {
          "internalType": "address",
          "name": "to",
          "type": "address"
        },
        {
          "internalType": "uint256",
          "name": "tokenId",
          "type": "uint256"
        }
      ],
      "name": "approve",
      "outputs": [],
      "stateMutability": "nonpayable",
      "type": "function"
    },
    {
      "inputs": [
        {
          "internalType": "address",
          "name": "owner",
          "type": "address"
        }
      ],
      "name": "balanceOf",
      "outputs": [
        {
          "internalType": "uint256",
          "name": "",
          "type": "uint256"
        }
      ],
      "stateMutability": "view",
      "type": "function"
    },
    {
      "inputs": [],
      "name": "baseURI",
      "outputs": [
        {
          "internalType": "string",
          "name": "",
          "type": "string"
        }
      ],
      "stateMutability": "view",
      "type": "function"
    },
    {
      "inputs": [
        {
          "internalType": "uint256",
          "name": "tokenId",
          "type": "uint256"
        }
      ],
      "name": "getApproved",
      "outputs": [
        {
          "internalType": "address",
          "name": "",
          "type": "address"
        }
      ],
      "stateMutability": "view",
      "type": "function"
    },
    {
      "inputs": [
        {
          "internalType": "address",
          "name": "owner",
          "type": "address"
        },
        {
          "internalType": "address",
          "name": "operator",
          "type": "address"
        }
      ],
      "name": "isApprovedForAll",
      "outputs": [
        {
          "internalType": "bool",
          "name": "",
          "type": "bool"
        }
      ],
      "stateMutability": "view",
      "type": "function"
    },
    {
      "inputs": [],
      "name": "limitPerWallet",
      "outputs": [
        {
          "internalType": "uint256",
          "name": "",
          "type": "uint256"
        }
      ],
      "stateMutability": "view",
      "type": "function"
    },
    {
      "inputs": [],
      "name": "maxMintSupply",
      "outputs": [
        {
          "internalType": "uint256",
          "name": "",
          "type": "uint256"
        }
      ],
      "stateMutability": "view",
      "type": "function"
    },
    {
      "inputs": [],
      "name": "name",
      "outputs": [
        {
          "internalType": "string",
          "name": "",
          "type": "string"
        }
      ],
      "stateMutability": "view",
      "type": "function"
    },
    {
      "inputs": [],
      "name": "nextOwnerToExplicitlySet",
      "outputs": [
        {
          "internalType": "uint256",
          "name": "",
          "type": "uint256"
        }
      ],
      "stateMutability": "view",
      "type": "function"
    },
    {
      "inputs": [],
      "name": "owner",
      "outputs": [
        {
          "internalType": "address",
          "name": "",
          "type": "address"
        }
      ],
      "stateMutability": "view",
      "type": "function"
    },
    {
      "inputs": [
        {
          "internalType": "uint256",
          "name": "tokenId",
          "type": "uint256"
        }
      ],
      "name": "ownerOf",
      "outputs": [
        {
          "internalType": "address",
          "name": "",
          "type": "address"
        }
      ],
      "stateMutability": "view",
      "type": "function"
    },
    {
      "inputs": [
        {
          "internalType": "uint256",
          "name": "index",
          "type": "uint256"
        }
      ],
      "name": "payee",
      "outputs": [
        {
          "internalType": "address",
          "name": "",
          "type": "address"
        }
      ],
      "stateMutability": "view",
      "type": "function"
    },
    {
      "inputs": [],
      "name": "publicState",
      "outputs": [
        {
          "internalType": "bool",
          "name": "",
          "type": "bool"
        }
      ],
      "stateMutability": "view",
      "type": "function"
    },
    {
      "inputs": [
        {
          "internalType": "address payable",
          "name": "account",
          "type": "address"
        }
      ],
      "name": "release",
      "outputs": [],
      "stateMutability": "nonpayable",
      "type": "function"
    },
    {
      "inputs": [
        {
          "internalType": "contract IERC20",
          "name": "token",
          "type": "address"
        },
        {
          "internalType": "address",
          "name": "account",
          "type": "address"
        }
      ],
      "name": "release",
      "outputs": [],
      "stateMutability": "nonpayable",
      "type": "function"
    },
    {
      "inputs": [
        {
          "internalType": "contract IERC20",
          "name": "token",
          "type": "address"
        },
        {
          "internalType": "address",
          "name": "account",
          "type": "address"
        }
      ],
      "name": "released",
      "outputs": [
        {
          "internalType": "uint256",
          "name": "",
          "type": "uint256"
        }
      ],
      "stateMutability": "view",
      "type": "function"
    },
    {
      "inputs": [
        {
          "internalType": "address",
          "name": "account",
          "type": "address"
        }
      ],
      "name": "released",
      "outputs": [
        {
          "internalType": "uint256",
          "name": "",
          "type": "uint256"
        }
      ],
      "stateMutability": "view",
      "type": "function"
    },
    {
      "inputs": [],
      "name": "renounceOwnership",
      "outputs": [],
      "stateMutability": "nonpayable",
      "type": "function"
    },
    {
      "inputs": [
        {
          "internalType": "address",
          "name": "from",
          "type": "address"
        },
        {
          "internalType": "address",
          "name": "to",
          "type": "address"
        },
        {
          "internalType": "uint256",
          "name": "tokenId",
          "type": "uint256"
        }
      ],
      "name": "safeTransferFrom",
      "outputs": [],
      "stateMutability": "nonpayable",
      "type": "function"
    },
    {
      "inputs": [
        {
          "internalType": "address",
          "name": "from",
          "type": "address"
        },
        {
          "internalType": "address",
          "name": "to",
          "type": "address"
        },
        {
          "internalType": "uint256",
          "name": "tokenId",
          "type": "uint256"
        },
        {
          "internalType": "bytes",
          "name": "_data",
          "type": "bytes"
        }
      ],
      "name": "safeTransferFrom",
      "outputs": [],
      "stateMutability": "nonpayable",
      "type": "function"
    },
    {
      "inputs": [
        {
          "internalType": "address",
          "name": "operator",
          "type": "address"
        },
        {
          "internalType": "bool",
          "name": "approved",
          "type": "bool"
        }
      ],
      "name": "setApprovalForAll",
      "outputs": [],
      "stateMutability": "nonpayable",
      "type": "function"
    },
    {
      "inputs": [
        {
          "internalType": "address",
          "name": "account",
          "type": "address"
        }
      ],
      "name": "shares",
      "outputs": [
        {
          "internalType": "uint256",
          "name": "",
          "type": "uint256"
        }
      ],
      "stateMutability": "view",
      "type": "function"
    },
    {
      "inputs": [
        {
          "internalType": "bytes4",
          "name": "interfaceId",
          "type": "bytes4"
        }
      ],
      "name": "supportsInterface",
      "outputs": [
        {
          "internalType": "bool",
          "name": "",
          "type": "bool"
        }
      ],
      "stateMutability": "view",
      "type": "function"
    },
    {
      "inputs": [],
      "name": "symbol",
      "outputs": [
        {
          "internalType": "string",
          "name": "",
          "type": "string"
        }
      ],
      "stateMutability": "view",
      "type": "function"
    },
    {
      "inputs": [
        {
          "internalType": "uint256",
          "name": "index",
          "type": "uint256"
        }
      ],
      "name": "tokenByIndex",
      "outputs": [
        {
          "internalType": "uint256",
          "name": "",
          "type": "uint256"
        }
      ],
      "stateMutability": "view",
      "type": "function"
    },
    {
      "inputs": [
        {
          "internalType": "address",
          "name": "owner",
          "type": "address"
        },
        {
          "internalType": "uint256",
          "name": "index",
          "type": "uint256"
        }
      ],
      "name": "tokenOfOwnerByIndex",
      "outputs": [
        {
          "internalType": "uint256",
          "name": "",
          "type": "uint256"
        }
      ],
      "stateMutability": "view",
      "type": "function"
    },
    {
      "inputs": [
        {
          "internalType": "uint256",
          "name": "tokenId",
          "type": "uint256"
        }
      ],
      "name": "tokenURI",
      "outputs": [
        {
          "internalType": "string",
          "name": "",
          "type": "string"
        }
      ],
      "stateMutability": "view",
      "type": "function"
    },
    {
      "inputs": [
        {
          "internalType": "contract IERC20",
          "name": "token",
          "type": "address"
        }
      ],
      "name": "totalReleased",
      "outputs": [
        {
          "internalType": "uint256",
          "name": "",
          "type": "uint256"
        }
      ],
      "stateMutability": "view",
      "type": "function"
    },
    {
      "inputs": [],
      "name": "totalReleased",
      "outputs": [
        {
          "internalType": "uint256",
          "name": "",
          "type": "uint256"
        }
      ],
      "stateMutability": "view",
      "type": "function"
    },
    {
      "inputs": [],
      "name": "totalShares",
      "outputs": [
        {
          "internalType": "uint256",
          "name": "",
          "type": "uint256"
        }
      ],
      "stateMutability": "view",
      "type": "function"
    },
    {
      "inputs": [],
      "name": "totalSupply",
      "outputs": [
        {
          "internalType": "uint256",
          "name": "",
          "type": "uint256"
        }
      ],
      "stateMutability": "view",
      "type": "function"
    },
    {
      "inputs": [
        {
          "internalType": "address",
          "name": "from",
          "type": "address"
        },
        {
          "internalType": "address",
          "name": "to",
          "type": "address"
        },
        {
          "internalType": "uint256",
          "name": "tokenId",
          "type": "uint256"
        }
      ],
      "name": "transferFrom",
      "outputs": [],
      "stateMutability": "nonpayable",
      "type": "function"
    },
    {
      "inputs": [
        {
          "internalType": "address",
          "name": "newOwner",
          "type": "address"
        }
      ],
      "name": "transferOwnership",
      "outputs": [],
      "stateMutability": "nonpayable",
      "type": "function"
    },
    {
      "stateMutability": "payable",
      "type": "receive"
    },
    {
      "inputs": [],
      "name": "enable",
      "outputs": [],
      "stateMutability": "nonpayable",
      "type": "function"
    },
    {
      "inputs": [],
      "name": "disable",
      "outputs": [],
      "stateMutability": "nonpayable",
      "type": "function"
    },
    {
      "inputs": [
        {
          "internalType": "uint256",
          "name": "_amount",
          "type": "uint256"
        }
      ],
      "name": "mint",
      "outputs": [],
      "stateMutability": "payable",
      "type": "function"
    },
    {
      "inputs": [
        {
          "internalType": "string",
          "name": "_tokenBaseURI",
          "type": "string"
        }
      ],
      "name": "setBaseURI",
      "outputs": [],
      "stateMutability": "nonpayable",
      "type": "function"
    }
  ],
  "bytecode": "0x6000808055600755612710601055601e6011556013805460ff1916600117905567016345785d8a000060c052610160604052603c60e09081526021610100526005610120526002610140526200005a906014906004620006a4565b506040805160808101825273bd584ce590b7dcdbb93b11e095d9e1d5880b44d981527385a37ac5c3250827b4f50f3373275c67c7f5ff3b602082015273a26ae192f618f89f3579974e87e2a9277065460591810191909152731d7d6857c397788d1d33744276b54efae92cbbad6060820152620000dc906015906004620006f9565b50348015620000ea57600080fd5b5060158054806020026020016040519081016040528092919081815260200182805480156200014357602002820191906000526020600020905b81546001600160a01b0316815260019091019060200180831162000124575b505050505060148054806020026020016040519081016040528092919081815260200182805480156200019657602002820191906000526020600020905b81548152602001906001019080831162000181575b50505050506040518060400160405280600d81526020016c20b9ba3937b637b3bca1b63ab160991b815250604051806040016040528060068152602001655a4f4449414360d01b81525060115460105460008111620002535760405162461bcd60e51b815260206004820152602e60248201527f455243373231413a20636f6c6c656374696f6e206d757374206861766520612060448201526d6e6f6e7a65726f20737570706c7960901b60648201526084015b60405180910390fd5b60008211620002b55760405162461bcd60e51b815260206004820152602760248201527f455243373231413a206d61782062617463682073697a65206d757374206265206044820152666e6f6e7a65726f60c81b60648201526084016200024a565b8351620002ca90600190602087019062000751565b508251620002e090600290602086019062000751565b5060a09190915260805250620002f890503362000464565b8051825114620003665760405162461bcd60e51b815260206004820152603260248201527f5061796d656e7453706c69747465723a2070617965657320616e6420736861726044820152710cae640d8cadccee8d040dad2e6dac2e8c6d60731b60648201526084016200024a565b6000825111620003b95760405162461bcd60e51b815260206004820152601a60248201527f5061796d656e7453706c69747465723a206e6f2070617965657300000000000060448201526064016200024a565b60005b8251811015620004255762000410838281518110620003df57620003df620007e5565b6020026020010151838381518110620003fc57620003fc620007e5565b6020026020010151620004b660201b60201c565b806200041c8162000811565b915050620003bc565b5050506200045e6015600081548110620004435762000443620007e5565b6000918252602090912001546001600160a01b031662000464565b62000887565b600880546001600160a01b038381166001600160a01b0319831681179093556040519116919082907f8be0079c531659141344cd1fd0a4f28419497f9722a3daafe3b4186f6b6457e090600090a35050565b6001600160a01b038216620005235760405162461bcd60e51b815260206004820152602c60248201527f5061796d656e7453706c69747465723a206163636f756e74206973207468652060448201526b7a65726f206164647265737360a01b60648201526084016200024a565b60008111620005755760405162461bcd60e51b815260206004820152601d60248201527f5061796d656e7453706c69747465723a2073686172657320617265203000000060448201526064016200024a565b6001600160a01b0382166000908152600b602052604090205415620005f15760405162461bcd60e51b815260206004820152602b60248201527f5061796d656e7453706c69747465723a206163636f756e7420616c726561647960448201526a206861732073686172657360a81b60648201526084016200024a565b600d8054600181019091557fd7b6990105719101dabeb77144f2a3385c8033acd3af97e9423a695e81ad1eb50180546001600160a01b0319166001600160a01b0384169081179091556000908152600b602052604090208190556009546200065b9082906200082f565b600955604080516001600160a01b0384168152602081018390527f40c340f65e17194d14ddddb073d3c9f888e3cb52b5aae0c6c7706b4fbc905fac910160405180910390a15050565b828054828255906000526020600020908101928215620006e7579160200282015b82811115620006e7578251829060ff16905591602001919060010190620006c5565b50620006f5929150620007ce565b5090565b828054828255906000526020600020908101928215620006e7579160200282015b82811115620006e757825182546001600160a01b0319166001600160a01b039091161782556020909201916001909101906200071a565b8280546200075f906200084a565b90600052602060002090601f016020900481019282620007835760008555620006e7565b82601f106200079e57805160ff1916838001178555620006e7565b82800160010185558215620006e7579182015b82811115620006e7578251825591602001919060010190620007b1565b5b80821115620006f55760008155600101620007cf565b634e487b7160e01b600052603260045260246000fd5b634e487b7160e01b600052601160045260246000fd5b6000600019821415620008285762000828620007fb565b5060010190565b60008219821115620008455762000845620007fb565b500190565b600181811c908216806200085f57607f821691505b602082108114156200088157634e487b7160e01b600052602260045260246000fd5b50919050565b60805160a05160c051612b39620008c26000396000611236015260008181611b6901528181611b93015261209b015260005050612b396000f3fe60806040526004361061021e5760003560e01c8063715018a611610123578063abfe7614116100ab578063d7224ba01161006f578063d7224ba014610683578063d79779b214610699578063e33b7de3146106cf578063e985e9c5146106e4578063f2fde38b1461072d57600080fd5b8063abfe7614146105dd578063b88d4fde146105f7578063c285e10714610617578063c87b56dd1461062d578063ce7c2ac21461064d57600080fd5b80639852595c116100f25780639852595c14610549578063a0712d681461057f578063a22cb46514610592578063a3907d71146105b2578063a620ce5a146105c757600080fd5b8063715018a6146104e15780638b83209b146104f65780638da5cb5b1461051657806395d89b411461053457600080fd5b80633a98ef39116101a65780634f6ccce7116101755780634f6ccce71461044c57806355f804b31461046c5780636352211e1461048c5780636c0360eb146104ac57806370a08231146104c157600080fd5b80633a98ef39146103b1578063406072a9146103c657806342842e0e1461040c57806348b750441461042c57600080fd5b806318160ddd116101ed57806318160ddd1461031d578063191655871461033c57806323b872dd1461035c5780632f2770db1461037c5780632f745c591461039157600080fd5b806301ffc9a71461026c57806306fdde03146102a1578063081812fc146102c3578063095ea7b3146102fb57600080fd5b36610267577f6ef95f06320e7a25a04a175ca677b7052bdd97131872c2192525a629f51be77033604080516001600160a01b0390921682523460208301520160405180910390a1005b600080fd5b34801561027857600080fd5b5061028c61028736600461246a565b61074d565b60405190151581526020015b60405180910390f35b3480156102ad57600080fd5b506102b66107ba565b60405161029891906124df565b3480156102cf57600080fd5b506102e36102de3660046124f2565b61084c565b6040516001600160a01b039091168152602001610298565b34801561030757600080fd5b5061031b610316366004612520565b6108dc565b005b34801561032957600080fd5b506000545b604051908152602001610298565b34801561034857600080fd5b5061031b61035736600461254c565b6109f4565b34801561036857600080fd5b5061031b610377366004612569565b610b22565b34801561038857600080fd5b5061031b610b2d565b34801561039d57600080fd5b5061032e6103ac366004612520565b610b63565b3480156103bd57600080fd5b5060095461032e565b3480156103d257600080fd5b5061032e6103e13660046125aa565b6001600160a01b039182166000908152600f6020908152604080832093909416825291909152205490565b34801561041857600080fd5b5061031b610427366004612569565b610cd1565b34801561043857600080fd5b5061031b6104473660046125aa565b610cec565b34801561045857600080fd5b5061032e6104673660046124f2565b610ec5565b34801561047857600080fd5b5061031b6104873660046125e3565b610f27565b34801561049857600080fd5b506102e36104a73660046124f2565b610f5d565b3480156104b857600080fd5b506102b6610f6f565b3480156104cd57600080fd5b5061032e6104dc36600461254c565b610ffd565b3480156104ed57600080fd5b5061031b61108e565b34801561050257600080fd5b506102e36105113660046124f2565b6110c4565b34801561052257600080fd5b506008546001600160a01b03166102e3565b34801561054057600080fd5b506102b66110f4565b34801561055557600080fd5b5061032e61056436600461254c565b6001600160a01b03166000908152600c602052604090205490565b61031b61058d3660046124f2565b611103565b34801561059e57600080fd5b5061031b6105ad366004612663565b6112b6565b3480156105be57600080fd5b5061031b61137b565b3480156105d357600080fd5b5061032e60115481565b3480156105e957600080fd5b5060135461028c9060ff1681565b34801561060357600080fd5b5061031b6106123660046126a7565b6113b4565b34801561062357600080fd5b5061032e60105481565b34801561063957600080fd5b506102b66106483660046124f2565b6113ed565b34801561065957600080fd5b5061032e61066836600461254c565b6001600160a01b03166000908152600b602052604090205490565b34801561068f57600080fd5b5061032e60075481565b3480156106a557600080fd5b5061032e6106b436600461254c565b6001600160a01b03166000908152600e602052604090205490565b3480156106db57600080fd5b50600a5461032e565b3480156106f057600080fd5b5061028c6106ff3660046125aa565b6001600160a01b03918216600090815260066020908152604080832093909416825291909152205460ff1690565b34801561073957600080fd5b5061031b61074836600461254c565b6114ba565b60006001600160e01b031982166380ac58cd60e01b148061077e57506001600160e01b03198216635b5e139f60e01b145b8061079957506001600160e01b0319821663780e9d6360e01b145b806107b457506301ffc9a760e01b6001600160e01b03198316145b92915050565b6060600180546107c990612787565b80601f01602080910402602001604051908101604052809291908181526020018280546107f590612787565b80156108425780601f1061081757610100808354040283529160200191610842565b820191906000526020600020905b81548152906001019060200180831161082557829003601f168201915b5050505050905090565b6000610859826000541190565b6108c05760405162461bcd60e51b815260206004820152602d60248201527f455243373231413a20617070726f76656420717565727920666f72206e6f6e6560448201526c3c34b9ba32b73a103a37b5b2b760991b60648201526084015b60405180910390fd5b506000908152600560205260409020546001600160a01b031690565b60006108e782610f5d565b9050806001600160a01b0316836001600160a01b031614156109565760405162461bcd60e51b815260206004820152602260248201527f455243373231413a20617070726f76616c20746f2063757272656e74206f776e60448201526132b960f11b60648201526084016108b7565b336001600160a01b0382161480610972575061097281336106ff565b6109e45760405162461bcd60e51b815260206004820152603960248201527f455243373231413a20617070726f76652063616c6c6572206973206e6f74206f60448201527f776e6572206e6f7220617070726f76656420666f7220616c6c0000000000000060648201526084016108b7565b6109ef838383611552565b505050565b6001600160a01b0381166000908152600b6020526040902054610a295760405162461bcd60e51b81526004016108b7906127c2565b6000610a34600a5490565b610a3e904761281e565b90506000610a6b8383610a66866001600160a01b03166000908152600c602052604090205490565b6115ae565b905080610a8a5760405162461bcd60e51b81526004016108b790612836565b6001600160a01b0383166000908152600c602052604081208054839290610ab290849061281e565b9250508190555080600a6000828254610acb919061281e565b90915550610adb905083826115f4565b604080516001600160a01b0385168152602081018390527fdf20fd1e76bc69d672e4814fafb2c449bba3a5369d8359adf9e05e6fde87b056910160405180910390a1505050565b6109ef83838361170d565b6008546001600160a01b03163314610b575760405162461bcd60e51b81526004016108b790612881565b6013805460ff19169055565b6000610b6e83610ffd565b8210610bc75760405162461bcd60e51b815260206004820152602260248201527f455243373231413a206f776e657220696e646578206f7574206f6620626f756e604482015261647360f01b60648201526084016108b7565b600080549080805b83811015610c71576000818152600360209081526040918290208251808401909352546001600160a01b038116808452600160a01b90910467ffffffffffffffff169183019190915215610c2257805192505b876001600160a01b0316836001600160a01b03161415610c5e5786841415610c50575093506107b492505050565b83610c5a816128b6565b9450505b5080610c69816128b6565b915050610bcf565b5060405162461bcd60e51b815260206004820152602e60248201527f455243373231413a20756e61626c6520746f2067657420746f6b656e206f662060448201526d0deeedccae440c4f240d2dcc8caf60931b60648201526084016108b7565b6109ef838383604051806020016040528060008152506113b4565b6001600160a01b0381166000908152600b6020526040902054610d215760405162461bcd60e51b81526004016108b7906127c2565b6001600160a01b0382166000908152600e60205260408120546040516370a0823160e01b81523060048201526001600160a01b038516906370a0823190602401602060405180830381865afa158015610d7e573d6000803e3d6000fd5b505050506040513d601f19601f82011682018060405250810190610da291906128d1565b610dac919061281e565b90506000610de58383610a6687876001600160a01b039182166000908152600f6020908152604080832093909416825291909152205490565b905080610e045760405162461bcd60e51b81526004016108b790612836565b6001600160a01b038085166000908152600f6020908152604080832093871683529290529081208054839290610e3b90849061281e565b90915550506001600160a01b0384166000908152600e602052604081208054839290610e6890849061281e565b90915550610e799050848483611a95565b604080516001600160a01b038581168252602082018490528616917f3be5b7a71e84ed12875d241991c70855ac5817d847039e17a9d895c1ceb0f18a910160405180910390a250505050565b600080548210610f235760405162461bcd60e51b815260206004820152602360248201527f455243373231413a20676c6f62616c20696e646578206f7574206f6620626f756044820152626e647360e81b60648201526084016108b7565b5090565b6008546001600160a01b03163314610f515760405162461bcd60e51b81526004016108b790612881565b6109ef601283836123c4565b6000610f6882611ae7565b5192915050565b60128054610f7c90612787565b80601f0160208091040260200160405190810160405280929190818152602001828054610fa890612787565b8015610ff55780601f10610fca57610100808354040283529160200191610ff5565b820191906000526020600020905b815481529060010190602001808311610fd857829003601f168201915b505050505081565b60006001600160a01b0382166110695760405162461bcd60e51b815260206004820152602b60248201527f455243373231413a2062616c616e636520717565727920666f7220746865207a60448201526a65726f206164647265737360a81b60648201526084016108b7565b506001600160a01b03166000908152600460205260409020546001600160801b031690565b6008546001600160a01b031633146110b85760405162461bcd60e51b81526004016108b790612881565b6110c26000611c91565b565b6000600d82815481106110d9576110d96128ea565b6000918252602090912001546001600160a01b031692915050565b6060600280546107c990612787565b60135460ff166111455760405162461bcd60e51b815260206004820152600d60248201526c1b5a5b9d08191a5cd8589b1959609a1b60448201526064016108b7565b600081116111835760405162461bcd60e51b815260206004820152600b60248201526a1e995c9bc8185b5bdd5b9d60aa1b60448201526064016108b7565b6011548111156111d55760405162461bcd60e51b815260206004820152601960248201527f63616e2774206d696e7420736f206d75636820746f6b656e730000000000000060448201526064016108b7565b601054816111e260005490565b6111ec919061281e565b11156112305760405162461bcd60e51b81526020600482015260136024820152721b585e081cdd5c1c1b1e48195e18d959591959606a1b60448201526064016108b7565b61125a817f0000000000000000000000000000000000000000000000000000000000000000612900565b3410156112a95760405162461bcd60e51b815260206004820152601960248201527f76616c75652073656e74206973206e6f7420636f72726563740000000000000060448201526064016108b7565b6112b33382611ce3565b50565b6001600160a01b03821633141561130f5760405162461bcd60e51b815260206004820152601a60248201527f455243373231413a20617070726f766520746f2063616c6c657200000000000060448201526064016108b7565b3360008181526006602090815260408083206001600160a01b03871680855290835292819020805460ff191686151590811790915590519081529192917f17307eab39ab6107e8899845ad3d59bd9653f200f220920489ca2b5937696c31910160405180910390a35050565b6008546001600160a01b031633146113a55760405162461bcd60e51b81526004016108b790612881565b6013805460ff19166001179055565b6113bf84848461170d565b6113cb84848484611d01565b6113e75760405162461bcd60e51b81526004016108b79061291f565b50505050565b60606113fa826000541190565b61145e5760405162461bcd60e51b815260206004820152602f60248201527f4552433732314d657461646174613a2055524920717565727920666f72206e6f60448201526e3732bc34b9ba32b73a103a37b5b2b760891b60648201526084016108b7565b6000611468611dff565b9050600081511161148857604051806020016040528060008152506114b3565b8061149284611e0e565b6040516020016114a3929190612972565b6040516020818303038152906040525b9392505050565b6008546001600160a01b031633146114e45760405162461bcd60e51b81526004016108b790612881565b6001600160a01b0381166115495760405162461bcd60e51b815260206004820152602660248201527f4f776e61626c653a206e6577206f776e657220697320746865207a65726f206160448201526564647265737360d01b60648201526084016108b7565b6112b381611c91565b60008281526005602052604080822080546001600160a01b0319166001600160a01b0387811691821790925591518593918516917f8c5be1e5ebec7d5bd14f71427d1e84f3dd0314c0f7b2291e5b200ac8c7c3b92591a4505050565b6009546001600160a01b0384166000908152600b6020526040812054909183916115d89086612900565b6115e291906129c7565b6115ec91906129db565b949350505050565b804710156116445760405162461bcd60e51b815260206004820152601d60248201527f416464726573733a20696e73756666696369656e742062616c616e636500000060448201526064016108b7565b6000826001600160a01b03168260405160006040518083038185875af1925050503d8060008114611691576040519150601f19603f3d011682016040523d82523d6000602084013e611696565b606091505b50509050806109ef5760405162461bcd60e51b815260206004820152603a60248201527f416464726573733a20756e61626c6520746f2073656e642076616c75652c207260448201527f6563697069656e74206d6179206861766520726576657274656400000000000060648201526084016108b7565b600061171882611ae7565b80519091506000906001600160a01b0316336001600160a01b0316148061174f5750336117448461084c565b6001600160a01b0316145b806117615750815161176190336106ff565b9050806117cb5760405162461bcd60e51b815260206004820152603260248201527f455243373231413a207472616e736665722063616c6c6572206973206e6f74206044820152711bdddb995c881b9bdc88185c1c1c9bdd995960721b60648201526084016108b7565b846001600160a01b031682600001516001600160a01b03161461183f5760405162461bcd60e51b815260206004820152602660248201527f455243373231413a207472616e736665722066726f6d20696e636f72726563746044820152651037bbb732b960d11b60648201526084016108b7565b6001600160a01b0384166118a35760405162461bcd60e51b815260206004820152602560248201527f455243373231413a207472616e7366657220746f20746865207a65726f206164604482015264647265737360d81b60648201526084016108b7565b6118b36000848460000151611552565b6001600160a01b03851660009081526004602052604081208054600192906118e59084906001600160801b03166129f2565b82546101009290920a6001600160801b038181021990931691831602179091556001600160a01b0386166000908152600460205260408120805460019450909261193191859116612a1a565b82546001600160801b039182166101009390930a9283029190920219909116179055506040805180820182526001600160a01b03808716825267ffffffffffffffff428116602080850191825260008981526003909152948520935184549151909216600160a01b026001600160e01b031990911691909216171790556119b984600161281e565b6000818152600360205260409020549091506001600160a01b0316611a4b576119e3816000541190565b15611a4b5760408051808201825284516001600160a01b03908116825260208087015167ffffffffffffffff9081168285019081526000878152600390935294909120925183549451909116600160a01b026001600160e01b03199094169116179190911790555b83856001600160a01b0316876001600160a01b03167fddf252ad1be2c89b69c2b068fc378daa952ba7f163c4a11628f55a4df523b3ef60405160405180910390a45b505050505050565b604080516001600160a01b038416602482015260448082018490528251808303909101815260649091019091526020810180516001600160e01b031663a9059cbb60e01b1790526109ef908490611f0c565b6040805180820190915260008082526020820152611b06826000541190565b611b655760405162461bcd60e51b815260206004820152602a60248201527f455243373231413a206f776e657220717565727920666f72206e6f6e657869736044820152693a32b73a103a37b5b2b760b11b60648201526084016108b7565b60007f00000000000000000000000000000000000000000000000000000000000000008310611bc657611bb87f0000000000000000000000000000000000000000000000000000000000000000846129db565b611bc390600161281e565b90505b825b818110611c30576000818152600360209081526040918290208251808401909352546001600160a01b038116808452600160a01b90910467ffffffffffffffff169183019190915215611c1d57949350505050565b5080611c2881612a45565b915050611bc8565b5060405162461bcd60e51b815260206004820152602f60248201527f455243373231413a20756e61626c6520746f2064657465726d696e652074686560448201526e1037bbb732b91037b3103a37b5b2b760891b60648201526084016108b7565b600880546001600160a01b038381166001600160a01b0319831681179093556040519116919082907f8be0079c531659141344cd1fd0a4f28419497f9722a3daafe3b4186f6b6457e090600090a35050565b611cfd828260405180602001604052806000815250611fde565b5050565b60006001600160a01b0384163b15611df457604051630a85bd0160e11b81526001600160a01b0385169063150b7a0290611d45903390899088908890600401612a5c565b6020604051808303816000875af1925050508015611d80575060408051601f3d908101601f19168201909252611d7d91810190612a99565b60015b611dda573d808015611dae576040519150601f19603f3d011682016040523d82523d6000602084013e611db3565b606091505b508051611dd25760405162461bcd60e51b81526004016108b79061291f565b805181602001fd5b6001600160e01b031916630a85bd0160e11b1490506115ec565b506001949350505050565b6060601280546107c990612787565b606081611e325750506040805180820190915260018152600360fc1b602082015290565b8160005b8115611e5c5780611e46816128b6565b9150611e559050600a836129c7565b9150611e36565b60008167ffffffffffffffff811115611e7757611e77612691565b6040519080825280601f01601f191660200182016040528015611ea1576020820181803683370190505b5090505b84156115ec57611eb66001836129db565b9150611ec3600a86612ab6565b611ece90603061281e565b60f81b818381518110611ee357611ee36128ea565b60200101906001600160f81b031916908160001a905350611f05600a866129c7565b9450611ea5565b6000611f61826040518060400160405280602081526020017f5361666545524332303a206c6f772d6c6576656c2063616c6c206661696c6564815250856001600160a01b03166122b99092919063ffffffff16565b8051909150156109ef5780806020019051810190611f7f9190612aca565b6109ef5760405162461bcd60e51b815260206004820152602a60248201527f5361666545524332303a204552433230206f7065726174696f6e20646964206e6044820152691bdd081cdd58d8d9595960b21b60648201526084016108b7565b6000546001600160a01b0384166120415760405162461bcd60e51b815260206004820152602160248201527f455243373231413a206d696e7420746f20746865207a65726f206164647265736044820152607360f81b60648201526084016108b7565b61204c816000541190565b156120995760405162461bcd60e51b815260206004820152601d60248201527f455243373231413a20746f6b656e20616c7265616479206d696e74656400000060448201526064016108b7565b7f00000000000000000000000000000000000000000000000000000000000000008311156121145760405162461bcd60e51b815260206004820152602260248201527f455243373231413a207175616e7469747920746f206d696e7420746f6f2068696044820152610ced60f31b60648201526084016108b7565b6001600160a01b0384166000908152600460209081526040918290208251808401845290546001600160801b038082168352600160801b9091041691810191909152815180830190925280519091908190612170908790612a1a565b6001600160801b0316815260200185836020015161218e9190612a1a565b6001600160801b039081169091526001600160a01b0380881660008181526004602090815260408083208751978301518716600160801b0297909616969096179094558451808601865291825267ffffffffffffffff4281168386019081528883526003909552948120915182549451909516600160a01b026001600160e01b031990941694909216939093179190911790915582905b858110156122ae5760405182906001600160a01b038916906000907fddf252ad1be2c89b69c2b068fc378daa952ba7f163c4a11628f55a4df523b3ef908290a46122726000888488611d01565b61228e5760405162461bcd60e51b81526004016108b79061291f565b81612298816128b6565b92505080806122a6906128b6565b915050612225565b506000819055611a8d565b60606115ec848460008585843b6123125760405162461bcd60e51b815260206004820152601d60248201527f416464726573733a2063616c6c20746f206e6f6e2d636f6e747261637400000060448201526064016108b7565b600080866001600160a01b0316858760405161232e9190612ae7565b60006040518083038185875af1925050503d806000811461236b576040519150601f19603f3d011682016040523d82523d6000602084013e612370565b606091505b509150915061238082828661238b565b979650505050505050565b6060831561239a5750816114b3565b8251156123aa5782518084602001fd5b8160405162461bcd60e51b81526004016108b791906124df565b8280546123d090612787565b90600052602060002090601f0160209004810192826123f25760008555612438565b82601f1061240b5782800160ff19823516178555612438565b82800160010185558215612438579182015b8281111561243857823582559160200191906001019061241d565b50610f239291505b80821115610f235760008155600101612440565b6001600160e01b0319811681146112b357600080fd5b60006020828403121561247c57600080fd5b81356114b381612454565b60005b838110156124a257818101518382015260200161248a565b838111156113e75750506000910152565b600081518084526124cb816020860160208601612487565b601f01601f19169290920160200192915050565b6020815260006114b360208301846124b3565b60006020828403121561250457600080fd5b5035919050565b6001600160a01b03811681146112b357600080fd5b6000806040838503121561253357600080fd5b823561253e8161250b565b946020939093013593505050565b60006020828403121561255e57600080fd5b81356114b38161250b565b60008060006060848603121561257e57600080fd5b83356125898161250b565b925060208401356125998161250b565b929592945050506040919091013590565b600080604083850312156125bd57600080fd5b82356125c88161250b565b915060208301356125d88161250b565b809150509250929050565b600080602083850312156125f657600080fd5b823567ffffffffffffffff8082111561260e57600080fd5b818501915085601f83011261262257600080fd5b81358181111561263157600080fd5b86602082850101111561264357600080fd5b60209290920196919550909350505050565b80151581146112b357600080fd5b6000806040838503121561267657600080fd5b82356126818161250b565b915060208301356125d881612655565b634e487b7160e01b600052604160045260246000fd5b600080600080608085870312156126bd57600080fd5b84356126c88161250b565b935060208501356126d88161250b565b925060408501359150606085013567ffffffffffffffff808211156126fc57600080fd5b818701915087601f83011261271057600080fd5b81358181111561272257612722612691565b604051601f8201601f19908116603f0116810190838211818310171561274a5761274a612691565b816040528281528a602084870101111561276357600080fd5b82602086016020830137600060208483010152809550505050505092959194509250565b600181811c9082168061279b57607f821691505b602082108114156127bc57634e487b7160e01b600052602260045260246000fd5b50919050565b60208082526026908201527f5061796d656e7453706c69747465723a206163636f756e7420686173206e6f2060408201526573686172657360d01b606082015260800190565b634e487b7160e01b600052601160045260246000fd5b6000821982111561283157612831612808565b500190565b6020808252602b908201527f5061796d656e7453706c69747465723a206163636f756e74206973206e6f742060408201526a191d59481c185e5b595b9d60aa1b606082015260800190565b6020808252818101527f4f776e61626c653a2063616c6c6572206973206e6f7420746865206f776e6572604082015260600190565b60006000198214156128ca576128ca612808565b5060010190565b6000602082840312156128e357600080fd5b5051919050565b634e487b7160e01b600052603260045260246000fd5b600081600019048311821515161561291a5761291a612808565b500290565b60208082526033908201527f455243373231413a207472616e7366657220746f206e6f6e204552433732315260408201527232b1b2b4bb32b91034b6b83632b6b2b73a32b960691b606082015260800190565b60008351612984818460208801612487565b835190830190612998818360208801612487565b64173539b7b760d91b9101908152600501949350505050565b634e487b7160e01b600052601260045260246000fd5b6000826129d6576129d66129b1565b500490565b6000828210156129ed576129ed612808565b500390565b60006001600160801b0383811690831681811015612a1257612a12612808565b039392505050565b60006001600160801b03808316818516808303821115612a3c57612a3c612808565b01949350505050565b600081612a5457612a54612808565b506000190190565b6001600160a01b0385811682528416602082015260408101839052608060608201819052600090612a8f908301846124b3565b9695505050505050565b600060208284031215612aab57600080fd5b81516114b381612454565b600082612ac557612ac56129b1565b500690565b600060208284031215612adc57600080fd5b81516114b381612655565b60008251612af9818460208701612487565b919091019291505056fea2646970667358221220c0f7b38b4641cb13e5bc153a9219fb62aba782627499fb9fa4568255dc79e3ea64736f6c634300080b0033",
  "immutableReferences": {
    "329": [
      {
        "length": 32,
        "start": 4662
      }
    ],
    "622": [
      {
        "length": 32,
        "start": 7017
      },
      {
        "length": 32,
        "start": 7059
      },
      {
        "length": 32,
        "start": 8347
      }
    ]
  },
  "source": "// SPDX-License-Identifier: MIT\npragma solidity 0.8.11;\n\nimport \"./ERC721A.sol\";\nimport \"./Ownable.sol\";\nimport \"./PaymentSplitter.sol\";\nimport \"./Counters.sol\";\n\ncontract AstrologyClub is ERC721A, Ownable, PaymentSplitter {\n    using Strings for uint256;\n    using Counters for Counters.Counter;\n\n    uint256 public maxMintSupply = 10000;\n    uint256 public limitPerWallet = 30;\n\n    string public baseURI;\n\n    bool public publicState = true;\n\n    uint256 immutable price = 100000000000000000; //0.1 ETH\n\n    uint256[] private _teamShares = [60, 33, 5, 2];\n\n    address[] private _team = [\n        0xBD584cE590B7dcdbB93b11e095d9E1D5880B44d9,\n        0x85a37aC5C3250827B4f50F3373275c67C7f5fF3b,\n        0xA26AE192f618F89F3579974E87e2a92770654605,\n        0x1D7d6857c397788d1d33744276B54EfaE92CbBad\n    ];\n\n    constructor()\n        ERC721A(\"AstrologyClub\", \"ZODIAC\", limitPerWallet, maxMintSupply)\n        PaymentSplitter(_team, _teamShares) {\n        _transferOwnership(_team[0]);\n    }\n\n    function enable() public onlyOwner {\n        publicState = true;\n    }\n\n    function disable() public onlyOwner {\n        publicState = false;\n    }\n\n    function mint(uint256 _amount) external payable {\n        require(publicState, \"mint disabled\");\n        require(_amount > 0, \"zero amount\");\n        require(_amount <= limitPerWallet, \"can't mint so much tokens\");\n        require(totalSupply() + _amount <= maxMintSupply, \"max supply exceeded\");\n        require(msg.value >= price * _amount , \"value sent is not correct\");\n\n        _safeMint(_msgSender(), _amount);\n    }\n\n\n    function setBaseURI(string calldata _tokenBaseURI) external onlyOwner {\n        baseURI = _tokenBaseURI;\n    }\n\n    function _baseURI() internal view override returns (string memory) {\n        return baseURI;\n    }\n\n}",
  "sourcePath": "/Users/richard/Projects/astrologyclub/contracts/AstrologyClub.sol",
  "compiler": {
    "name": "solc",
    "version": "0.8.11+commit.d7f03943.Emscripten.clang"
  },
  "schemaVersion": "3.4.4",
  "updatedAt": "2022-02-16T13:47:21.064Z",
  "devdoc": {
    "kind": "dev",
    "methods": {
      "approve(address,uint256)": {
        "details": "See {IERC721-approve}."
      },
      "balanceOf(address)": {
        "details": "See {IERC721-balanceOf}."
      },
      "getApproved(uint256)": {
        "details": "See {IERC721-getApproved}."
      },
      "isApprovedForAll(address,address)": {
        "details": "See {IERC721-isApprovedForAll}."
      },
      "name()": {
        "details": "See {IERC721Metadata-name}."
      },
      "owner()": {
        "details": "Returns the address of the current owner."
      },
      "ownerOf(uint256)": {
        "details": "See {IERC721-ownerOf}."
      },
      "payee(uint256)": {
        "details": "Getter for the address of the payee number `index`."
      },
      "release(address)": {
        "details": "Triggers a transfer to `account` of the amount of Ether they are owed, according to their percentage of the total shares and their previous withdrawals."
      },
      "release(address,address)": {
        "details": "Triggers a transfer to `account` of the amount of `token` tokens they are owed, according to their percentage of the total shares and their previous withdrawals. `token` must be the address of an IERC20 contract."
      },
      "released(address)": {
        "details": "Getter for the amount of Ether already released to a payee."
      },
      "released(address,address)": {
        "details": "Getter for the amount of `token` tokens already released to a payee. `token` should be the address of an IERC20 contract."
      },
      "renounceOwnership()": {
        "details": "Leaves the contract without owner. It will not be possible to call `onlyOwner` functions anymore. Can only be called by the current owner. NOTE: Renouncing ownership will leave the contract without an owner, thereby removing any functionality that is only available to the owner."
      },
      "safeTransferFrom(address,address,uint256)": {
        "details": "See {IERC721-safeTransferFrom}."
      },
      "safeTransferFrom(address,address,uint256,bytes)": {
        "details": "See {IERC721-safeTransferFrom}."
      },
      "setApprovalForAll(address,bool)": {
        "details": "See {IERC721-setApprovalForAll}."
      },
      "shares(address)": {
        "details": "Getter for the amount of shares held by an account."
      },
      "supportsInterface(bytes4)": {
        "details": "See {IERC165-supportsInterface}."
      },
      "symbol()": {
        "details": "See {IERC721Metadata-symbol}."
      },
      "tokenByIndex(uint256)": {
        "details": "See {IERC721Enumerable-tokenByIndex}."
      },
      "tokenOfOwnerByIndex(address,uint256)": {
        "details": "See {IERC721Enumerable-tokenOfOwnerByIndex}. This read function is O(collectionSize). If calling from a separate contract, be sure to test gas first. It may also degrade with extremely large collection sizes (e.g >> 10000), test for your use case."
      },
      "tokenURI(uint256)": {
        "details": "See {IERC721Metadata-tokenURI}."
      },
      "totalReleased()": {
        "details": "Getter for the total amount of Ether already released."
      },
      "totalReleased(address)": {
        "details": "Getter for the total amount of `token` already released. `token` should be the address of an IERC20 contract."
      },
      "totalShares()": {
        "details": "Getter for the total shares held by payees."
      },
      "totalSupply()": {
        "details": "See {IERC721Enumerable-totalSupply}."
      },
      "transferFrom(address,address,uint256)": {
        "details": "See {IERC721-transferFrom}."
      },
      "transferOwnership(address)": {
        "details": "Transfers ownership of the contract to a new account (`newOwner`). Can only be called by the current owner."
      }
    },
    "version": 1
  },
  "userdoc": {
    "kind": "user",
    "methods": {},
    "version": 1
  }
}