{
  "contractName": "SamuraiTemple",
  "abi": [
    {
      "inputs": [],
      "stateMutability": "nonpayable",
      "type": "constructor"
    },
    {
      "anonymous": false,
      "inputs": [
        {
          "indexed": true,
          "internalType": "address",
          "name": "owner",
          "type": "address"
        },
        {
          "indexed": true,
          "internalType": "address",
          "name": "approved",
          "type": "address"
        },
        {
          "indexed": true,
          "internalType": "uint256",
          "name": "tokenId",
          "type": "uint256"
        }
      ],
      "name": "Approval",
      "type": "event"
    },
    {
      "anonymous": false,
      "inputs": [
        {
          "indexed": true,
          "internalType": "address",
          "name": "owner",
          "type": "address"
        },
        {
          "indexed": true,
          "internalType": "address",
          "name": "operator",
          "type": "address"
        },
        {
          "indexed": false,
          "internalType": "bool",
          "name": "approved",
          "type": "bool"
        }
      ],
      "name": "ApprovalForAll",
      "type": "event"
    },
    {
      "anonymous": false,
      "inputs": [
        {
          "indexed": true,
          "internalType": "address",
          "name": "previousOwner",
          "type": "address"
        },
        {
          "indexed": true,
          "internalType": "address",
          "name": "newOwner",
          "type": "address"
        }
      ],
      "name": "OwnershipTransferred",
      "type": "event"
    },
    {
      "anonymous": false,
      "inputs": [
        {
          "indexed": true,
          "internalType": "address",
          "name": "from",
          "type": "address"
        },
        {
          "indexed": true,
          "internalType": "address",
          "name": "to",
          "type": "address"
        },
        {
          "indexed": true,
          "internalType": "uint256",
          "name": "tokenId",
          "type": "uint256"
        }
      ],
      "name": "Transfer",
      "type": "event"
    },
    {
      "inputs": [
        {
          "internalType": "address",
          "name": "",
          "type": "address"
        }
      ],
      "name": "_presaleClaimed",
      "outputs": [
        {
          "internalType": "uint256",
          "name": "",
          "type": "uint256"
        }
      ],
      "stateMutability": "view",
      "type": "function"
    },
    {
      "inputs": [
        {
          "internalType": "address",
          "name": "to",
          "type": "address"
        },
        {
          "internalType": "uint256",
          "name": "tokenId",
          "type": "uint256"
        }
      ],
      "name": "approve",
      "outputs": [],
      "stateMutability": "nonpayable",
      "type": "function"
    },
    {
      "inputs": [
        {
          "internalType": "address",
          "name": "owner",
          "type": "address"
        }
      ],
      "name": "balanceOf",
      "outputs": [
        {
          "internalType": "uint256",
          "name": "",
          "type": "uint256"
        }
      ],
      "stateMutability": "view",
      "type": "function"
    },
    {
      "inputs": [],
      "name": "baseExtension",
      "outputs": [
        {
          "internalType": "string",
          "name": "",
          "type": "string"
        }
      ],
      "stateMutability": "view",
      "type": "function"
    },
    {
      "inputs": [],
      "name": "baseURI",
      "outputs": [
        {
          "internalType": "string",
          "name": "",
          "type": "string"
        }
      ],
      "stateMutability": "view",
      "type": "function"
    },
    {
      "inputs": [],
      "name": "dev",
      "outputs": [
        {
          "internalType": "address",
          "name": "",
          "type": "address"
        }
      ],
      "stateMutability": "view",
      "type": "function"
    },
    {
      "inputs": [
        {
          "internalType": "uint256",
          "name": "tokenId",
          "type": "uint256"
        }
      ],
      "name": "getApproved",
      "outputs": [
        {
          "internalType": "address",
          "name": "",
          "type": "address"
        }
      ],
      "stateMutability": "view",
      "type": "function"
    },
    {
      "inputs": [
        {
          "internalType": "address",
          "name": "owner",
          "type": "address"
        },
        {
          "internalType": "address",
          "name": "operator",
          "type": "address"
        }
      ],
      "name": "isApprovedForAll",
      "outputs": [
        {
          "internalType": "bool",
          "name": "",
          "type": "bool"
        }
      ],
      "stateMutability": "view",
      "type": "function"
    },
    {
      "inputs": [],
      "name": "maxMintSupply",
      "outputs": [
        {
          "internalType": "uint256",
          "name": "",
          "type": "uint256"
        }
      ],
      "stateMutability": "view",
      "type": "function"
    },
    {
      "inputs": [],
      "name": "name",
      "outputs": [
        {
          "internalType": "string",
          "name": "",
          "type": "string"
        }
      ],
      "stateMutability": "view",
      "type": "function"
    },
    {
      "inputs": [],
      "name": "owner",
      "outputs": [
        {
          "internalType": "address",
          "name": "",
          "type": "address"
        }
      ],
      "stateMutability": "view",
      "type": "function"
    },
    {
      "inputs": [
        {
          "internalType": "uint256",
          "name": "tokenId",
          "type": "uint256"
        }
      ],
      "name": "ownerOf",
      "outputs": [
        {
          "internalType": "address",
          "name": "",
          "type": "address"
        }
      ],
      "stateMutability": "view",
      "type": "function"
    },
    {
      "inputs": [],
      "name": "presaleRoot",
      "outputs": [
        {
          "internalType": "bytes32",
          "name": "",
          "type": "bytes32"
        }
      ],
      "stateMutability": "view",
      "type": "function"
    },
    {
      "inputs": [],
      "name": "presaleState",
      "outputs": [
        {
          "internalType": "bool",
          "name": "",
          "type": "bool"
        }
      ],
      "stateMutability": "view",
      "type": "function"
    },
    {
      "inputs": [],
      "name": "publicState",
      "outputs": [
        {
          "internalType": "bool",
          "name": "",
          "type": "bool"
        }
      ],
      "stateMutability": "view",
      "type": "function"
    },
    {
      "inputs": [],
      "name": "renounceOwnership",
      "outputs": [],
      "stateMutability": "nonpayable",
      "type": "function"
    },
    {
      "inputs": [
        {
          "internalType": "address",
          "name": "from",
          "type": "address"
        },
        {
          "internalType": "address",
          "name": "to",
          "type": "address"
        },
        {
          "internalType": "uint256",
          "name": "tokenId",
          "type": "uint256"
        }
      ],
      "name": "safeTransferFrom",
      "outputs": [],
      "stateMutability": "nonpayable",
      "type": "function"
    },
    {
      "inputs": [
        {
          "internalType": "address",
          "name": "from",
          "type": "address"
        },
        {
          "internalType": "address",
          "name": "to",
          "type": "address"
        },
        {
          "internalType": "uint256",
          "name": "tokenId",
          "type": "uint256"
        },
        {
          "internalType": "bytes",
          "name": "_data",
          "type": "bytes"
        }
      ],
      "name": "safeTransferFrom",
      "outputs": [],
      "stateMutability": "nonpayable",
      "type": "function"
    },
    {
      "inputs": [
        {
          "internalType": "address",
          "name": "operator",
          "type": "address"
        },
        {
          "internalType": "bool",
          "name": "approved",
          "type": "bool"
        }
      ],
      "name": "setApprovalForAll",
      "outputs": [],
      "stateMutability": "nonpayable",
      "type": "function"
    },
    {
      "inputs": [
        {
          "internalType": "bytes4",
          "name": "interfaceId",
          "type": "bytes4"
        }
      ],
      "name": "supportsInterface",
      "outputs": [
        {
          "internalType": "bool",
          "name": "",
          "type": "bool"
        }
      ],
      "stateMutability": "view",
      "type": "function"
    },
    {
      "inputs": [],
      "name": "symbol",
      "outputs": [
        {
          "internalType": "string",
          "name": "",
          "type": "string"
        }
      ],
      "stateMutability": "view",
      "type": "function"
    },
    {
      "inputs": [
        {
          "internalType": "uint256",
          "name": "index",
          "type": "uint256"
        }
      ],
      "name": "tokenByIndex",
      "outputs": [
        {
          "internalType": "uint256",
          "name": "",
          "type": "uint256"
        }
      ],
      "stateMutability": "view",
      "type": "function"
    },
    {
      "inputs": [
        {
          "internalType": "address",
          "name": "owner",
          "type": "address"
        },
        {
          "internalType": "uint256",
          "name": "index",
          "type": "uint256"
        }
      ],
      "name": "tokenOfOwnerByIndex",
      "outputs": [
        {
          "internalType": "uint256",
          "name": "",
          "type": "uint256"
        }
      ],
      "stateMutability": "view",
      "type": "function"
    },
    {
      "inputs": [],
      "name": "totalMinted",
      "outputs": [
        {
          "internalType": "uint256",
          "name": "",
          "type": "uint256"
        }
      ],
      "stateMutability": "view",
      "type": "function"
    },
    {
      "inputs": [],
      "name": "totalSupply",
      "outputs": [
        {
          "internalType": "uint256",
          "name": "",
          "type": "uint256"
        }
      ],
      "stateMutability": "view",
      "type": "function"
    },
    {
      "inputs": [
        {
          "internalType": "address",
          "name": "from",
          "type": "address"
        },
        {
          "internalType": "address",
          "name": "to",
          "type": "address"
        },
        {
          "internalType": "uint256",
          "name": "tokenId",
          "type": "uint256"
        }
      ],
      "name": "transferFrom",
      "outputs": [],
      "stateMutability": "nonpayable",
      "type": "function"
    },
    {
      "inputs": [
        {
          "internalType": "address",
          "name": "newOwner",
          "type": "address"
        }
      ],
      "name": "transferOwnership",
      "outputs": [],
      "stateMutability": "nonpayable",
      "type": "function"
    },
    {
      "inputs": [
        {
          "internalType": "bytes32",
          "name": "_presaleRoot",
          "type": "bytes32"
        }
      ],
      "name": "enablePresale",
      "outputs": [],
      "stateMutability": "nonpayable",
      "type": "function"
    },
    {
      "inputs": [],
      "name": "enablePublic",
      "outputs": [],
      "stateMutability": "nonpayable",
      "type": "function"
    },
    {
      "inputs": [],
      "name": "disable",
      "outputs": [],
      "stateMutability": "nonpayable",
      "type": "function"
    },
    {
      "inputs": [
        {
          "internalType": "string",
          "name": "_tokenBaseURI",
          "type": "string"
        }
      ],
      "name": "setBaseURI",
      "outputs": [],
      "stateMutability": "nonpayable",
      "type": "function"
    },
    {
      "inputs": [
        {
          "internalType": "string",
          "name": "_newBaseExtension",
          "type": "string"
        }
      ],
      "name": "setBaseExtension",
      "outputs": [],
      "stateMutability": "nonpayable",
      "type": "function"
    },
    {
      "inputs": [
        {
          "internalType": "uint256",
          "name": "tokenId",
          "type": "uint256"
        }
      ],
      "name": "tokenURI",
      "outputs": [
        {
          "internalType": "string",
          "name": "",
          "type": "string"
        }
      ],
      "stateMutability": "view",
      "type": "function"
    },
    {
      "inputs": [
        {
          "internalType": "uint256",
          "name": "_amount",
          "type": "uint256"
        }
      ],
      "name": "mint",
      "outputs": [],
      "stateMutability": "payable",
      "type": "function"
    },
    {
      "inputs": [
        {
          "internalType": "uint256",
          "name": "_amount",
          "type": "uint256"
        },
        {
          "internalType": "bytes32[]",
          "name": "proof",
          "type": "bytes32[]"
        }
      ],
      "name": "mint",
      "outputs": [],
      "stateMutability": "payable",
      "type": "function"
    },
    {
      "inputs": [],
      "name": "withdraw",
      "outputs": [],
      "stateMutability": "nonpayable",
      "type": "function"
    }
  ],
  "bytecode": "0x612710600b556003600d5560c06040526005608081905264173539b7b760d91b60a09081526200003391600f919062000138565b506010805461ffff1916905566f8b0a10e4700006012553480156200005757600080fd5b50604080518082018252600d81526c53616d7572616954656d706c6560981b6020808301918252835180850190945260048452630534d54560e41b908401528151919291620000a99160009162000138565b508051620000bf90600190602084019062000138565b505050620000dc620000d6620000e260201b60201c565b620000e6565b6200021b565b3390565b600a80546001600160a01b038381166001600160a01b0319831681179093556040519116919082907f8be0079c531659141344cd1fd0a4f28419497f9722a3daafe3b4186f6b6457e090600090a35050565b8280546200014690620001de565b90600052602060002090601f0160209004810192826200016a5760008555620001b5565b82601f106200018557805160ff1916838001178555620001b5565b82800160010185558215620001b5579182015b82811115620001b557825182559160200191906001019062000198565b50620001c3929150620001c7565b5090565b5b80821115620001c35760008155600101620001c8565b600181811c90821680620001f357607f821691505b602082108114156200021557634e487b7160e01b600052602260045260246000fd5b50919050565b6128cd806200022b6000396000f3fe60806040526004361061020f5760003560e01c80638cc4de1911610118578063b88d4fde116100a0578063c87b56dd1161006f578063c87b56dd146105b5578063da3ef23f146105d5578063dc64a754146105f5578063e985e9c51461060a578063f2fde38b1461065357600080fd5b8063b88d4fde14610557578063ba41b0c614610577578063c285e1071461058a578063c6682862146105a057600080fd5b806395d89b41116100e757806395d89b41146104df578063a0712d68146104f4578063a22cb46514610507578063a2309ff814610527578063abfe76141461053d57600080fd5b80638cc4de191461044d5780638da5cb5b1461047a57806391cca3db14610498578063946cc04e146104bf57600080fd5b80633ccfd60b1161019b5780636352211e1161016a5780636352211e146103cd5780636c0360eb146103ed57806370a0823114610402578063715018a614610422578063854496971461043757600080fd5b80633ccfd60b1461035857806342842e0e1461036d5780634f6ccce71461038d57806355f804b3146103ad57600080fd5b80630d0c31b7116101e25780630d0c31b7146102c557806318160ddd146102e457806323b872dd146103035780632f2770db146103235780632f745c591461033857600080fd5b806301ffc9a71461021457806306fdde0314610249578063081812fc1461026b578063095ea7b3146102a3575b600080fd5b34801561022057600080fd5b5061023461022f366004612148565b610673565b60405190151581526020015b60405180910390f35b34801561025557600080fd5b5061025e61069e565b60405161024091906121bd565b34801561027757600080fd5b5061028b6102863660046121d0565b610730565b6040516001600160a01b039091168152602001610240565b3480156102af57600080fd5b506102c36102be366004612205565b6107ca565b005b3480156102d157600080fd5b5060105461023490610100900460ff1681565b3480156102f057600080fd5b506008545b604051908152602001610240565b34801561030f57600080fd5b506102c361031e36600461222f565b6108e0565b34801561032f57600080fd5b506102c3610911565b34801561034457600080fd5b506102f5610353366004612205565b610966565b34801561036457600080fd5b506102c36109fc565b34801561037957600080fd5b506102c361038836600461222f565b610a73565b34801561039957600080fd5b506102f56103a83660046121d0565b610a8e565b3480156103b957600080fd5b506102c36103c836600461226b565b610b21565b3480156103d957600080fd5b5061028b6103e83660046121d0565b610b75565b3480156103f957600080fd5b5061025e610bec565b34801561040e57600080fd5b506102f561041d3660046122dd565b610c7a565b34801561042e57600080fd5b506102c3610d01565b34801561044357600080fd5b506102f560135481565b34801561045957600080fd5b506102f56104683660046122dd565b60116020526000908152604090205481565b34801561048657600080fd5b50600a546001600160a01b031661028b565b3480156104a457600080fd5b50737c95d1209e2f95496c4c9a18aa653fded834503f61028b565b3480156104cb57600080fd5b506102c36104da3660046121d0565b610d55565b3480156104eb57600080fd5b5061025e610db1565b6102c36105023660046121d0565b610dc0565b34801561051357600080fd5b506102c36105223660046122f8565b610f91565b34801561053357600080fd5b506102f5600c5481565b34801561054957600080fd5b506010546102349060ff1681565b34801561056357600080fd5b506102c36105723660046123d3565b610f9c565b6102c361058536600461244f565b610fd4565b34801561059657600080fd5b506102f5600b5481565b3480156105ac57600080fd5b5061025e611248565b3480156105c157600080fd5b5061025e6105d03660046121d0565b611255565b3480156105e157600080fd5b506102c36105f0366004612501565b61130f565b34801561060157600080fd5b506102c361136a565b34801561061657600080fd5b5061023461062536600461254a565b6001600160a01b03918216600090815260056020908152604080832093909416825291909152205460ff1690565b34801561065f57600080fd5b506102c361066e3660046122dd565b6113c2565b60006001600160e01b0319821663780e9d6360e01b1480610698575061069882611478565b92915050565b6060600080546106ad9061257d565b80601f01602080910402602001604051908101604052809291908181526020018280546106d99061257d565b80156107265780601f106106fb57610100808354040283529160200191610726565b820191906000526020600020905b81548152906001019060200180831161070957829003601f168201915b5050505050905090565b6000818152600260205260408120546001600160a01b03166107ae5760405162461bcd60e51b815260206004820152602c60248201527f4552433732313a20617070726f76656420717565727920666f72206e6f6e657860448201526b34b9ba32b73a103a37b5b2b760a11b60648201526084015b60405180910390fd5b506000908152600460205260409020546001600160a01b031690565b60006107d582610b75565b9050806001600160a01b0316836001600160a01b031614156108435760405162461bcd60e51b815260206004820152602160248201527f4552433732313a20617070726f76616c20746f2063757272656e74206f776e656044820152603960f91b60648201526084016107a5565b336001600160a01b038216148061085f575061085f8133610625565b6108d15760405162461bcd60e51b815260206004820152603860248201527f4552433732313a20617070726f76652063616c6c6572206973206e6f74206f7760448201527f6e6572206e6f7220617070726f76656420666f7220616c6c000000000000000060648201526084016107a5565b6108db83836114c8565b505050565b6108ea3382611536565b6109065760405162461bcd60e51b81526004016107a5906125b8565b6108db83838361162d565b600a546001600160a01b031633148061093d5750737c95d1209e2f95496c4c9a18aa653fded834503f33145b6109595760405162461bcd60e51b81526004016107a590612609565b6010805461ffff19169055565b600061097183610c7a565b82106109d35760405162461bcd60e51b815260206004820152602b60248201527f455243373231456e756d657261626c653a206f776e657220696e646578206f7560448201526a74206f6620626f756e647360a81b60648201526084016107a5565b506001600160a01b03919091166000908152600660209081526040808320938352929052205490565b600a546001600160a01b0316331480610a285750737c95d1209e2f95496c4c9a18aa653fded834503f33145b610a445760405162461bcd60e51b81526004016107a590612609565b60405133904780156108fc02916000818181858888f19350505050158015610a70573d6000803e3d6000fd5b50565b6108db83838360405180602001604052806000815250610f9c565b6000610a9960085490565b8210610afc5760405162461bcd60e51b815260206004820152602c60248201527f455243373231456e756d657261626c653a20676c6f62616c20696e646578206f60448201526b7574206f6620626f756e647360a01b60648201526084016107a5565b60088281548110610b0f57610b0f61263e565b90600052602060002001549050919050565b600a546001600160a01b0316331480610b4d5750737c95d1209e2f95496c4c9a18aa653fded834503f33145b610b695760405162461bcd60e51b81526004016107a590612609565b6108db600e8383612025565b6000818152600260205260408120546001600160a01b0316806106985760405162461bcd60e51b815260206004820152602960248201527f4552433732313a206f776e657220717565727920666f72206e6f6e657869737460448201526832b73a103a37b5b2b760b91b60648201526084016107a5565b600e8054610bf99061257d565b80601f0160208091040260200160405190810160405280929190818152602001828054610c259061257d565b8015610c725780601f10610c4757610100808354040283529160200191610c72565b820191906000526020600020905b815481529060010190602001808311610c5557829003601f168201915b505050505081565b60006001600160a01b038216610ce55760405162461bcd60e51b815260206004820152602a60248201527f4552433732313a2062616c616e636520717565727920666f7220746865207a65604482015269726f206164647265737360b01b60648201526084016107a5565b506001600160a01b031660009081526003602052604090205490565b600a546001600160a01b0316331480610d2d5750737c95d1209e2f95496c4c9a18aa653fded834503f33145b610d495760405162461bcd60e51b81526004016107a590612609565b610d5360006117d8565b565b600a546001600160a01b0316331480610d815750737c95d1209e2f95496c4c9a18aa653fded834503f33145b610d9d5760405162461bcd60e51b81526004016107a590612609565b6010805461ff001916610100179055601355565b6060600180546106ad9061257d565b60105460ff16610e025760405162461bcd60e51b815260206004820152600d60248201526c1b5a5b9d08191a5cd8589b1959609a1b60448201526064016107a5565b60008111610e405760405162461bcd60e51b815260206004820152600b60248201526a1e995c9bc8185b5bdd5b9d60aa1b60448201526064016107a5565b6003811115610e915760405162461bcd60e51b815260206004820152601960248201527f63616e2774206d696e7420736f206d75636820746f6b656e730000000000000060448201526064016107a5565b600b5481600c54610ea2919061266a565b1115610ee65760405162461bcd60e51b81526020600482015260136024820152721b585e081cdd5c1c1b1e48195e18d959591959606a1b60448201526064016107a5565b3481601254610ef59190612682565b1115610f3f5760405162461bcd60e51b81526020600482015260196024820152781d985b1d59481cd95b9d081a5cc81b9bdd0818dbdc9c9958dd603a1b60448201526064016107a5565b60005b81811015610f8d57610f58601480546001019055565b610f6a33610f6560145490565b61182a565b600c54610f7890600161266a565b600c5580610f85816126a1565b915050610f42565b5050565b610f8d338383611844565b610fa63383611536565b610fc25760405162461bcd60e51b81526004016107a5906125b8565b610fce84848484611913565b50505050565b601054610100900460ff1661101e5760405162461bcd60e51b815260206004820152601060248201526f1c1c995cd85b1948191a5cd8589b195960821b60448201526064016107a5565b60105460ff16156110645760405162461bcd60e51b815260206004820152601060248201526f1c1c995cd85b1948191a5cd8589b195960821b60448201526064016107a5565b600b5482600c54611075919061266a565b11156110b95760405162461bcd60e51b81526020600482015260136024820152721b585e081cdd5c1c1b1e48195e18d959591959606a1b60448201526064016107a5565b34826012546110c89190612682565b11156111125760405162461bcd60e51b81526020600482015260196024820152781d985b1d59481cd95b9d081a5cc81b9bdd0818dbdc9c9958dd603a1b60448201526064016107a5565b600d543360009081526011602052604090205461113090849061266a565b111561117e5760405162461bcd60e51b815260206004820152601860248201527f63616e2774206d696e742073756368206120616d6f756e74000000000000000060448201526064016107a5565b6111883382611946565b6111d45760405162461bcd60e51b815260206004820152601c60248201527f6e6f742073656c656374656420666f72207468652070726573616c650000000060448201526064016107a5565b60005b828110156108db576111ed601480546001019055565b6111fa33610f6560145490565b3360009081526011602052604090205461121590600161266a565b33600090815260116020526040902055600c5461123390600161266a565b600c5580611240816126a1565b9150506111d7565b600f8054610bf99061257d565b6000818152600260205260409020546060906001600160a01b03166112b05760405162461bcd60e51b81526020600482015260116024820152703737b732bc34b9ba32b73a103a37b5b2b760791b60448201526064016107a5565b60006112ba61198f565b905060008151116112da5760405180602001604052806000815250611308565b806112e48461199e565b600f6040516020016112f8939291906126bc565b6040516020818303038152906040525b9392505050565b600a546001600160a01b031633148061133b5750737c95d1209e2f95496c4c9a18aa653fded834503f33145b6113575760405162461bcd60e51b81526004016107a590612609565b8051610f8d90600f9060208401906120a9565b600a546001600160a01b03163314806113965750737c95d1209e2f95496c4c9a18aa653fded834503f33145b6113b25760405162461bcd60e51b81526004016107a590612609565b6010805461ffff19166001179055565b600a546001600160a01b03163314806113ee5750737c95d1209e2f95496c4c9a18aa653fded834503f33145b61140a5760405162461bcd60e51b81526004016107a590612609565b6001600160a01b03811661146f5760405162461bcd60e51b815260206004820152602660248201527f4f776e61626c653a206e6577206f776e657220697320746865207a65726f206160448201526564647265737360d01b60648201526084016107a5565b610a70816117d8565b60006001600160e01b031982166380ac58cd60e01b14806114a957506001600160e01b03198216635b5e139f60e01b145b8061069857506301ffc9a760e01b6001600160e01b0319831614610698565b600081815260046020526040902080546001600160a01b0319166001600160a01b03841690811790915581906114fd82610b75565b6001600160a01b03167f8c5be1e5ebec7d5bd14f71427d1e84f3dd0314c0f7b2291e5b200ac8c7c3b92560405160405180910390a45050565b6000818152600260205260408120546001600160a01b03166115af5760405162461bcd60e51b815260206004820152602c60248201527f4552433732313a206f70657261746f7220717565727920666f72206e6f6e657860448201526b34b9ba32b73a103a37b5b2b760a11b60648201526084016107a5565b60006115ba83610b75565b9050806001600160a01b0316846001600160a01b031614806115f55750836001600160a01b03166115ea84610730565b6001600160a01b0316145b8061162557506001600160a01b0380821660009081526005602090815260408083209388168352929052205460ff165b949350505050565b826001600160a01b031661164082610b75565b6001600160a01b0316146116a85760405162461bcd60e51b815260206004820152602960248201527f4552433732313a207472616e73666572206f6620746f6b656e2074686174206960448201526839903737ba1037bbb760b91b60648201526084016107a5565b6001600160a01b03821661170a5760405162461bcd60e51b8152602060048201526024808201527f4552433732313a207472616e7366657220746f20746865207a65726f206164646044820152637265737360e01b60648201526084016107a5565b611715838383611a9c565b6117206000826114c8565b6001600160a01b0383166000908152600360205260408120805460019290611749908490612780565b90915550506001600160a01b038216600090815260036020526040812080546001929061177790849061266a565b909155505060008181526002602052604080822080546001600160a01b0319166001600160a01b0386811691821790925591518493918716917fddf252ad1be2c89b69c2b068fc378daa952ba7f163c4a11628f55a4df523b3ef91a4505050565b600a80546001600160a01b038381166001600160a01b0319831681179093556040519116919082907f8be0079c531659141344cd1fd0a4f28419497f9722a3daafe3b4186f6b6457e090600090a35050565b610f8d828260405180602001604052806000815250611b54565b816001600160a01b0316836001600160a01b031614156118a65760405162461bcd60e51b815260206004820152601960248201527f4552433732313a20617070726f766520746f2063616c6c65720000000000000060448201526064016107a5565b6001600160a01b03838116600081815260056020908152604080832094871680845294825291829020805460ff191686151590811790915591519182527f17307eab39ab6107e8899845ad3d59bd9653f200f220920489ca2b5937696c31910160405180910390a3505050565b61191e84848461162d565b61192a84848484611b87565b610fce5760405162461bcd60e51b81526004016107a590612797565b6040516bffffffffffffffffffffffff19606084901b16602082015260009081906034016040516020818303038152906040528051906020012090506116258360135483611c85565b6060600e80546106ad9061257d565b6060816119c25750506040805180820190915260018152600360fc1b602082015290565b8160005b81156119ec57806119d6816126a1565b91506119e59050600a836127ff565b91506119c6565b60008167ffffffffffffffff811115611a0757611a07612334565b6040519080825280601f01601f191660200182016040528015611a31576020820181803683370190505b5090505b841561162557611a46600183612780565b9150611a53600a86612813565b611a5e90603061266a565b60f81b818381518110611a7357611a7361263e565b60200101906001600160f81b031916908160001a905350611a95600a866127ff565b9450611a35565b6001600160a01b038316611af757611af281600880546000838152600960205260408120829055600182018355919091527ff3f7a9fe364faab93b216da50a3214154f22a0a2b415b23a84c8169e8b636ee30155565b611b1a565b816001600160a01b0316836001600160a01b031614611b1a57611b1a8382611c9b565b6001600160a01b038216611b31576108db81611d38565b826001600160a01b0316826001600160a01b0316146108db576108db8282611de7565b611b5e8383611e2b565b611b6b6000848484611b87565b6108db5760405162461bcd60e51b81526004016107a590612797565b60006001600160a01b0384163b15611c7a57604051630a85bd0160e11b81526001600160a01b0385169063150b7a0290611bcb903390899088908890600401612827565b6020604051808303816000875af1925050508015611c06575060408051601f3d908101601f19168201909252611c0391810190612864565b60015b611c60573d808015611c34576040519150601f19603f3d011682016040523d82523d6000602084013e611c39565b606091505b508051611c585760405162461bcd60e51b81526004016107a590612797565b805181602001fd5b6001600160e01b031916630a85bd0160e11b149050611625565b506001949350505050565b600082611c928584611f79565b14949350505050565b60006001611ca884610c7a565b611cb29190612780565b600083815260076020526040902054909150808214611d05576001600160a01b03841660009081526006602090815260408083208584528252808320548484528184208190558352600790915290208190555b5060009182526007602090815260408084208490556001600160a01b039094168352600681528383209183525290812055565b600854600090611d4a90600190612780565b60008381526009602052604081205460088054939450909284908110611d7257611d7261263e565b906000526020600020015490508060088381548110611d9357611d9361263e565b6000918252602080832090910192909255828152600990915260408082208490558582528120556008805480611dcb57611dcb612881565b6001900381819060005260206000200160009055905550505050565b6000611df283610c7a565b6001600160a01b039093166000908152600660209081526040808320868452825280832085905593825260079052919091209190915550565b6001600160a01b038216611e815760405162461bcd60e51b815260206004820181905260248201527f4552433732313a206d696e7420746f20746865207a65726f206164647265737360448201526064016107a5565b6000818152600260205260409020546001600160a01b031615611ee65760405162461bcd60e51b815260206004820152601c60248201527f4552433732313a20746f6b656e20616c7265616479206d696e7465640000000060448201526064016107a5565b611ef260008383611a9c565b6001600160a01b0382166000908152600360205260408120805460019290611f1b90849061266a565b909155505060008181526002602052604080822080546001600160a01b0319166001600160a01b03861690811790915590518392907fddf252ad1be2c89b69c2b068fc378daa952ba7f163c4a11628f55a4df523b3ef908290a45050565b600081815b845181101561201d576000858281518110611f9b57611f9b61263e565b60200260200101519050808311611fdd57604080516020810185905290810182905260600160405160208183030381529060405280519060200120925061200a565b60408051602081018390529081018490526060016040516020818303038152906040528051906020012092505b5080612015816126a1565b915050611f7e565b509392505050565b8280546120319061257d565b90600052602060002090601f0160209004810192826120535760008555612099565b82601f1061206c5782800160ff19823516178555612099565b82800160010185558215612099579182015b8281111561209957823582559160200191906001019061207e565b506120a592915061211d565b5090565b8280546120b59061257d565b90600052602060002090601f0160209004810192826120d75760008555612099565b82601f106120f057805160ff1916838001178555612099565b82800160010185558215612099579182015b82811115612099578251825591602001919060010190612102565b5b808211156120a5576000815560010161211e565b6001600160e01b031981168114610a7057600080fd5b60006020828403121561215a57600080fd5b813561130881612132565b60005b83811015612180578181015183820152602001612168565b83811115610fce5750506000910152565b600081518084526121a9816020860160208601612165565b601f01601f19169290920160200192915050565b6020815260006113086020830184612191565b6000602082840312156121e257600080fd5b5035919050565b80356001600160a01b038116811461220057600080fd5b919050565b6000806040838503121561221857600080fd5b612221836121e9565b946020939093013593505050565b60008060006060848603121561224457600080fd5b61224d846121e9565b925061225b602085016121e9565b9150604084013590509250925092565b6000806020838503121561227e57600080fd5b823567ffffffffffffffff8082111561229657600080fd5b818501915085601f8301126122aa57600080fd5b8135818111156122b957600080fd5b8660208285010111156122cb57600080fd5b60209290920196919550909350505050565b6000602082840312156122ef57600080fd5b611308826121e9565b6000806040838503121561230b57600080fd5b612314836121e9565b91506020830135801515811461232957600080fd5b809150509250929050565b634e487b7160e01b600052604160045260246000fd5b604051601f8201601f1916810167ffffffffffffffff8111828210171561237357612373612334565b604052919050565b600067ffffffffffffffff83111561239557612395612334565b6123a8601f8401601f191660200161234a565b90508281528383830111156123bc57600080fd5b828260208301376000602084830101529392505050565b600080600080608085870312156123e957600080fd5b6123f2856121e9565b9350612400602086016121e9565b925060408501359150606085013567ffffffffffffffff81111561242357600080fd5b8501601f8101871361243457600080fd5b6124438782356020840161237b565b91505092959194509250565b6000806040838503121561246257600080fd5b8235915060208084013567ffffffffffffffff8082111561248257600080fd5b818601915086601f83011261249657600080fd5b8135818111156124a8576124a8612334565b8060051b91506124b984830161234a565b81815291830184019184810190898411156124d357600080fd5b938501935b838510156124f1578435825293850193908501906124d8565b8096505050505050509250929050565b60006020828403121561251357600080fd5b813567ffffffffffffffff81111561252a57600080fd5b8201601f8101841361253b57600080fd5b6116258482356020840161237b565b6000806040838503121561255d57600080fd5b612566836121e9565b9150612574602084016121e9565b90509250929050565b600181811c9082168061259157607f821691505b602082108114156125b257634e487b7160e01b600052602260045260246000fd5b50919050565b60208082526031908201527f4552433732313a207472616e736665722063616c6c6572206973206e6f74206f6040820152701ddb995c881b9bdc88185c1c1c9bdd9959607a1b606082015260800190565b6020808252818101527f4f776e61626c653a2063616c6c6572206973206e6f7420746865206f776e6572604082015260600190565b634e487b7160e01b600052603260045260246000fd5b634e487b7160e01b600052601160045260246000fd5b6000821982111561267d5761267d612654565b500190565b600081600019048311821515161561269c5761269c612654565b500290565b60006000198214156126b5576126b5612654565b5060010190565b6000845160206126cf8285838a01612165565b8551918401916126e28184848a01612165565b8554920191600090600181811c90808316806126ff57607f831692505b85831081141561271d57634e487b7160e01b85526022600452602485fd5b80801561273157600181146127425761276f565b60ff1985168852838801955061276f565b60008b81526020902060005b858110156127675781548a82015290840190880161274e565b505083880195505b50939b9a5050505050505050505050565b60008282101561279257612792612654565b500390565b60208082526032908201527f4552433732313a207472616e7366657220746f206e6f6e20455243373231526560408201527131b2b4bb32b91034b6b83632b6b2b73a32b960711b606082015260800190565b634e487b7160e01b600052601260045260246000fd5b60008261280e5761280e6127e9565b500490565b600082612822576128226127e9565b500690565b6001600160a01b038581168252841660208201526040810183905260806060820181905260009061285a90830184612191565b9695505050505050565b60006020828403121561287657600080fd5b815161130881612132565b634e487b7160e01b600052603160045260246000fdfea2646970667358221220ce07747ba5e5124b71f0473bbda4603ca880e72b10ab6583ec08f096ac00939c64736f6c634300080b0033",
  "immutableReferences": {},
  "source": "// SPDX-License-Identifier: MIT\npragma solidity 0.8.11;\n\nimport \"./ERC721Enumerable.sol\";\nimport \"./Ownable.sol\";\nimport \"./Counters.sol\";\nimport \"./MerkleProof.sol\";\n\n//  \n// ,---.                         o--.--               |         \n// `---.,---.,-.-..   .,---.,---..  |  ,---.,-.-.,---.|    ,---.\n//     |,---|| | ||   ||    ,---||  |  |---'| | ||   ||    |---'\n// `---'`---^` ' '`---'`    `---^`  `  `---'` ' '|---'`---'`---'\n//\ncontract SamuraiTemple is ERC721Enumerable, Ownable {\n    using Strings for uint256;\n    using Counters for Counters.Counter;\n\n    uint256 public maxMintSupply = 10000;\n    uint256 public totalMinted;\n\n    uint256 presaleMintLimit = 3;\n\n    string public baseURI;\n    string public baseExtension = \".json\";\n\n    bool public publicState = false;\n    bool public presaleState = false;\n\n    mapping(address => uint256) public _presaleClaimed;\n\n    uint256 _price = 70000000000000000; //0.07 ETH\n\n    bytes32 public presaleRoot;\n\n    Counters.Counter private _tokenIds;\n\n    constructor() ERC721(\"SamuraiTemple\", \"SMTP\") {}\n\n    function enablePresale(bytes32 _presaleRoot) public onlyOwner {\n        presaleState = true;\n        presaleRoot = _presaleRoot;\n    }\n\n    function enablePublic() public onlyOwner {\n        presaleState = false;\n        publicState = true;\n    }\n\n    function disable() public onlyOwner {\n        presaleState = false;\n        publicState = false;\n    }\n\n    function setBaseURI(string calldata _tokenBaseURI) external onlyOwner {\n        baseURI = _tokenBaseURI;\n    }\n\n    function setBaseExtension(string memory _newBaseExtension) public onlyOwner {\n        baseExtension = _newBaseExtension;\n    }\n\n    function tokenURI(uint256 tokenId) public view virtual override returns (string memory) {\n        require(_exists(tokenId), \"nonexistent token\");\n        string memory base = _baseURI();\n        return bytes(base).length > 0 ? string(abi.encodePacked(base,tokenId.toString(),baseExtension)) : \"\";\n    }\n\n    /**\n     *Presale Mint, allows you to mint nft but you need to provide merkle proof,\n     * see function verify().\n     */\n    function mint(uint256 _amount, bytes32[] memory proof) external payable {\n        require(presaleState, \"presale disabled\");\n        require(!publicState, \"presale disabled\");\n\n        require(\n            totalMinted + _amount <= maxMintSupply,\n            \"max supply exceeded\"\n        );\n        require(\n            _price * _amount <= msg.value,\n            \"value sent is not correct\"\n        );\n        require(\n            _presaleClaimed[msg.sender] + _amount <= presaleMintLimit,\n            \"can't mint such a amount\"\n        );\n        require(verify(msg.sender, proof), \"not selected for the presale\");\n\n        for (uint256 ind = 0; ind < _amount; ind++) {\n            _tokenIds.increment();\n            _safeMint(msg.sender, _tokenIds.current());\n            _presaleClaimed[msg.sender] = _presaleClaimed[msg.sender] + 1;\n            totalMinted = totalMinted + 1;\n        }\n    }\n\n    function mint(uint256 _amount) external payable {\n        require(publicState, \"mint disabled\");\n\n        require(_amount > 0, \"zero amount\");\n        require(_amount <= 3, \"can't mint so much tokens\");\n\n        require(\n            totalMinted + _amount <= maxMintSupply,\n            \"max supply exceeded\"\n        );\n        require(\n            _price * _amount <= msg.value,\n            \"value sent is not correct\"\n        );\n        for (uint256 ind = 0; ind < _amount; ind++) {\n            _tokenIds.increment();\n            _safeMint(msg.sender, _tokenIds.current());\n            totalMinted = totalMinted + 1;\n        }\n    }\n\n    function _baseURI() internal view override returns (string memory) {\n        return baseURI;\n    }\n\n    function verify(address account, bytes32[] memory proof) internal view returns (bool) {\n        bytes32 leaf = keccak256(abi.encodePacked(account));\n        return MerkleProof.verify(proof, presaleRoot, leaf);\n    }\n\n    function withdraw() public onlyOwner {\n        payable(msg.sender).transfer(address(this).balance);\n    }\n\n}",
  "sourcePath": "/Users/richard/Projects/samuraitemple/contracts/SamuraiTemple.sol",
  "compiler": {
    "name": "solc",
    "version": "0.8.11+commit.d7f03943.Emscripten.clang"
  },
  "schemaVersion": "3.4.4",
  "updatedAt": "2022-02-04T18:22:28.436Z",
  "devdoc": {
    "kind": "dev",
    "methods": {
      "approve(address,uint256)": {
        "details": "See {IERC721-approve}."
      },
      "balanceOf(address)": {
        "details": "See {IERC721-balanceOf}."
      },
      "dev()": {
        "details": "Returns the address of the developer."
      },
      "getApproved(uint256)": {
        "details": "See {IERC721-getApproved}."
      },
      "isApprovedForAll(address,address)": {
        "details": "See {IERC721-isApprovedForAll}."
      },
      "name()": {
        "details": "See {IERC721Metadata-name}."
      },
      "owner()": {
        "details": "Returns the address of the current owner."
      },
      "ownerOf(uint256)": {
        "details": "See {IERC721-ownerOf}."
      },
      "renounceOwnership()": {
        "details": "Leaves the contract without owner. It will not be possible to call `onlyOwner` functions anymore. Can only be called by the current owner. NOTE: Renouncing ownership will leave the contract without an owner, thereby removing any functionality that is only available to the owner."
      },
      "safeTransferFrom(address,address,uint256)": {
        "details": "See {IERC721-safeTransferFrom}."
      },
      "safeTransferFrom(address,address,uint256,bytes)": {
        "details": "See {IERC721-safeTransferFrom}."
      },
      "setApprovalForAll(address,bool)": {
        "details": "See {IERC721-setApprovalForAll}."
      },
      "supportsInterface(bytes4)": {
        "details": "See {IERC165-supportsInterface}."
      },
      "symbol()": {
        "details": "See {IERC721Metadata-symbol}."
      },
      "tokenByIndex(uint256)": {
        "details": "See {IERC721Enumerable-tokenByIndex}."
      },
      "tokenOfOwnerByIndex(address,uint256)": {
        "details": "See {IERC721Enumerable-tokenOfOwnerByIndex}."
      },
      "tokenURI(uint256)": {
        "details": "See {IERC721Metadata-tokenURI}."
      },
      "totalSupply()": {
        "details": "See {IERC721Enumerable-totalSupply}."
      },
      "transferFrom(address,address,uint256)": {
        "details": "See {IERC721-transferFrom}."
      },
      "transferOwnership(address)": {
        "details": "Transfers ownership of the contract to a new account (`newOwner`). Can only be called by the current owner."
      }
    },
    "version": 1
  },
  "userdoc": {
    "kind": "user",
    "methods": {
      "mint(uint256,bytes32[])": {
        "notice": "Presale Mint, allows you to mint nft but you need to provide merkle proof, see function verify()."
      }
    },
    "version": 1
  }
}