{
  "contractName": "AstrologyClub",
  "abi": [
    {
      "inputs": [],
      "stateMutability": "nonpayable",
      "type": "constructor"
    },
    {
      "anonymous": false,
      "inputs": [
        {
          "indexed": true,
          "internalType": "address",
          "name": "owner",
          "type": "address"
        },
        {
          "indexed": true,
          "internalType": "address",
          "name": "approved",
          "type": "address"
        },
        {
          "indexed": true,
          "internalType": "uint256",
          "name": "tokenId",
          "type": "uint256"
        }
      ],
      "name": "Approval",
      "type": "event"
    },
    {
      "anonymous": false,
      "inputs": [
        {
          "indexed": true,
          "internalType": "address",
          "name": "owner",
          "type": "address"
        },
        {
          "indexed": true,
          "internalType": "address",
          "name": "operator",
          "type": "address"
        },
        {
          "indexed": false,
          "internalType": "bool",
          "name": "approved",
          "type": "bool"
        }
      ],
      "name": "ApprovalForAll",
      "type": "event"
    },
    {
      "anonymous": false,
      "inputs": [
        {
          "indexed": true,
          "internalType": "contract IERC20",
          "name": "token",
          "type": "address"
        },
        {
          "indexed": false,
          "internalType": "address",
          "name": "to",
          "type": "address"
        },
        {
          "indexed": false,
          "internalType": "uint256",
          "name": "amount",
          "type": "uint256"
        }
      ],
      "name": "ERC20PaymentReleased",
      "type": "event"
    },
    {
      "anonymous": false,
      "inputs": [
        {
          "indexed": true,
          "internalType": "address",
          "name": "previousOwner",
          "type": "address"
        },
        {
          "indexed": true,
          "internalType": "address",
          "name": "newOwner",
          "type": "address"
        }
      ],
      "name": "OwnershipTransferred",
      "type": "event"
    },
    {
      "anonymous": false,
      "inputs": [
        {
          "indexed": false,
          "internalType": "address",
          "name": "account",
          "type": "address"
        },
        {
          "indexed": false,
          "internalType": "uint256",
          "name": "shares",
          "type": "uint256"
        }
      ],
      "name": "PayeeAdded",
      "type": "event"
    },
    {
      "anonymous": false,
      "inputs": [
        {
          "indexed": false,
          "internalType": "address",
          "name": "from",
          "type": "address"
        },
        {
          "indexed": false,
          "internalType": "uint256",
          "name": "amount",
          "type": "uint256"
        }
      ],
      "name": "PaymentReceived",
      "type": "event"
    },
    {
      "anonymous": false,
      "inputs": [
        {
          "indexed": false,
          "internalType": "address",
          "name": "to",
          "type": "address"
        },
        {
          "indexed": false,
          "internalType": "uint256",
          "name": "amount",
          "type": "uint256"
        }
      ],
      "name": "PaymentReleased",
      "type": "event"
    },
    {
      "anonymous": false,
      "inputs": [
        {
          "indexed": true,
          "internalType": "address",
          "name": "from",
          "type": "address"
        },
        {
          "indexed": true,
          "internalType": "address",
          "name": "to",
          "type": "address"
        },
        {
          "indexed": true,
          "internalType": "uint256",
          "name": "tokenId",
          "type": "uint256"
        }
      ],
      "name": "Transfer",
      "type": "event"
    },
    {
      "inputs": [
        {
          "internalType": "address",
          "name": "to",
          "type": "address"
        },
        {
          "internalType": "uint256",
          "name": "tokenId",
          "type": "uint256"
        }
      ],
      "name": "approve",
      "outputs": [],
      "stateMutability": "nonpayable",
      "type": "function"
    },
    {
      "inputs": [
        {
          "internalType": "address",
          "name": "owner",
          "type": "address"
        }
      ],
      "name": "balanceOf",
      "outputs": [
        {
          "internalType": "uint256",
          "name": "",
          "type": "uint256"
        }
      ],
      "stateMutability": "view",
      "type": "function",
      "constant": true
    },
    {
      "inputs": [],
      "name": "baseURI",
      "outputs": [
        {
          "internalType": "string",
          "name": "",
          "type": "string"
        }
      ],
      "stateMutability": "view",
      "type": "function",
      "constant": true
    },
    {
      "inputs": [
        {
          "internalType": "uint256",
          "name": "tokenId",
          "type": "uint256"
        }
      ],
      "name": "getApproved",
      "outputs": [
        {
          "internalType": "address",
          "name": "",
          "type": "address"
        }
      ],
      "stateMutability": "view",
      "type": "function",
      "constant": true
    },
    {
      "inputs": [
        {
          "internalType": "address",
          "name": "owner",
          "type": "address"
        },
        {
          "internalType": "address",
          "name": "operator",
          "type": "address"
        }
      ],
      "name": "isApprovedForAll",
      "outputs": [
        {
          "internalType": "bool",
          "name": "",
          "type": "bool"
        }
      ],
      "stateMutability": "view",
      "type": "function",
      "constant": true
    },
    {
      "inputs": [],
      "name": "limitPerWallet",
      "outputs": [
        {
          "internalType": "uint256",
          "name": "",
          "type": "uint256"
        }
      ],
      "stateMutability": "view",
      "type": "function",
      "constant": true
    },
    {
      "inputs": [],
      "name": "maxMintSupply",
      "outputs": [
        {
          "internalType": "uint256",
          "name": "",
          "type": "uint256"
        }
      ],
      "stateMutability": "view",
      "type": "function",
      "constant": true
    },
    {
      "inputs": [],
      "name": "name",
      "outputs": [
        {
          "internalType": "string",
          "name": "",
          "type": "string"
        }
      ],
      "stateMutability": "view",
      "type": "function",
      "constant": true
    },
    {
      "inputs": [],
      "name": "nextOwnerToExplicitlySet",
      "outputs": [
        {
          "internalType": "uint256",
          "name": "",
          "type": "uint256"
        }
      ],
      "stateMutability": "view",
      "type": "function",
      "constant": true
    },
    {
      "inputs": [],
      "name": "owner",
      "outputs": [
        {
          "internalType": "address",
          "name": "",
          "type": "address"
        }
      ],
      "stateMutability": "view",
      "type": "function",
      "constant": true
    },
    {
      "inputs": [
        {
          "internalType": "uint256",
          "name": "tokenId",
          "type": "uint256"
        }
      ],
      "name": "ownerOf",
      "outputs": [
        {
          "internalType": "address",
          "name": "",
          "type": "address"
        }
      ],
      "stateMutability": "view",
      "type": "function",
      "constant": true
    },
    {
      "inputs": [
        {
          "internalType": "uint256",
          "name": "index",
          "type": "uint256"
        }
      ],
      "name": "payee",
      "outputs": [
        {
          "internalType": "address",
          "name": "",
          "type": "address"
        }
      ],
      "stateMutability": "view",
      "type": "function",
      "constant": true
    },
    {
      "inputs": [],
      "name": "publicState",
      "outputs": [
        {
          "internalType": "bool",
          "name": "",
          "type": "bool"
        }
      ],
      "stateMutability": "view",
      "type": "function",
      "constant": true
    },
    {
      "inputs": [
        {
          "internalType": "address payable",
          "name": "account",
          "type": "address"
        }
      ],
      "name": "release",
      "outputs": [],
      "stateMutability": "nonpayable",
      "type": "function"
    },
    {
      "inputs": [
        {
          "internalType": "contract IERC20",
          "name": "token",
          "type": "address"
        },
        {
          "internalType": "address",
          "name": "account",
          "type": "address"
        }
      ],
      "name": "release",
      "outputs": [],
      "stateMutability": "nonpayable",
      "type": "function"
    },
    {
      "inputs": [
        {
          "internalType": "contract IERC20",
          "name": "token",
          "type": "address"
        },
        {
          "internalType": "address",
          "name": "account",
          "type": "address"
        }
      ],
      "name": "released",
      "outputs": [
        {
          "internalType": "uint256",
          "name": "",
          "type": "uint256"
        }
      ],
      "stateMutability": "view",
      "type": "function",
      "constant": true
    },
    {
      "inputs": [
        {
          "internalType": "address",
          "name": "account",
          "type": "address"
        }
      ],
      "name": "released",
      "outputs": [
        {
          "internalType": "uint256",
          "name": "",
          "type": "uint256"
        }
      ],
      "stateMutability": "view",
      "type": "function",
      "constant": true
    },
    {
      "inputs": [],
      "name": "renounceOwnership",
      "outputs": [],
      "stateMutability": "nonpayable",
      "type": "function"
    },
    {
      "inputs": [
        {
          "internalType": "address",
          "name": "from",
          "type": "address"
        },
        {
          "internalType": "address",
          "name": "to",
          "type": "address"
        },
        {
          "internalType": "uint256",
          "name": "tokenId",
          "type": "uint256"
        }
      ],
      "name": "safeTransferFrom",
      "outputs": [],
      "stateMutability": "nonpayable",
      "type": "function"
    },
    {
      "inputs": [
        {
          "internalType": "address",
          "name": "from",
          "type": "address"
        },
        {
          "internalType": "address",
          "name": "to",
          "type": "address"
        },
        {
          "internalType": "uint256",
          "name": "tokenId",
          "type": "uint256"
        },
        {
          "internalType": "bytes",
          "name": "_data",
          "type": "bytes"
        }
      ],
      "name": "safeTransferFrom",
      "outputs": [],
      "stateMutability": "nonpayable",
      "type": "function"
    },
    {
      "inputs": [
        {
          "internalType": "address",
          "name": "operator",
          "type": "address"
        },
        {
          "internalType": "bool",
          "name": "approved",
          "type": "bool"
        }
      ],
      "name": "setApprovalForAll",
      "outputs": [],
      "stateMutability": "nonpayable",
      "type": "function"
    },
    {
      "inputs": [
        {
          "internalType": "address",
          "name": "account",
          "type": "address"
        }
      ],
      "name": "shares",
      "outputs": [
        {
          "internalType": "uint256",
          "name": "",
          "type": "uint256"
        }
      ],
      "stateMutability": "view",
      "type": "function",
      "constant": true
    },
    {
      "inputs": [
        {
          "internalType": "bytes4",
          "name": "interfaceId",
          "type": "bytes4"
        }
      ],
      "name": "supportsInterface",
      "outputs": [
        {
          "internalType": "bool",
          "name": "",
          "type": "bool"
        }
      ],
      "stateMutability": "view",
      "type": "function",
      "constant": true
    },
    {
      "inputs": [],
      "name": "symbol",
      "outputs": [
        {
          "internalType": "string",
          "name": "",
          "type": "string"
        }
      ],
      "stateMutability": "view",
      "type": "function",
      "constant": true
    },
    {
      "inputs": [
        {
          "internalType": "uint256",
          "name": "index",
          "type": "uint256"
        }
      ],
      "name": "tokenByIndex",
      "outputs": [
        {
          "internalType": "uint256",
          "name": "",
          "type": "uint256"
        }
      ],
      "stateMutability": "view",
      "type": "function",
      "constant": true
    },
    {
      "inputs": [
        {
          "internalType": "address",
          "name": "owner",
          "type": "address"
        },
        {
          "internalType": "uint256",
          "name": "index",
          "type": "uint256"
        }
      ],
      "name": "tokenOfOwnerByIndex",
      "outputs": [
        {
          "internalType": "uint256",
          "name": "",
          "type": "uint256"
        }
      ],
      "stateMutability": "view",
      "type": "function",
      "constant": true
    },
    {
      "inputs": [
        {
          "internalType": "uint256",
          "name": "tokenId",
          "type": "uint256"
        }
      ],
      "name": "tokenURI",
      "outputs": [
        {
          "internalType": "string",
          "name": "",
          "type": "string"
        }
      ],
      "stateMutability": "view",
      "type": "function",
      "constant": true
    },
    {
      "inputs": [],
      "name": "totalMinted",
      "outputs": [
        {
          "internalType": "uint256",
          "name": "",
          "type": "uint256"
        }
      ],
      "stateMutability": "view",
      "type": "function",
      "constant": true
    },
    {
      "inputs": [
        {
          "internalType": "contract IERC20",
          "name": "token",
          "type": "address"
        }
      ],
      "name": "totalReleased",
      "outputs": [
        {
          "internalType": "uint256",
          "name": "",
          "type": "uint256"
        }
      ],
      "stateMutability": "view",
      "type": "function",
      "constant": true
    },
    {
      "inputs": [],
      "name": "totalReleased",
      "outputs": [
        {
          "internalType": "uint256",
          "name": "",
          "type": "uint256"
        }
      ],
      "stateMutability": "view",
      "type": "function",
      "constant": true
    },
    {
      "inputs": [],
      "name": "totalShares",
      "outputs": [
        {
          "internalType": "uint256",
          "name": "",
          "type": "uint256"
        }
      ],
      "stateMutability": "view",
      "type": "function",
      "constant": true
    },
    {
      "inputs": [],
      "name": "totalSupply",
      "outputs": [
        {
          "internalType": "uint256",
          "name": "",
          "type": "uint256"
        }
      ],
      "stateMutability": "view",
      "type": "function",
      "constant": true
    },
    {
      "inputs": [
        {
          "internalType": "address",
          "name": "from",
          "type": "address"
        },
        {
          "internalType": "address",
          "name": "to",
          "type": "address"
        },
        {
          "internalType": "uint256",
          "name": "tokenId",
          "type": "uint256"
        }
      ],
      "name": "transferFrom",
      "outputs": [],
      "stateMutability": "nonpayable",
      "type": "function"
    },
    {
      "inputs": [
        {
          "internalType": "address",
          "name": "newOwner",
          "type": "address"
        }
      ],
      "name": "transferOwnership",
      "outputs": [],
      "stateMutability": "nonpayable",
      "type": "function"
    },
    {
      "stateMutability": "payable",
      "type": "receive",
      "payable": true
    },
    {
      "inputs": [],
      "name": "enable",
      "outputs": [],
      "stateMutability": "nonpayable",
      "type": "function"
    },
    {
      "inputs": [],
      "name": "disable",
      "outputs": [],
      "stateMutability": "nonpayable",
      "type": "function"
    },
    {
      "inputs": [
        {
          "internalType": "uint256",
          "name": "_amount",
          "type": "uint256"
        }
      ],
      "name": "mint",
      "outputs": [],
      "stateMutability": "payable",
      "type": "function",
      "payable": true
    }
  ],
  "bytecode": "0x6000808055600755612710601055601e6011556014805460ff1916905567016345785d8a0000601555610140604052603c60c0908152602160e052600561010052600261012052620000569060169060046200066a565b506040805160808101825273bd584ce590b7dcdbb93b11e095d9e1d5880b44d981527385a37ac5c3250827b4f50f3373275c67c7f5ff3b602082015273a26ae192f618f89f3579974e87e2a9277065460591810191909152731d7d6857c397788d1d33744276b54efae92cbbad6060820152620000d8906017906004620006bf565b50348015620000e657600080fd5b5060178054806020026020016040519081016040528092919081815260200182805480156200013f57602002820191906000526020600020905b81546001600160a01b0316815260019091019060200180831162000120575b505050505060168054806020026020016040519081016040528092919081815260200182805480156200019257602002820191906000526020600020905b8154815260200190600101908083116200017d575b50505050506040518060400160405280600d81526020016c20b9ba3937b637b3bca1b63ab160991b815250604051806040016040528060068152602001655a4f4449414360d01b815250601154601054600081116200024f5760405162461bcd60e51b815260206004820152602e60248201527f455243373231413a20636f6c6c656374696f6e206d757374206861766520612060448201526d6e6f6e7a65726f20737570706c7960901b60648201526084015b60405180910390fd5b60008211620002b15760405162461bcd60e51b815260206004820152602760248201527f455243373231413a206d61782062617463682073697a65206d757374206265206044820152666e6f6e7a65726f60c81b606482015260840162000246565b8351620002c690600190602087019062000717565b508251620002dc90600290602086019062000717565b5060a09190915260805250620002f49050336200042a565b8051825114620003625760405162461bcd60e51b815260206004820152603260248201527f5061796d656e7453706c69747465723a2070617965657320616e6420736861726044820152710cae640d8cadccee8d040dad2e6dac2e8c6d60731b606482015260840162000246565b6000825111620003b55760405162461bcd60e51b815260206004820152601a60248201527f5061796d656e7453706c69747465723a206e6f20706179656573000000000000604482015260640162000246565b60005b825181101562000421576200040c838281518110620003db57620003db620007ab565b6020026020010151838381518110620003f857620003f8620007ab565b60200260200101516200047c60201b60201c565b806200041881620007d7565b915050620003b8565b5050506200084d565b600880546001600160a01b038381166001600160a01b0319831681179093556040519116919082907f8be0079c531659141344cd1fd0a4f28419497f9722a3daafe3b4186f6b6457e090600090a35050565b6001600160a01b038216620004e95760405162461bcd60e51b815260206004820152602c60248201527f5061796d656e7453706c69747465723a206163636f756e74206973207468652060448201526b7a65726f206164647265737360a01b606482015260840162000246565b600081116200053b5760405162461bcd60e51b815260206004820152601d60248201527f5061796d656e7453706c69747465723a20736861726573206172652030000000604482015260640162000246565b6001600160a01b0382166000908152600b602052604090205415620005b75760405162461bcd60e51b815260206004820152602b60248201527f5061796d656e7453706c69747465723a206163636f756e7420616c726561647960448201526a206861732073686172657360a81b606482015260840162000246565b600d8054600181019091557fd7b6990105719101dabeb77144f2a3385c8033acd3af97e9423a695e81ad1eb50180546001600160a01b0319166001600160a01b0384169081179091556000908152600b6020526040902081905560095462000621908290620007f5565b600955604080516001600160a01b0384168152602081018390527f40c340f65e17194d14ddddb073d3c9f888e3cb52b5aae0c6c7706b4fbc905fac910160405180910390a15050565b828054828255906000526020600020908101928215620006ad579160200282015b82811115620006ad578251829060ff169055916020019190600101906200068b565b50620006bb92915062000794565b5090565b828054828255906000526020600020908101928215620006ad579160200282015b82811115620006ad57825182546001600160a01b0319166001600160a01b03909116178255602090920191600190910190620006e0565b828054620007259062000810565b90600052602060002090601f016020900481019282620007495760008555620006ad565b82601f106200076457805160ff1916838001178555620006ad565b82800160010185558215620006ad579182015b82811115620006ad57825182559160200191906001019062000777565b5b80821115620006bb576000815560010162000795565b634e487b7160e01b600052603260045260246000fd5b634e487b7160e01b600052601160045260246000fd5b6000600019821415620007ee57620007ee620007c1565b5060010190565b600082198211156200080b576200080b620007c1565b500190565b600181811c908216806200082557607f821691505b602082108114156200084757634e487b7160e01b600052602260045260246000fd5b50919050565b60805160a0516129db6200087e60003960008181611b0d01528181611b37015261203f0152600050506129db6000f3fe60806040526004361061021e5760003560e01c80638b83209b11610123578063abfe7614116100ab578063d7224ba01161006f578063d7224ba014610679578063d79779b21461068f578063e33b7de3146106c5578063e985e9c5146106da578063f2fde38b1461072357600080fd5b8063abfe7614146105d3578063b88d4fde146105ed578063c285e1071461060d578063c87b56dd14610623578063ce7c2ac21461064357600080fd5b8063a0712d68116100f2578063a0712d681461055f578063a22cb46514610572578063a2309ff814610592578063a3907d71146105a8578063a620ce5a146105bd57600080fd5b80638b83209b146104d65780638da5cb5b146104f657806395d89b41146105145780639852595c1461052957600080fd5b80633a98ef39116101a65780634f6ccce7116101755780634f6ccce71461044c5780636352211e1461046c5780636c0360eb1461048c57806370a08231146104a1578063715018a6146104c157600080fd5b80633a98ef39146103b1578063406072a9146103c657806342842e0e1461040c57806348b750441461042c57600080fd5b806318160ddd116101ed57806318160ddd1461031d578063191655871461033c57806323b872dd1461035c5780632f2770db1461037c5780632f745c591461039157600080fd5b806301ffc9a71461026c57806306fdde03146102a1578063081812fc146102c3578063095ea7b3146102fb57600080fd5b36610267577f6ef95f06320e7a25a04a175ca677b7052bdd97131872c2192525a629f51be77033604080516001600160a01b0390921682523460208301520160405180910390a1005b600080fd5b34801561027857600080fd5b5061028c61028736600461237e565b610743565b60405190151581526020015b60405180910390f35b3480156102ad57600080fd5b506102b66107b0565b60405161029891906123f3565b3480156102cf57600080fd5b506102e36102de366004612406565b610842565b6040516001600160a01b039091168152602001610298565b34801561030757600080fd5b5061031b610316366004612434565b6108d2565b005b34801561032957600080fd5b506000545b604051908152602001610298565b34801561034857600080fd5b5061031b610357366004612460565b6109ea565b34801561036857600080fd5b5061031b61037736600461247d565b610b18565b34801561038857600080fd5b5061031b610b23565b34801561039d57600080fd5b5061032e6103ac366004612434565b610b59565b3480156103bd57600080fd5b5060095461032e565b3480156103d257600080fd5b5061032e6103e13660046124be565b6001600160a01b039182166000908152600f6020908152604080832093909416825291909152205490565b34801561041857600080fd5b5061031b61042736600461247d565b610cc7565b34801561043857600080fd5b5061031b6104473660046124be565b610ce2565b34801561045857600080fd5b5061032e610467366004612406565b610ebb565b34801561047857600080fd5b506102e3610487366004612406565b610f1d565b34801561049857600080fd5b506102b6610f2f565b3480156104ad57600080fd5b5061032e6104bc366004612460565b610fbd565b3480156104cd57600080fd5b5061031b61104e565b3480156104e257600080fd5b506102e36104f1366004612406565b611084565b34801561050257600080fd5b506008546001600160a01b03166102e3565b34801561052057600080fd5b506102b66110b4565b34801561053557600080fd5b5061032e610544366004612460565b6001600160a01b03166000908152600c602052604090205490565b61031b61056d366004612406565b6110c3565b34801561057e57600080fd5b5061031b61058d366004612505565b61125a565b34801561059e57600080fd5b5061032e60125481565b3480156105b457600080fd5b5061031b61131f565b3480156105c957600080fd5b5061032e60115481565b3480156105df57600080fd5b5060145461028c9060ff1681565b3480156105f957600080fd5b5061031b610608366004612549565b611358565b34801561061957600080fd5b5061032e60105481565b34801561062f57600080fd5b506102b661063e366004612406565b611391565b34801561064f57600080fd5b5061032e61065e366004612460565b6001600160a01b03166000908152600b602052604090205490565b34801561068557600080fd5b5061032e60075481565b34801561069b57600080fd5b5061032e6106aa366004612460565b6001600160a01b03166000908152600e602052604090205490565b3480156106d157600080fd5b50600a5461032e565b3480156106e657600080fd5b5061028c6106f53660046124be565b6001600160a01b03918216600090815260066020908152604080832093909416825291909152205460ff1690565b34801561072f57600080fd5b5061031b61073e366004612460565b61145e565b60006001600160e01b031982166380ac58cd60e01b148061077457506001600160e01b03198216635b5e139f60e01b145b8061078f57506001600160e01b0319821663780e9d6360e01b145b806107aa57506301ffc9a760e01b6001600160e01b03198316145b92915050565b6060600180546107bf90612629565b80601f01602080910402602001604051908101604052809291908181526020018280546107eb90612629565b80156108385780601f1061080d57610100808354040283529160200191610838565b820191906000526020600020905b81548152906001019060200180831161081b57829003601f168201915b5050505050905090565b600061084f826000541190565b6108b65760405162461bcd60e51b815260206004820152602d60248201527f455243373231413a20617070726f76656420717565727920666f72206e6f6e6560448201526c3c34b9ba32b73a103a37b5b2b760991b60648201526084015b60405180910390fd5b506000908152600560205260409020546001600160a01b031690565b60006108dd82610f1d565b9050806001600160a01b0316836001600160a01b0316141561094c5760405162461bcd60e51b815260206004820152602260248201527f455243373231413a20617070726f76616c20746f2063757272656e74206f776e60448201526132b960f11b60648201526084016108ad565b336001600160a01b0382161480610968575061096881336106f5565b6109da5760405162461bcd60e51b815260206004820152603960248201527f455243373231413a20617070726f76652063616c6c6572206973206e6f74206f60448201527f776e6572206e6f7220617070726f76656420666f7220616c6c0000000000000060648201526084016108ad565b6109e58383836114f6565b505050565b6001600160a01b0381166000908152600b6020526040902054610a1f5760405162461bcd60e51b81526004016108ad90612664565b6000610a2a600a5490565b610a3490476126c0565b90506000610a618383610a5c866001600160a01b03166000908152600c602052604090205490565b611552565b905080610a805760405162461bcd60e51b81526004016108ad906126d8565b6001600160a01b0383166000908152600c602052604081208054839290610aa89084906126c0565b9250508190555080600a6000828254610ac191906126c0565b90915550610ad190508382611598565b604080516001600160a01b0385168152602081018390527fdf20fd1e76bc69d672e4814fafb2c449bba3a5369d8359adf9e05e6fde87b056910160405180910390a1505050565b6109e58383836116b1565b6008546001600160a01b03163314610b4d5760405162461bcd60e51b81526004016108ad90612723565b6014805460ff19169055565b6000610b6483610fbd565b8210610bbd5760405162461bcd60e51b815260206004820152602260248201527f455243373231413a206f776e657220696e646578206f7574206f6620626f756e604482015261647360f01b60648201526084016108ad565b600080549080805b83811015610c67576000818152600360209081526040918290208251808401909352546001600160a01b038116808452600160a01b90910467ffffffffffffffff169183019190915215610c1857805192505b876001600160a01b0316836001600160a01b03161415610c545786841415610c46575093506107aa92505050565b83610c5081612758565b9450505b5080610c5f81612758565b915050610bc5565b5060405162461bcd60e51b815260206004820152602e60248201527f455243373231413a20756e61626c6520746f2067657420746f6b656e206f662060448201526d0deeedccae440c4f240d2dcc8caf60931b60648201526084016108ad565b6109e583838360405180602001604052806000815250611358565b6001600160a01b0381166000908152600b6020526040902054610d175760405162461bcd60e51b81526004016108ad90612664565b6001600160a01b0382166000908152600e60205260408120546040516370a0823160e01b81523060048201526001600160a01b038516906370a0823190602401602060405180830381865afa158015610d74573d6000803e3d6000fd5b505050506040513d601f19601f82011682018060405250810190610d989190612773565b610da291906126c0565b90506000610ddb8383610a5c87876001600160a01b039182166000908152600f6020908152604080832093909416825291909152205490565b905080610dfa5760405162461bcd60e51b81526004016108ad906126d8565b6001600160a01b038085166000908152600f6020908152604080832093871683529290529081208054839290610e319084906126c0565b90915550506001600160a01b0384166000908152600e602052604081208054839290610e5e9084906126c0565b90915550610e6f9050848483611a39565b604080516001600160a01b038581168252602082018490528616917f3be5b7a71e84ed12875d241991c70855ac5817d847039e17a9d895c1ceb0f18a910160405180910390a250505050565b600080548210610f195760405162461bcd60e51b815260206004820152602360248201527f455243373231413a20676c6f62616c20696e646578206f7574206f6620626f756044820152626e647360e81b60648201526084016108ad565b5090565b6000610f2882611a8b565b5192915050565b60138054610f3c90612629565b80601f0160208091040260200160405190810160405280929190818152602001828054610f6890612629565b8015610fb55780601f10610f8a57610100808354040283529160200191610fb5565b820191906000526020600020905b815481529060010190602001808311610f9857829003601f168201915b505050505081565b60006001600160a01b0382166110295760405162461bcd60e51b815260206004820152602b60248201527f455243373231413a2062616c616e636520717565727920666f7220746865207a60448201526a65726f206164647265737360a81b60648201526084016108ad565b506001600160a01b03166000908152600460205260409020546001600160801b031690565b6008546001600160a01b031633146110785760405162461bcd60e51b81526004016108ad90612723565b6110826000611c35565b565b6000600d82815481106110995761109961278c565b6000918252602090912001546001600160a01b031692915050565b6060600280546107bf90612629565b60145460ff166111055760405162461bcd60e51b815260206004820152600d60248201526c1b5a5b9d08191a5cd8589b1959609a1b60448201526064016108ad565b600081116111435760405162461bcd60e51b815260206004820152600b60248201526a1e995c9bc8185b5bdd5b9d60aa1b60448201526064016108ad565b6011548111156111955760405162461bcd60e51b815260206004820152601960248201527f63616e2774206d696e7420736f206d75636820746f6b656e730000000000000060448201526064016108ad565b601054816111a260005490565b6111ac91906126c0565b11156111f05760405162461bcd60e51b81526020600482015260136024820152721b585e081cdd5c1c1b1e48195e18d959591959606a1b60448201526064016108ad565b34816015546111ff91906127a2565b111561124d5760405162461bcd60e51b815260206004820152601960248201527f76616c75652073656e74206973206e6f7420636f72726563740000000000000060448201526064016108ad565b6112573382611c87565b50565b6001600160a01b0382163314156112b35760405162461bcd60e51b815260206004820152601a60248201527f455243373231413a20617070726f766520746f2063616c6c657200000000000060448201526064016108ad565b3360008181526006602090815260408083206001600160a01b03871680855290835292819020805460ff191686151590811790915590519081529192917f17307eab39ab6107e8899845ad3d59bd9653f200f220920489ca2b5937696c31910160405180910390a35050565b6008546001600160a01b031633146113495760405162461bcd60e51b81526004016108ad90612723565b6014805460ff19166001179055565b6113638484846116b1565b61136f84848484611ca5565b61138b5760405162461bcd60e51b81526004016108ad906127c1565b50505050565b606061139e826000541190565b6114025760405162461bcd60e51b815260206004820152602f60248201527f4552433732314d657461646174613a2055524920717565727920666f72206e6f60448201526e3732bc34b9ba32b73a103a37b5b2b760891b60648201526084016108ad565b600061140c611da3565b9050600081511161142c5760405180602001604052806000815250611457565b8061143684611db2565b604051602001611447929190612814565b6040516020818303038152906040525b9392505050565b6008546001600160a01b031633146114885760405162461bcd60e51b81526004016108ad90612723565b6001600160a01b0381166114ed5760405162461bcd60e51b815260206004820152602660248201527f4f776e61626c653a206e6577206f776e657220697320746865207a65726f206160448201526564647265737360d01b60648201526084016108ad565b61125781611c35565b60008281526005602052604080822080546001600160a01b0319166001600160a01b0387811691821790925591518593918516917f8c5be1e5ebec7d5bd14f71427d1e84f3dd0314c0f7b2291e5b200ac8c7c3b92591a4505050565b6009546001600160a01b0384166000908152600b60205260408120549091839161157c90866127a2565b6115869190612869565b611590919061287d565b949350505050565b804710156115e85760405162461bcd60e51b815260206004820152601d60248201527f416464726573733a20696e73756666696369656e742062616c616e636500000060448201526064016108ad565b6000826001600160a01b03168260405160006040518083038185875af1925050503d8060008114611635576040519150601f19603f3d011682016040523d82523d6000602084013e61163a565b606091505b50509050806109e55760405162461bcd60e51b815260206004820152603a60248201527f416464726573733a20756e61626c6520746f2073656e642076616c75652c207260448201527f6563697069656e74206d6179206861766520726576657274656400000000000060648201526084016108ad565b60006116bc82611a8b565b80519091506000906001600160a01b0316336001600160a01b031614806116f35750336116e884610842565b6001600160a01b0316145b806117055750815161170590336106f5565b90508061176f5760405162461bcd60e51b815260206004820152603260248201527f455243373231413a207472616e736665722063616c6c6572206973206e6f74206044820152711bdddb995c881b9bdc88185c1c1c9bdd995960721b60648201526084016108ad565b846001600160a01b031682600001516001600160a01b0316146117e35760405162461bcd60e51b815260206004820152602660248201527f455243373231413a207472616e736665722066726f6d20696e636f72726563746044820152651037bbb732b960d11b60648201526084016108ad565b6001600160a01b0384166118475760405162461bcd60e51b815260206004820152602560248201527f455243373231413a207472616e7366657220746f20746865207a65726f206164604482015264647265737360d81b60648201526084016108ad565b61185760008484600001516114f6565b6001600160a01b03851660009081526004602052604081208054600192906118899084906001600160801b0316612894565b82546101009290920a6001600160801b038181021990931691831602179091556001600160a01b038616600090815260046020526040812080546001945090926118d5918591166128bc565b82546001600160801b039182166101009390930a9283029190920219909116179055506040805180820182526001600160a01b03808716825267ffffffffffffffff428116602080850191825260008981526003909152948520935184549151909216600160a01b026001600160e01b0319909116919092161717905561195d8460016126c0565b6000818152600360205260409020549091506001600160a01b03166119ef57611987816000541190565b156119ef5760408051808201825284516001600160a01b03908116825260208087015167ffffffffffffffff9081168285019081526000878152600390935294909120925183549451909116600160a01b026001600160e01b03199094169116179190911790555b83856001600160a01b0316876001600160a01b03167fddf252ad1be2c89b69c2b068fc378daa952ba7f163c4a11628f55a4df523b3ef60405160405180910390a45b505050505050565b604080516001600160a01b038416602482015260448082018490528251808303909101815260649091019091526020810180516001600160e01b031663a9059cbb60e01b1790526109e5908490611eb0565b6040805180820190915260008082526020820152611aaa826000541190565b611b095760405162461bcd60e51b815260206004820152602a60248201527f455243373231413a206f776e657220717565727920666f72206e6f6e657869736044820152693a32b73a103a37b5b2b760b11b60648201526084016108ad565b60007f00000000000000000000000000000000000000000000000000000000000000008310611b6a57611b5c7f00000000000000000000000000000000000000000000000000000000000000008461287d565b611b679060016126c0565b90505b825b818110611bd4576000818152600360209081526040918290208251808401909352546001600160a01b038116808452600160a01b90910467ffffffffffffffff169183019190915215611bc157949350505050565b5080611bcc816128e7565b915050611b6c565b5060405162461bcd60e51b815260206004820152602f60248201527f455243373231413a20756e61626c6520746f2064657465726d696e652074686560448201526e1037bbb732b91037b3103a37b5b2b760891b60648201526084016108ad565b600880546001600160a01b038381166001600160a01b0319831681179093556040519116919082907f8be0079c531659141344cd1fd0a4f28419497f9722a3daafe3b4186f6b6457e090600090a35050565b611ca1828260405180602001604052806000815250611f82565b5050565b60006001600160a01b0384163b15611d9857604051630a85bd0160e11b81526001600160a01b0385169063150b7a0290611ce99033908990889088906004016128fe565b6020604051808303816000875af1925050508015611d24575060408051601f3d908101601f19168201909252611d219181019061293b565b60015b611d7e573d808015611d52576040519150601f19603f3d011682016040523d82523d6000602084013e611d57565b606091505b508051611d765760405162461bcd60e51b81526004016108ad906127c1565b805181602001fd5b6001600160e01b031916630a85bd0160e11b149050611590565b506001949350505050565b6060601380546107bf90612629565b606081611dd65750506040805180820190915260018152600360fc1b602082015290565b8160005b8115611e005780611dea81612758565b9150611df99050600a83612869565b9150611dda565b60008167ffffffffffffffff811115611e1b57611e1b612533565b6040519080825280601f01601f191660200182016040528015611e45576020820181803683370190505b5090505b841561159057611e5a60018361287d565b9150611e67600a86612958565b611e729060306126c0565b60f81b818381518110611e8757611e8761278c565b60200101906001600160f81b031916908160001a905350611ea9600a86612869565b9450611e49565b6000611f05826040518060400160405280602081526020017f5361666545524332303a206c6f772d6c6576656c2063616c6c206661696c6564815250856001600160a01b031661225d9092919063ffffffff16565b8051909150156109e55780806020019051810190611f23919061296c565b6109e55760405162461bcd60e51b815260206004820152602a60248201527f5361666545524332303a204552433230206f7065726174696f6e20646964206e6044820152691bdd081cdd58d8d9595960b21b60648201526084016108ad565b6000546001600160a01b038416611fe55760405162461bcd60e51b815260206004820152602160248201527f455243373231413a206d696e7420746f20746865207a65726f206164647265736044820152607360f81b60648201526084016108ad565b611ff0816000541190565b1561203d5760405162461bcd60e51b815260206004820152601d60248201527f455243373231413a20746f6b656e20616c7265616479206d696e74656400000060448201526064016108ad565b7f00000000000000000000000000000000000000000000000000000000000000008311156120b85760405162461bcd60e51b815260206004820152602260248201527f455243373231413a207175616e7469747920746f206d696e7420746f6f2068696044820152610ced60f31b60648201526084016108ad565b6001600160a01b0384166000908152600460209081526040918290208251808401845290546001600160801b038082168352600160801b90910416918101919091528151808301909252805190919081906121149087906128bc565b6001600160801b0316815260200185836020015161213291906128bc565b6001600160801b039081169091526001600160a01b0380881660008181526004602090815260408083208751978301518716600160801b0297909616969096179094558451808601865291825267ffffffffffffffff4281168386019081528883526003909552948120915182549451909516600160a01b026001600160e01b031990941694909216939093179190911790915582905b858110156122525760405182906001600160a01b038916906000907fddf252ad1be2c89b69c2b068fc378daa952ba7f163c4a11628f55a4df523b3ef908290a46122166000888488611ca5565b6122325760405162461bcd60e51b81526004016108ad906127c1565b8161223c81612758565b925050808061224a90612758565b9150506121c9565b506000819055611a31565b6060611590848460008585843b6122b65760405162461bcd60e51b815260206004820152601d60248201527f416464726573733a2063616c6c20746f206e6f6e2d636f6e747261637400000060448201526064016108ad565b600080866001600160a01b031685876040516122d29190612989565b60006040518083038185875af1925050503d806000811461230f576040519150601f19603f3d011682016040523d82523d6000602084013e612314565b606091505b509150915061232482828661232f565b979650505050505050565b6060831561233e575081611457565b82511561234e5782518084602001fd5b8160405162461bcd60e51b81526004016108ad91906123f3565b6001600160e01b03198116811461125757600080fd5b60006020828403121561239057600080fd5b813561145781612368565b60005b838110156123b657818101518382015260200161239e565b8381111561138b5750506000910152565b600081518084526123df81602086016020860161239b565b601f01601f19169290920160200192915050565b60208152600061145760208301846123c7565b60006020828403121561241857600080fd5b5035919050565b6001600160a01b038116811461125757600080fd5b6000806040838503121561244757600080fd5b82356124528161241f565b946020939093013593505050565b60006020828403121561247257600080fd5b81356114578161241f565b60008060006060848603121561249257600080fd5b833561249d8161241f565b925060208401356124ad8161241f565b929592945050506040919091013590565b600080604083850312156124d157600080fd5b82356124dc8161241f565b915060208301356124ec8161241f565b809150509250929050565b801515811461125757600080fd5b6000806040838503121561251857600080fd5b82356125238161241f565b915060208301356124ec816124f7565b634e487b7160e01b600052604160045260246000fd5b6000806000806080858703121561255f57600080fd5b843561256a8161241f565b9350602085013561257a8161241f565b925060408501359150606085013567ffffffffffffffff8082111561259e57600080fd5b818701915087601f8301126125b257600080fd5b8135818111156125c4576125c4612533565b604051601f8201601f19908116603f011681019083821181831017156125ec576125ec612533565b816040528281528a602084870101111561260557600080fd5b82602086016020830137600060208483010152809550505050505092959194509250565b600181811c9082168061263d57607f821691505b6020821081141561265e57634e487b7160e01b600052602260045260246000fd5b50919050565b60208082526026908201527f5061796d656e7453706c69747465723a206163636f756e7420686173206e6f2060408201526573686172657360d01b606082015260800190565b634e487b7160e01b600052601160045260246000fd5b600082198211156126d3576126d36126aa565b500190565b6020808252602b908201527f5061796d656e7453706c69747465723a206163636f756e74206973206e6f742060408201526a191d59481c185e5b595b9d60aa1b606082015260800190565b6020808252818101527f4f776e61626c653a2063616c6c6572206973206e6f7420746865206f776e6572604082015260600190565b600060001982141561276c5761276c6126aa565b5060010190565b60006020828403121561278557600080fd5b5051919050565b634e487b7160e01b600052603260045260246000fd5b60008160001904831182151516156127bc576127bc6126aa565b500290565b60208082526033908201527f455243373231413a207472616e7366657220746f206e6f6e204552433732315260408201527232b1b2b4bb32b91034b6b83632b6b2b73a32b960691b606082015260800190565b6000835161282681846020880161239b565b83519083019061283a81836020880161239b565b64173539b7b760d91b9101908152600501949350505050565b634e487b7160e01b600052601260045260246000fd5b60008261287857612878612853565b500490565b60008282101561288f5761288f6126aa565b500390565b60006001600160801b03838116908316818110156128b4576128b46126aa565b039392505050565b60006001600160801b038083168185168083038211156128de576128de6126aa565b01949350505050565b6000816128f6576128f66126aa565b506000190190565b6001600160a01b0385811682528416602082015260408101839052608060608201819052600090612931908301846123c7565b9695505050505050565b60006020828403121561294d57600080fd5b815161145781612368565b60008261296757612967612853565b500690565b60006020828403121561297e57600080fd5b8151611457816124f7565b6000825161299b81846020870161239b565b919091019291505056fea2646970667358221220d0cc1a4efca1f6977a78c86021b2f646e7f87f298af5924f8d6c2adb2ea7680864736f6c634300080b0033",
  "immutableReferences": {
    "606": [
      {
        "length": 32,
        "start": 6925
      },
      {
        "length": 32,
        "start": 6967
      },
      {
        "length": 32,
        "start": 8255
      }
    ]
  },
  "source": "// SPDX-License-Identifier: MIT\npragma solidity 0.8.11;\n\nimport \"./ERC721A.sol\";\nimport \"./Ownable.sol\";\nimport \"./PaymentSplitter.sol\";\nimport \"./Counters.sol\";\n\ncontract AstrologyClub is ERC721A, Ownable, PaymentSplitter {\n    using Strings for uint256;\n    using Counters for Counters.Counter;\n\n    uint256 public maxMintSupply = 10000;\n    uint256 public limitPerWallet = 30;\n    uint256 public totalMinted;\n\n    string public baseURI;\n\n    bool public publicState = false;\n\n    uint256 _price = 100000000000000000; //0.1 ETH\n\n    uint256[] private _teamShares = [60, 33, 5, 2];\n\n    address[] private _team = [\n        0xBD584cE590B7dcdbB93b11e095d9E1D5880B44d9,\n        0x85a37aC5C3250827B4f50F3373275c67C7f5fF3b,\n        0xA26AE192f618F89F3579974E87e2a92770654605,\n        0x1D7d6857c397788d1d33744276B54EfaE92CbBad\n    ];\n\n    constructor()\n        ERC721A(\"AstrologyClub\", \"ZODIAC\", limitPerWallet, maxMintSupply)\n        PaymentSplitter(_team, _teamShares) {\n        // _transferOwnership(_team[0]);\n    }\n\n    function enable() public onlyOwner {\n        publicState = true;\n    }\n\n    function disable() public onlyOwner {\n        publicState = false;\n    }\n\n    function mint(uint256 _amount) external payable {\n        require(publicState, \"mint disabled\");\n        require(_amount > 0, \"zero amount\");\n        require(_amount <= limitPerWallet, \"can't mint so much tokens\");\n        require(totalSupply() + _amount <= maxMintSupply, \"max supply exceeded\");\n        require(_price * _amount <= msg.value, \"value sent is not correct\");\n\n        _safeMint(_msgSender(), _amount);\n    }\n\n    function _baseURI() internal view override returns (string memory) {\n        return baseURI;\n    }\n\n}",
  "sourcePath": "/Users/richard/Projects/astrologyclub/contracts/AstrologyClub.sol",
  "compiler": {
    "name": "solc",
    "version": "0.8.11+commit.d7f03943.Emscripten.clang"
  },
  "schemaVersion": "3.4.4",
  "updatedAt": "2022-02-14T12:48:55.401Z",
  "networkType": "ethereum",
  "devdoc": {
    "kind": "dev",
    "methods": {
      "approve(address,uint256)": {
        "details": "See {IERC721-approve}."
      },
      "balanceOf(address)": {
        "details": "See {IERC721-balanceOf}."
      },
      "getApproved(uint256)": {
        "details": "See {IERC721-getApproved}."
      },
      "isApprovedForAll(address,address)": {
        "details": "See {IERC721-isApprovedForAll}."
      },
      "name()": {
        "details": "See {IERC721Metadata-name}."
      },
      "owner()": {
        "details": "Returns the address of the current owner."
      },
      "ownerOf(uint256)": {
        "details": "See {IERC721-ownerOf}."
      },
      "payee(uint256)": {
        "details": "Getter for the address of the payee number `index`."
      },
      "release(address)": {
        "details": "Triggers a transfer to `account` of the amount of Ether they are owed, according to their percentage of the total shares and their previous withdrawals."
      },
      "release(address,address)": {
        "details": "Triggers a transfer to `account` of the amount of `token` tokens they are owed, according to their percentage of the total shares and their previous withdrawals. `token` must be the address of an IERC20 contract."
      },
      "released(address)": {
        "details": "Getter for the amount of Ether already released to a payee."
      },
      "released(address,address)": {
        "details": "Getter for the amount of `token` tokens already released to a payee. `token` should be the address of an IERC20 contract."
      },
      "renounceOwnership()": {
        "details": "Leaves the contract without owner. It will not be possible to call `onlyOwner` functions anymore. Can only be called by the current owner. NOTE: Renouncing ownership will leave the contract without an owner, thereby removing any functionality that is only available to the owner."
      },
      "safeTransferFrom(address,address,uint256)": {
        "details": "See {IERC721-safeTransferFrom}."
      },
      "safeTransferFrom(address,address,uint256,bytes)": {
        "details": "See {IERC721-safeTransferFrom}."
      },
      "setApprovalForAll(address,bool)": {
        "details": "See {IERC721-setApprovalForAll}."
      },
      "shares(address)": {
        "details": "Getter for the amount of shares held by an account."
      },
      "supportsInterface(bytes4)": {
        "details": "See {IERC165-supportsInterface}."
      },
      "symbol()": {
        "details": "See {IERC721Metadata-symbol}."
      },
      "tokenByIndex(uint256)": {
        "details": "See {IERC721Enumerable-tokenByIndex}."
      },
      "tokenOfOwnerByIndex(address,uint256)": {
        "details": "See {IERC721Enumerable-tokenOfOwnerByIndex}. This read function is O(collectionSize). If calling from a separate contract, be sure to test gas first. It may also degrade with extremely large collection sizes (e.g >> 10000), test for your use case."
      },
      "tokenURI(uint256)": {
        "details": "See {IERC721Metadata-tokenURI}."
      },
      "totalReleased()": {
        "details": "Getter for the total amount of Ether already released."
      },
      "totalReleased(address)": {
        "details": "Getter for the total amount of `token` already released. `token` should be the address of an IERC20 contract."
      },
      "totalShares()": {
        "details": "Getter for the total shares held by payees."
      },
      "totalSupply()": {
        "details": "See {IERC721Enumerable-totalSupply}."
      },
      "transferFrom(address,address,uint256)": {
        "details": "See {IERC721-transferFrom}."
      },
      "transferOwnership(address)": {
        "details": "Transfers ownership of the contract to a new account (`newOwner`). Can only be called by the current owner."
      }
    },
    "version": 1
  },
  "userdoc": {
    "kind": "user",
    "methods": {},
    "version": 1
  }
}